{
  "_format": "hh-sol-artifact-1",
  "contractName": "EventNFT",
  "sourceName": "contracts/EventNFT.sol",
  "abi": [
    {
      "inputs": [],
      "stateMutability": "nonpayable",
      "type": "constructor"
    },
    {
      "anonymous": false,
      "inputs": [
        {
          "indexed": true,
          "internalType": "address",
          "name": "account",
          "type": "address"
        },
        {
          "indexed": true,
          "internalType": "address",
          "name": "operator",
          "type": "address"
        },
        {
          "indexed": false,
          "internalType": "bool",
          "name": "approved",
          "type": "bool"
        }
      ],
      "name": "ApprovalForAll",
      "type": "event"
    },
    {
      "anonymous": false,
      "inputs": [
        {
          "indexed": false,
          "internalType": "address",
          "name": "sender",
          "type": "address"
        },
        {
          "indexed": false,
          "internalType": "uint256",
          "name": "ticketId",
          "type": "uint256"
        },
        {
          "indexed": false,
          "internalType": "uint256",
          "name": "_volume",
          "type": "uint256"
        }
      ],
      "name": "MintTickets",
      "type": "event"
    },
    {
      "anonymous": false,
      "inputs": [
        {
          "indexed": true,
          "internalType": "address",
          "name": "operator",
          "type": "address"
        },
        {
          "indexed": true,
          "internalType": "address",
          "name": "from",
          "type": "address"
        },
        {
          "indexed": true,
          "internalType": "address",
          "name": "to",
          "type": "address"
        },
        {
          "indexed": false,
          "internalType": "uint256[]",
          "name": "ids",
          "type": "uint256[]"
        },
        {
          "indexed": false,
          "internalType": "uint256[]",
          "name": "values",
          "type": "uint256[]"
        }
      ],
      "name": "TransferBatch",
      "type": "event"
    },
    {
      "anonymous": false,
      "inputs": [
        {
          "indexed": true,
          "internalType": "address",
          "name": "operator",
          "type": "address"
        },
        {
          "indexed": true,
          "internalType": "address",
          "name": "from",
          "type": "address"
        },
        {
          "indexed": true,
          "internalType": "address",
          "name": "to",
          "type": "address"
        },
        {
          "indexed": false,
          "internalType": "uint256",
          "name": "id",
          "type": "uint256"
        },
        {
          "indexed": false,
          "internalType": "uint256",
          "name": "value",
          "type": "uint256"
        }
      ],
      "name": "TransferSingle",
      "type": "event"
    },
    {
      "anonymous": false,
      "inputs": [
        {
          "indexed": false,
          "internalType": "string",
          "name": "value",
          "type": "string"
        },
        {
          "indexed": true,
          "internalType": "uint256",
          "name": "id",
          "type": "uint256"
        }
      ],
      "name": "URI",
      "type": "event"
    },
    {
      "inputs": [],
      "name": "TICKET",
      "outputs": [
        {
          "internalType": "uint256",
          "name": "",
          "type": "uint256"
        }
      ],
      "stateMutability": "view",
      "type": "function"
    },
    {
      "inputs": [
        {
          "internalType": "address",
          "name": "account",
          "type": "address"
        },
        {
          "internalType": "uint256",
          "name": "id",
          "type": "uint256"
        }
      ],
      "name": "balanceOf",
      "outputs": [
        {
          "internalType": "uint256",
          "name": "",
          "type": "uint256"
        }
      ],
      "stateMutability": "view",
      "type": "function"
    },
    {
      "inputs": [
        {
          "internalType": "address[]",
          "name": "accounts",
          "type": "address[]"
        },
        {
          "internalType": "uint256[]",
          "name": "ids",
          "type": "uint256[]"
        }
      ],
      "name": "balanceOfBatch",
      "outputs": [
        {
          "internalType": "uint256[]",
          "name": "",
          "type": "uint256[]"
        }
      ],
      "stateMutability": "view",
      "type": "function"
    },
    {
      "inputs": [],
      "name": "baseUri",
      "outputs": [
        {
          "internalType": "string",
          "name": "",
          "type": "string"
        }
      ],
      "stateMutability": "view",
      "type": "function"
    },
    {
      "inputs": [
        {
          "internalType": "address",
          "name": "account",
          "type": "address"
        },
        {
          "internalType": "address",
          "name": "operator",
          "type": "address"
        }
      ],
      "name": "isApprovedForAll",
      "outputs": [
        {
          "internalType": "bool",
          "name": "",
          "type": "bool"
        }
      ],
      "stateMutability": "view",
      "type": "function"
    },
    {
      "inputs": [
        {
          "internalType": "uint256",
          "name": "_volume",
          "type": "uint256"
        },
        {
          "internalType": "string",
          "name": "cid",
          "type": "string"
        }
      ],
      "name": "mintTickets",
      "outputs": [],
      "stateMutability": "nonpayable",
      "type": "function"
    },
    {
      "inputs": [],
      "name": "owner",
      "outputs": [
        {
          "internalType": "address",
          "name": "",
          "type": "address"
        }
      ],
      "stateMutability": "view",
      "type": "function"
    },
    {
      "inputs": [
        {
          "internalType": "address",
          "name": "from",
          "type": "address"
        },
        {
          "internalType": "address",
          "name": "to",
          "type": "address"
        },
        {
          "internalType": "uint256[]",
          "name": "ids",
          "type": "uint256[]"
        },
        {
          "internalType": "uint256[]",
          "name": "amounts",
          "type": "uint256[]"
        },
        {
          "internalType": "bytes",
          "name": "data",
          "type": "bytes"
        }
      ],
      "name": "safeBatchTransferFrom",
      "outputs": [],
      "stateMutability": "nonpayable",
      "type": "function"
    },
    {
      "inputs": [
        {
          "internalType": "address",
          "name": "from",
          "type": "address"
        },
        {
          "internalType": "address",
          "name": "to",
          "type": "address"
        },
        {
          "internalType": "uint256",
          "name": "id",
          "type": "uint256"
        },
        {
          "internalType": "uint256",
          "name": "amount",
          "type": "uint256"
        },
        {
          "internalType": "bytes",
          "name": "data",
          "type": "bytes"
        }
      ],
      "name": "safeTransferFrom",
      "outputs": [],
      "stateMutability": "nonpayable",
      "type": "function"
    },
    {
      "inputs": [
        {
          "internalType": "address",
          "name": "operator",
          "type": "address"
        },
        {
          "internalType": "bool",
          "name": "approved",
          "type": "bool"
        }
      ],
      "name": "setApprovalForAll",
      "outputs": [],
      "stateMutability": "nonpayable",
      "type": "function"
    },
    {
      "inputs": [
        {
          "internalType": "string",
          "name": "newuri",
          "type": "string"
        }
      ],
      "name": "setURI",
      "outputs": [],
      "stateMutability": "nonpayable",
      "type": "function"
    },
    {
      "inputs": [
        {
          "internalType": "bytes4",
          "name": "interfaceId",
          "type": "bytes4"
        }
      ],
      "name": "supportsInterface",
      "outputs": [
        {
          "internalType": "bool",
          "name": "",
          "type": "bool"
        }
      ],
      "stateMutability": "view",
      "type": "function"
    },
    {
      "inputs": [
        {
          "internalType": "uint256",
          "name": "",
          "type": "uint256"
        }
      ],
      "name": "ticketUri",
      "outputs": [
        {
          "internalType": "string",
          "name": "",
          "type": "string"
        }
      ],
      "stateMutability": "view",
      "type": "function"
    },
    {
      "inputs": [
        {
          "internalType": "uint256",
          "name": "_tokenId",
          "type": "uint256"
        }
      ],
      "name": "uri",
      "outputs": [
        {
          "internalType": "string",
          "name": "",
          "type": "string"
        }
      ],
      "stateMutability": "view",
      "type": "function"
    }
  ],
  "bytecode": "0x60806040523480156200001157600080fd5b506040518060600160405280602e8152602001620031d3602e91396200003d816200008560201b60201c565b5033600460006101000a81548173ffffffffffffffffffffffffffffffffffffffff021916908373ffffffffffffffffffffffffffffffffffffffff160217905550620001b6565b80600290805190602001906200009d929190620000a1565b5050565b828054620000af9062000180565b90600052602060002090601f016020900481019282620000d357600085556200011f565b82601f10620000ee57805160ff19168380011785556200011f565b828001600101855582156200011f579182015b828111156200011e57825182559160200191906001019062000101565b5b5090506200012e919062000132565b5090565b5b808211156200014d57600081600090555060010162000133565b5090565b7f4e487b7100000000000000000000000000000000000000000000000000000000600052602260045260246000fd5b600060028204905060018216806200019957607f821691505b60208210811415620001b057620001af62000151565b5b50919050565b61300d80620001c66000396000f3fe608060405234801561001057600080fd5b50600436106100e95760003560e01c806376c568291161008c578063a22cb46511610066578063a22cb4651461026e578063e985e9c51461028a578063f242432a146102ba578063ff995bb4146102d6576100e9565b806376c56829146102165780638da5cb5b146102325780639abc832014610250576100e9565b80630e89341c116100c85780630e89341c1461016a5780631c2161921461019a5780632eb2c2d6146101ca5780634e1273f4146101e6576100e9565b8062fdd58e146100ee57806301ffc9a71461011e57806302fe53051461014e575b600080fd5b61010860048036038101906101039190611a9d565b6102f4565b6040516101159190611aec565b60405180910390f35b61013860048036038101906101339190611b5f565b6103bd565b6040516101459190611ba7565b60405180910390f35b61016860048036038101906101639190611d08565b61049f565b005b610184600480360381019061017f9190611d51565b610552565b6040516101919190611e06565b60405180910390f35b6101b460048036038101906101af9190611d51565b610670565b6040516101c19190611e06565b60405180910390f35b6101e460048036038101906101df9190611f91565b610710565b005b61020060048036038101906101fb9190612123565b6107b1565b60405161020d9190612259565b60405180910390f35b610230600480360381019061022b919061227b565b6108ca565b005b61023a61096a565b60405161024791906122e6565b60405180910390f35b610258610990565b6040516102659190611e06565b60405180910390f35b6102886004803603810190610283919061232d565b610a1e565b005b6102a4600480360381019061029f919061236d565b610a34565b6040516102b19190611ba7565b60405180910390f35b6102d460048036038101906102cf91906123ad565b610ac8565b005b6102de610b69565b6040516102eb9190611aec565b60405180910390f35b60008073ffffffffffffffffffffffffffffffffffffffff168373ffffffffffffffffffffffffffffffffffffffff161415610365576040517f08c379a000000000000000000000000000000000000000000000000000000000815260040161035c906124b6565b60405180910390fd5b60008083815260200190815260200160002060008473ffffffffffffffffffffffffffffffffffffffff1673ffffffffffffffffffffffffffffffffffffffff16815260200190815260200160002054905092915050565b60007fd9b67a26000000000000000000000000000000000000000000000000000000007bffffffffffffffffffffffffffffffffffffffffffffffffffffffff1916827bffffffffffffffffffffffffffffffffffffffffffffffffffffffff1916148061048857507f0e89341c000000000000000000000000000000000000000000000000000000007bffffffffffffffffffffffffffffffffffffffffffffffffffffffff1916827bffffffffffffffffffffffffffffffffffffffffffffffffffffffff1916145b80610498575061049782610b6f565b5b9050919050565b600460009054906101000a900473ffffffffffffffffffffffffffffffffffffffff1673ffffffffffffffffffffffffffffffffffffffff163373ffffffffffffffffffffffffffffffffffffffff161461052f576040517f08c379a000000000000000000000000000000000000000000000000000000000815260040161052690612522565b60405180910390fd5b8060059080519060200190610545929190611952565b5061054f81610bd9565b50565b606060008211801561056657506003548211155b6105a5576040517f08c379a000000000000000000000000000000000000000000000000000000000815260040161059c9061258e565b60405180910390fd5b60006006600084815260200190815260200160002080546105c5906125dd565b80601f01602080910402602001604051908101604052809291908181526020018280546105f1906125dd565b801561063e5780601f106106135761010080835404028352916020019161063e565b820191906000526020600020905b81548152906001019060200180831161062157829003601f168201915b505050505090506005816040516020016106599291906126df565b604051602081830303815290604052915050919050565b6006602052806000526040600020600091509050805461068f906125dd565b80601f01602080910402602001604051908101604052809291908181526020018280546106bb906125dd565b80156107085780601f106106dd57610100808354040283529160200191610708565b820191906000526020600020905b8154815290600101906020018083116106eb57829003601f168201915b505050505081565b610718610bf3565b73ffffffffffffffffffffffffffffffffffffffff168573ffffffffffffffffffffffffffffffffffffffff16148061075e575061075d85610758610bf3565b610a34565b5b61079d576040517f08c379a000000000000000000000000000000000000000000000000000000000815260040161079490612775565b60405180910390fd5b6107aa8585858585610bfb565b5050505050565b606081518351146107f7576040517f08c379a00000000000000000000000000000000000000000000000000000000081526004016107ee90612807565b60405180910390fd5b6000835167ffffffffffffffff81111561081457610813611bdd565b5b6040519080825280602002602001820160405280156108425781602001602082028036833780820191505090505b50905060005b84518110156108bf5761088f85828151811061086757610866612827565b5b602002602001015185838151811061088257610881612827565b5b60200260200101516102f4565b8282815181106108a2576108a1612827565b5b602002602001018181525050806108b890612885565b9050610848565b508091505092915050565b600360008154809291906108dd90612885565b91905055506108ff336003548460405180602001604052806000815250610f1d565b806006600060035481526020019081526020016000209080519060200190610928929190611952565b507fe8047fcadaab3376f19f2363d335345521d5af7513529431df53ac389dc063ea336003548460405161095e939291906128ce565b60405180910390a15050565b600460009054906101000a900473ffffffffffffffffffffffffffffffffffffffff1681565b6005805461099d906125dd565b80601f01602080910402602001604051908101604052809291908181526020018280546109c9906125dd565b8015610a165780601f106109eb57610100808354040283529160200191610a16565b820191906000526020600020905b8154815290600101906020018083116109f957829003601f168201915b505050505081565b610a30610a29610bf3565b83836110ce565b5050565b6000600160008473ffffffffffffffffffffffffffffffffffffffff1673ffffffffffffffffffffffffffffffffffffffff16815260200190815260200160002060008373ffffffffffffffffffffffffffffffffffffffff1673ffffffffffffffffffffffffffffffffffffffff16815260200190815260200160002060009054906101000a900460ff16905092915050565b610ad0610bf3565b73ffffffffffffffffffffffffffffffffffffffff168573ffffffffffffffffffffffffffffffffffffffff161480610b165750610b1585610b10610bf3565b610a34565b5b610b55576040517f08c379a0000000000000000000000000000000000000000000000000000000008152600401610b4c90612775565b60405180910390fd5b610b62858585858561123b565b5050505050565b60035481565b60007f01ffc9a7000000000000000000000000000000000000000000000000000000007bffffffffffffffffffffffffffffffffffffffffffffffffffffffff1916827bffffffffffffffffffffffffffffffffffffffffffffffffffffffff1916149050919050565b8060029080519060200190610bef929190611952565b5050565b600033905090565b8151835114610c3f576040517f08c379a0000000000000000000000000000000000000000000000000000000008152600401610c3690612977565b60405180910390fd5b600073ffffffffffffffffffffffffffffffffffffffff168473ffffffffffffffffffffffffffffffffffffffff161415610caf576040517f08c379a0000000000000000000000000000000000000000000000000000000008152600401610ca690612a09565b60405180910390fd5b6000610cb9610bf3565b9050610cc98187878787876114d7565b60005b8451811015610e7a576000858281518110610cea57610ce9612827565b5b602002602001015190506000858381518110610d0957610d08612827565b5b60200260200101519050600080600084815260200190815260200160002060008b73ffffffffffffffffffffffffffffffffffffffff1673ffffffffffffffffffffffffffffffffffffffff16815260200190815260200160002054905081811015610daa576040517f08c379a0000000000000000000000000000000000000000000000000000000008152600401610da190612a9b565b60405180910390fd5b81810360008085815260200190815260200160002060008c73ffffffffffffffffffffffffffffffffffffffff1673ffffffffffffffffffffffffffffffffffffffff168152602001908152602001600020819055508160008085815260200190815260200160002060008b73ffffffffffffffffffffffffffffffffffffffff1673ffffffffffffffffffffffffffffffffffffffff1681526020019081526020016000206000828254610e5f9190612abb565b9250508190555050505080610e7390612885565b9050610ccc565b508473ffffffffffffffffffffffffffffffffffffffff168673ffffffffffffffffffffffffffffffffffffffff168273ffffffffffffffffffffffffffffffffffffffff167f4a39dc06d4c0dbc64b70af90fd698a233a518aa5d07e595d983b8c0526c8f7fb8787604051610ef1929190612b11565b60405180910390a4610f078187878787876114df565b610f158187878787876114e7565b505050505050565b600073ffffffffffffffffffffffffffffffffffffffff168473ffffffffffffffffffffffffffffffffffffffff161415610f8d576040517f08c379a0000000000000000000000000000000000000000000000000000000008152600401610f8490612bba565b60405180910390fd5b6000610f97610bf3565b90506000610fa4856116ce565b90506000610fb1856116ce565b9050610fc2836000898585896114d7565b8460008088815260200190815260200160002060008973ffffffffffffffffffffffffffffffffffffffff1673ffffffffffffffffffffffffffffffffffffffff16815260200190815260200160002060008282546110219190612abb565b925050819055508673ffffffffffffffffffffffffffffffffffffffff16600073ffffffffffffffffffffffffffffffffffffffff168473ffffffffffffffffffffffffffffffffffffffff167fc3d58168c5ae7397731d063d5bbf3d657854427343f4c083240f7aacaa2d0f62898960405161109f929190612bda565b60405180910390a46110b6836000898585896114df565b6110c583600089898989611748565b50505050505050565b8173ffffffffffffffffffffffffffffffffffffffff168373ffffffffffffffffffffffffffffffffffffffff16141561113d576040517f08c379a000000000000000000000000000000000000000000000000000000000815260040161113490612c75565b60405180910390fd5b80600160008573ffffffffffffffffffffffffffffffffffffffff1673ffffffffffffffffffffffffffffffffffffffff16815260200190815260200160002060008473ffffffffffffffffffffffffffffffffffffffff1673ffffffffffffffffffffffffffffffffffffffff16815260200190815260200160002060006101000a81548160ff0219169083151502179055508173ffffffffffffffffffffffffffffffffffffffff168373ffffffffffffffffffffffffffffffffffffffff167f17307eab39ab6107e8899845ad3d59bd9653f200f220920489ca2b5937696c318360405161122e9190611ba7565b60405180910390a3505050565b600073ffffffffffffffffffffffffffffffffffffffff168473ffffffffffffffffffffffffffffffffffffffff1614156112ab576040517f08c379a00000000000000000000000000000000000000000000000000000000081526004016112a290612a09565b60405180910390fd5b60006112b5610bf3565b905060006112c2856116ce565b905060006112cf856116ce565b90506112df8389898585896114d7565b600080600088815260200190815260200160002060008a73ffffffffffffffffffffffffffffffffffffffff1673ffffffffffffffffffffffffffffffffffffffff16815260200190815260200160002054905085811015611376576040517f08c379a000000000000000000000000000000000000000000000000000000000815260040161136d90612a9b565b60405180910390fd5b85810360008089815260200190815260200160002060008b73ffffffffffffffffffffffffffffffffffffffff1673ffffffffffffffffffffffffffffffffffffffff168152602001908152602001600020819055508560008089815260200190815260200160002060008a73ffffffffffffffffffffffffffffffffffffffff1673ffffffffffffffffffffffffffffffffffffffff168152602001908152602001600020600082825461142b9190612abb565b925050819055508773ffffffffffffffffffffffffffffffffffffffff168973ffffffffffffffffffffffffffffffffffffffff168573ffffffffffffffffffffffffffffffffffffffff167fc3d58168c5ae7397731d063d5bbf3d657854427343f4c083240f7aacaa2d0f628a8a6040516114a8929190612bda565b60405180910390a46114be848a8a86868a6114df565b6114cc848a8a8a8a8a611748565b505050505050505050565b505050505050565b505050505050565b6115068473ffffffffffffffffffffffffffffffffffffffff1661192f565b156116c6578373ffffffffffffffffffffffffffffffffffffffff1663bc197c8187878686866040518663ffffffff1660e01b815260040161154c959493929190612cea565b602060405180830381600087803b15801561156657600080fd5b505af192505050801561159757506040513d601f19601f820116820180604052508101906115949190612d67565b60015b61163d576115a3612da1565b806308c379a0141561160057506115b8612dc3565b806115c35750611602565b806040517f08c379a00000000000000000000000000000000000000000000000000000000081526004016115f79190611e06565b60405180910390fd5b505b6040517f08c379a000000000000000000000000000000000000000000000000000000000815260040161163490612ecb565b60405180910390fd5b63bc197c8160e01b7bffffffffffffffffffffffffffffffffffffffffffffffffffffffff1916817bffffffffffffffffffffffffffffffffffffffffffffffffffffffff1916146116c4576040517f08c379a00000000000000000000000000000000000000000000000000000000081526004016116bb90612f5d565b60405180910390fd5b505b505050505050565b60606000600167ffffffffffffffff8111156116ed576116ec611bdd565b5b60405190808252806020026020018201604052801561171b5781602001602082028036833780820191505090505b509050828160008151811061173357611732612827565b5b60200260200101818152505080915050919050565b6117678473ffffffffffffffffffffffffffffffffffffffff1661192f565b15611927578373ffffffffffffffffffffffffffffffffffffffff1663f23a6e6187878686866040518663ffffffff1660e01b81526004016117ad959493929190612f7d565b602060405180830381600087803b1580156117c757600080fd5b505af19250505080156117f857506040513d601f19601f820116820180604052508101906117f59190612d67565b60015b61189e57611804612da1565b806308c379a014156118615750611819612dc3565b806118245750611863565b806040517f08c379a00000000000000000000000000000000000000000000000000000000081526004016118589190611e06565b60405180910390fd5b505b6040517f08c379a000000000000000000000000000000000000000000000000000000000815260040161189590612ecb565b60405180910390fd5b63f23a6e6160e01b7bffffffffffffffffffffffffffffffffffffffffffffffffffffffff1916817bffffffffffffffffffffffffffffffffffffffffffffffffffffffff191614611925576040517f08c379a000000000000000000000000000000000000000000000000000000000815260040161191c90612f5d565b60405180910390fd5b505b505050505050565b6000808273ffffffffffffffffffffffffffffffffffffffff163b119050919050565b82805461195e906125dd565b90600052602060002090601f01602090048101928261198057600085556119c7565b82601f1061199957805160ff19168380011785556119c7565b828001600101855582156119c7579182015b828111156119c65782518255916020019190600101906119ab565b5b5090506119d491906119d8565b5090565b5b808211156119f15760008160009055506001016119d9565b5090565b6000604051905090565b600080fd5b600080fd5b600073ffffffffffffffffffffffffffffffffffffffff82169050919050565b6000611a3482611a09565b9050919050565b611a4481611a29565b8114611a4f57600080fd5b50565b600081359050611a6181611a3b565b92915050565b6000819050919050565b611a7a81611a67565b8114611a8557600080fd5b50565b600081359050611a9781611a71565b92915050565b60008060408385031215611ab457611ab36119ff565b5b6000611ac285828601611a52565b9250506020611ad385828601611a88565b9150509250929050565b611ae681611a67565b82525050565b6000602082019050611b016000830184611add565b92915050565b60007fffffffff0000000000000000000000000000000000000000000000000000000082169050919050565b611b3c81611b07565b8114611b4757600080fd5b50565b600081359050611b5981611b33565b92915050565b600060208284031215611b7557611b746119ff565b5b6000611b8384828501611b4a565b91505092915050565b60008115159050919050565b611ba181611b8c565b82525050565b6000602082019050611bbc6000830184611b98565b92915050565b600080fd5b600080fd5b6000601f19601f8301169050919050565b7f4e487b7100000000000000000000000000000000000000000000000000000000600052604160045260246000fd5b611c1582611bcc565b810181811067ffffffffffffffff82111715611c3457611c33611bdd565b5b80604052505050565b6000611c476119f5565b9050611c538282611c0c565b919050565b600067ffffffffffffffff821115611c7357611c72611bdd565b5b611c7c82611bcc565b9050602081019050919050565b82818337600083830152505050565b6000611cab611ca684611c58565b611c3d565b905082815260208101848484011115611cc757611cc6611bc7565b5b611cd2848285611c89565b509392505050565b600082601f830112611cef57611cee611bc2565b5b8135611cff848260208601611c98565b91505092915050565b600060208284031215611d1e57611d1d6119ff565b5b600082013567ffffffffffffffff811115611d3c57611d3b611a04565b5b611d4884828501611cda565b91505092915050565b600060208284031215611d6757611d666119ff565b5b6000611d7584828501611a88565b91505092915050565b600081519050919050565b600082825260208201905092915050565b60005b83811015611db8578082015181840152602081019050611d9d565b83811115611dc7576000848401525b50505050565b6000611dd882611d7e565b611de28185611d89565b9350611df2818560208601611d9a565b611dfb81611bcc565b840191505092915050565b60006020820190508181036000830152611e208184611dcd565b905092915050565b600067ffffffffffffffff821115611e4357611e42611bdd565b5b602082029050602081019050919050565b600080fd5b6000611e6c611e6784611e28565b611c3d565b90508083825260208201905060208402830185811115611e8f57611e8e611e54565b5b835b81811015611eb85780611ea48882611a88565b845260208401935050602081019050611e91565b5050509392505050565b600082601f830112611ed757611ed6611bc2565b5b8135611ee7848260208601611e59565b91505092915050565b600067ffffffffffffffff821115611f0b57611f0a611bdd565b5b611f1482611bcc565b9050602081019050919050565b6000611f34611f2f84611ef0565b611c3d565b905082815260208101848484011115611f5057611f4f611bc7565b5b611f5b848285611c89565b509392505050565b600082601f830112611f7857611f77611bc2565b5b8135611f88848260208601611f21565b91505092915050565b600080600080600060a08688031215611fad57611fac6119ff565b5b6000611fbb88828901611a52565b9550506020611fcc88828901611a52565b945050604086013567ffffffffffffffff811115611fed57611fec611a04565b5b611ff988828901611ec2565b935050606086013567ffffffffffffffff81111561201a57612019611a04565b5b61202688828901611ec2565b925050608086013567ffffffffffffffff81111561204757612046611a04565b5b61205388828901611f63565b9150509295509295909350565b600067ffffffffffffffff82111561207b5761207a611bdd565b5b602082029050602081019050919050565b600061209f61209a84612060565b611c3d565b905080838252602082019050602084028301858111156120c2576120c1611e54565b5b835b818110156120eb57806120d78882611a52565b8452602084019350506020810190506120c4565b5050509392505050565b600082601f83011261210a57612109611bc2565b5b813561211a84826020860161208c565b91505092915050565b6000806040838503121561213a576121396119ff565b5b600083013567ffffffffffffffff81111561215857612157611a04565b5b612164858286016120f5565b925050602083013567ffffffffffffffff81111561218557612184611a04565b5b61219185828601611ec2565b9150509250929050565b600081519050919050565b600082825260208201905092915050565b6000819050602082019050919050565b6121d081611a67565b82525050565b60006121e283836121c7565b60208301905092915050565b6000602082019050919050565b60006122068261219b565b61221081856121a6565b935061221b836121b7565b8060005b8381101561224c57815161223388826121d6565b975061223e836121ee565b92505060018101905061221f565b5085935050505092915050565b6000602082019050818103600083015261227381846121fb565b905092915050565b60008060408385031215612292576122916119ff565b5b60006122a085828601611a88565b925050602083013567ffffffffffffffff8111156122c1576122c0611a04565b5b6122cd85828601611cda565b9150509250929050565b6122e081611a29565b82525050565b60006020820190506122fb60008301846122d7565b92915050565b61230a81611b8c565b811461231557600080fd5b50565b60008135905061232781612301565b92915050565b60008060408385031215612344576123436119ff565b5b600061235285828601611a52565b925050602061236385828601612318565b9150509250929050565b60008060408385031215612384576123836119ff565b5b600061239285828601611a52565b92505060206123a385828601611a52565b9150509250929050565b600080600080600060a086880312156123c9576123c86119ff565b5b60006123d788828901611a52565b95505060206123e888828901611a52565b94505060406123f988828901611a88565b935050606061240a88828901611a88565b925050608086013567ffffffffffffffff81111561242b5761242a611a04565b5b61243788828901611f63565b9150509295509295909350565b7f455243313135353a2061646472657373207a65726f206973206e6f742061207660008201527f616c6964206f776e657200000000000000000000000000000000000000000000602082015250565b60006124a0602a83611d89565b91506124ab82612444565b604082019050919050565b600060208201905081810360008301526124cf81612493565b9050919050565b7f596f75277265206e6f7420746865206f776e6572000000000000000000000000600082015250565b600061250c601483611d89565b9150612517826124d6565b602082019050919050565b6000602082019050818103600083015261253b816124ff565b9050919050565b7f546f6b656e20494420646f6573206e6f74206578697374000000000000000000600082015250565b6000612578601783611d89565b915061258382612542565b602082019050919050565b600060208201905081810360008301526125a78161256b565b9050919050565b7f4e487b7100000000000000000000000000000000000000000000000000000000600052602260045260246000fd5b600060028204905060018216806125f557607f821691505b60208210811415612609576126086125ae565b5b50919050565b600081905092915050565b60008190508160005260206000209050919050565b6000815461263c816125dd565b612646818661260f565b945060018216600081146126615760018114612672576126a5565b60ff198316865281860193506126a5565b61267b8561261a565b60005b8381101561269d5781548189015260018201915060208101905061267e565b838801955050505b50505092915050565b60006126b982611d7e565b6126c3818561260f565b93506126d3818560208601611d9a565b80840191505092915050565b60006126eb828561262f565b91506126f782846126ae565b91508190509392505050565b7f455243313135353a2063616c6c6572206973206e6f7420746f6b656e206f776e60008201527f6572206f7220617070726f766564000000000000000000000000000000000000602082015250565b600061275f602e83611d89565b915061276a82612703565b604082019050919050565b6000602082019050818103600083015261278e81612752565b9050919050565b7f455243313135353a206163636f756e747320616e6420696473206c656e67746860008201527f206d69736d617463680000000000000000000000000000000000000000000000602082015250565b60006127f1602983611d89565b91506127fc82612795565b604082019050919050565b60006020820190508181036000830152612820816127e4565b9050919050565b7f4e487b7100000000000000000000000000000000000000000000000000000000600052603260045260246000fd5b7f4e487b7100000000000000000000000000000000000000000000000000000000600052601160045260246000fd5b600061289082611a67565b91507fffffffffffffffffffffffffffffffffffffffffffffffffffffffffffffffff8214156128c3576128c2612856565b5b600182019050919050565b60006060820190506128e360008301866122d7565b6128f06020830185611add565b6128fd6040830184611add565b949350505050565b7f455243313135353a2069647320616e6420616d6f756e7473206c656e6774682060008201527f6d69736d61746368000000000000000000000000000000000000000000000000602082015250565b6000612961602883611d89565b915061296c82612905565b604082019050919050565b6000602082019050818103600083015261299081612954565b9050919050565b7f455243313135353a207472616e7366657220746f20746865207a65726f20616460008201527f6472657373000000000000000000000000000000000000000000000000000000602082015250565b60006129f3602583611d89565b91506129fe82612997565b604082019050919050565b60006020820190508181036000830152612a22816129e6565b9050919050565b7f455243313135353a20696e73756666696369656e742062616c616e636520666f60008201527f72207472616e7366657200000000000000000000000000000000000000000000602082015250565b6000612a85602a83611d89565b9150612a9082612a29565b604082019050919050565b60006020820190508181036000830152612ab481612a78565b9050919050565b6000612ac682611a67565b9150612ad183611a67565b9250827fffffffffffffffffffffffffffffffffffffffffffffffffffffffffffffffff03821115612b0657612b05612856565b5b828201905092915050565b60006040820190508181036000830152612b2b81856121fb565b90508181036020830152612b3f81846121fb565b90509392505050565b7f455243313135353a206d696e7420746f20746865207a65726f2061646472657360008201527f7300000000000000000000000000000000000000000000000000000000000000602082015250565b6000612ba4602183611d89565b9150612baf82612b48565b604082019050919050565b60006020820190508181036000830152612bd381612b97565b9050919050565b6000604082019050612bef6000830185611add565b612bfc6020830184611add565b9392505050565b7f455243313135353a2073657474696e6720617070726f76616c2073746174757360008201527f20666f722073656c660000000000000000000000000000000000000000000000602082015250565b6000612c5f602983611d89565b9150612c6a82612c03565b604082019050919050565b60006020820190508181036000830152612c8e81612c52565b9050919050565b600081519050919050565b600082825260208201905092915050565b6000612cbc82612c95565b612cc68185612ca0565b9350612cd6818560208601611d9a565b612cdf81611bcc565b840191505092915050565b600060a082019050612cff60008301886122d7565b612d0c60208301876122d7565b8181036040830152612d1e81866121fb565b90508181036060830152612d3281856121fb565b90508181036080830152612d468184612cb1565b90509695505050505050565b600081519050612d6181611b33565b92915050565b600060208284031215612d7d57612d7c6119ff565b5b6000612d8b84828501612d52565b91505092915050565b60008160e01c9050919050565b600060033d1115612dc05760046000803e612dbd600051612d94565b90505b90565b600060443d1015612dd357612e56565b612ddb6119f5565b60043d036004823e80513d602482011167ffffffffffffffff82111715612e03575050612e56565b808201805167ffffffffffffffff811115612e215750505050612e56565b80602083010160043d038501811115612e3e575050505050612e56565b612e4d82602001850186611c0c565b82955050505050505b90565b7f455243313135353a207472616e7366657220746f206e6f6e2d4552433131353560008201527f526563656976657220696d706c656d656e746572000000000000000000000000602082015250565b6000612eb5603483611d89565b9150612ec082612e59565b604082019050919050565b60006020820190508181036000830152612ee481612ea8565b9050919050565b7f455243313135353a204552433131353552656365697665722072656a6563746560008201527f6420746f6b656e73000000000000000000000000000000000000000000000000602082015250565b6000612f47602883611d89565b9150612f5282612eeb565b604082019050919050565b60006020820190508181036000830152612f7681612f3a565b9050919050565b600060a082019050612f9260008301886122d7565b612f9f60208301876122d7565b612fac6040830186611add565b612fb96060830185611add565b8181036080830152612fcb8184612cb1565b9050969550505050505056fea2646970667358221220486361399aee2329cc9cfb0d48365ce04b664018cabc271cfafcb89742446e4864736f6c6343000809003368747470733a2f2f6576656e74732d62617a6161722e696e667572612d697066732e696f2f697066732f7b69647d",
  "linkReferences": {},
  "deployedLinkReferences": {}
}