{"contracts/EventsBazaar.sol":{"EventsBazaar":{"abi":[{"inputs":[{"internalType":"uint256","name":"_feePercent","type":"uint256"},{"internalType":"string","name":"_baseUrl","type":"string"}],"stateMutability":"nonpayable","type":"constructor"},{"anonymous":false,"inputs":[{"indexed":true,"internalType":"address","name":"account","type":"address"},{"indexed":true,"internalType":"address","name":"operator","type":"address"},{"indexed":false,"internalType":"bool","name":"approved","type":"bool"}],"name":"ApprovalForAll","type":"event"},{"anonymous":false,"inputs":[{"indexed":false,"internalType":"address","name":"from","type":"address"},{"indexed":false,"internalType":"address","name":"to","type":"address"},{"indexed":false,"internalType":"uint256","name":"eventId","type":"uint256"}],"name":"GiftTicket","type":"event"},{"anonymous":false,"inputs":[{"indexed":false,"internalType":"address","name":"sender","type":"address"},{"indexed":false,"internalType":"uint256","name":"ticketId","type":"uint256"},{"indexed":false,"internalType":"uint256","name":"_volume","type":"uint256"}],"name":"MintTickets","type":"event"},{"anonymous":false,"inputs":[{"indexed":false,"internalType":"address","name":"to","type":"address"},{"indexed":true,"internalType":"uint256","name":"eventId","type":"uint256"}],"name":"PurchaseRelist","type":"event"},{"anonymous":false,"inputs":[{"indexed":false,"internalType":"uint256","name":"itemId","type":"uint256"},{"indexed":false,"internalType":"uint256","name":"tokenId","type":"uint256"},{"indexed":false,"internalType":"uint256","name":"price","type":"uint256"},{"indexed":true,"internalType":"address","name":"seller","type":"address"},{"indexed":true,"internalType":"address","name":"buyer","type":"address"}],"name":"PurchasedTicket","type":"event"},{"anonymous":false,"inputs":[{"indexed":false,"internalType":"uint256","name":"itemId","type":"uint256"},{"indexed":false,"internalType":"uint256","name":"price","type":"uint256"},{"indexed":true,"internalType":"address","name":"seller","type":"address"}],"name":"RegisterEvent","type":"event"},{"anonymous":false,"inputs":[{"indexed":false,"internalType":"address","name":"from","type":"address"},{"indexed":true,"internalType":"uint256","name":"eventId","type":"uint256"}],"name":"TicketRelisted","type":"event"},{"anonymous":false,"inputs":[{"indexed":true,"internalType":"address","name":"operator","type":"address"},{"indexed":true,"internalType":"address","name":"from","type":"address"},{"indexed":true,"internalType":"address","name":"to","type":"address"},{"indexed":false,"internalType":"uint256[]","name":"ids","type":"uint256[]"},{"indexed":false,"internalType":"uint256[]","name":"values","type":"uint256[]"}],"name":"TransferBatch","type":"event"},{"anonymous":false,"inputs":[{"indexed":true,"internalType":"address","name":"operator","type":"address"},{"indexed":true,"internalType":"address","name":"from","type":"address"},{"indexed":true,"internalType":"address","name":"to","type":"address"},{"indexed":false,"internalType":"uint256","name":"id","type":"uint256"},{"indexed":false,"internalType":"uint256","name":"value","type":"uint256"}],"name":"TransferSingle","type":"event"},{"anonymous":false,"inputs":[{"indexed":false,"internalType":"string","name":"value","type":"string"},{"indexed":true,"internalType":"uint256","name":"id","type":"uint256"}],"name":"URI","type":"event"},{"inputs":[],"name":"TICKET","outputs":[{"internalType":"uint256","name":"","type":"uint256"}],"stateMutability":"view","type":"function"},{"inputs":[{"internalType":"address","name":"account","type":"address"},{"internalType":"uint256","name":"id","type":"uint256"}],"name":"balanceOf","outputs":[{"internalType":"uint256","name":"","type":"uint256"}],"stateMutability":"view","type":"function"},{"inputs":[{"internalType":"address[]","name":"accounts","type":"address[]"},{"internalType":"uint256[]","name":"ids","type":"uint256[]"}],"name":"balanceOfBatch","outputs":[{"internalType":"uint256[]","name":"","type":"uint256[]"}],"stateMutability":"view","type":"function"},{"inputs":[],"name":"baseUri","outputs":[{"internalType":"string","name":"","type":"string"}],"stateMutability":"view","type":"function"},{"inputs":[],"name":"eventCount","outputs":[{"internalType":"uint256","name":"","type":"uint256"}],"stateMutability":"view","type":"function"},{"inputs":[{"internalType":"uint256","name":"","type":"uint256"}],"name":"events","outputs":[{"internalType":"uint256","name":"eventId","type":"uint256"},{"internalType":"uint256","name":"tokenId","type":"uint256"},{"internalType":"uint256","name":"price","type":"uint256"},{"internalType":"address payable","name":"seller","type":"address"},{"internalType":"uint256","name":"volume","type":"uint256"},{"internalType":"bool","name":"soldOut","type":"bool"}],"stateMutability":"view","type":"function"},{"inputs":[],"name":"feeAccount","outputs":[{"internalType":"address payable","name":"","type":"address"}],"stateMutability":"view","type":"function"},{"inputs":[],"name":"feePercent","outputs":[{"internalType":"uint256","name":"","type":"uint256"}],"stateMutability":"view","type":"function"},{"inputs":[{"internalType":"address","name":"addr","type":"address"},{"internalType":"uint256","name":"_eventId","type":"uint256"}],"name":"getBalanceOfAddress","outputs":[{"internalType":"uint256","name":"","type":"uint256"}],"stateMutability":"view","type":"function"},{"inputs":[{"internalType":"uint256","name":"_eventId","type":"uint256"}],"name":"getBalanceOfTickets","outputs":[{"internalType":"uint256","name":"","type":"uint256"}],"stateMutability":"view","type":"function"},{"inputs":[{"internalType":"uint256","name":"_eventId","type":"uint256"}],"name":"getTotalPrice","outputs":[{"internalType":"uint256","name":"","type":"uint256"}],"stateMutability":"view","type":"function"},{"inputs":[{"internalType":"address","name":"_receiver","type":"address"},{"internalType":"uint256","name":"_eventId","type":"uint256"}],"name":"giftMyTicket","outputs":[],"stateMutability":"nonpayable","type":"function"},{"inputs":[{"internalType":"address","name":"account","type":"address"},{"internalType":"address","name":"operator","type":"address"}],"name":"isApprovedForAll","outputs":[{"internalType":"bool","name":"","type":"bool"}],"stateMutability":"view","type":"function"},{"inputs":[{"internalType":"uint256","name":"_eventId","type":"uint256"}],"name":"listMyPurchasedTicket","outputs":[],"stateMutability":"nonpayable","type":"function"},{"inputs":[{"internalType":"address","name":"","type":"address"},{"internalType":"address","name":"","type":"address"},{"internalType":"uint256[]","name":"","type":"uint256[]"},{"internalType":"uint256[]","name":"","type":"uint256[]"},{"internalType":"bytes","name":"","type":"bytes"}],"name":"onERC1155BatchReceived","outputs":[{"internalType":"bytes4","name":"","type":"bytes4"}],"stateMutability":"nonpayable","type":"function"},{"inputs":[{"internalType":"address","name":"","type":"address"},{"internalType":"address","name":"","type":"address"},{"internalType":"uint256","name":"","type":"uint256"},{"internalType":"uint256","name":"","type":"uint256"},{"internalType":"bytes","name":"","type":"bytes"}],"name":"onERC1155Received","outputs":[{"internalType":"bytes4","name":"","type":"bytes4"}],"stateMutability":"nonpayable","type":"function"},{"inputs":[{"internalType":"uint256","name":"_relistedTicketId","type":"uint256"}],"name":"purchaseRelistedTicket","outputs":[],"stateMutability":"payable","type":"function"},{"inputs":[{"internalType":"uint256","name":"_eventId","type":"uint256"}],"name":"purchaseTicket","outputs":[],"stateMutability":"payable","type":"function"},{"inputs":[{"internalType":"uint256","name":"_price","type":"uint256"},{"internalType":"string","name":"cid","type":"string"},{"internalType":"uint256","name":"_volume","type":"uint256"}],"name":"registerEvent","outputs":[],"stateMutability":"nonpayable","type":"function"},{"inputs":[],"name":"relistedTicketCount","outputs":[{"internalType":"uint256","name":"","type":"uint256"}],"stateMutability":"view","type":"function"},{"inputs":[{"internalType":"uint256","name":"","type":"uint256"}],"name":"relistedTickets","outputs":[{"internalType":"uint256","name":"listId","type":"uint256"},{"internalType":"uint256","name":"eventId","type":"uint256"},{"internalType":"uint256","name":"tokenId","type":"uint256"},{"internalType":"address payable","name":"seller","type":"address"},{"internalType":"bool","name":"sold","type":"bool"}],"stateMutability":"view","type":"function"},{"inputs":[{"internalType":"address","name":"from","type":"address"},{"internalType":"address","name":"to","type":"address"},{"internalType":"uint256[]","name":"ids","type":"uint256[]"},{"internalType":"uint256[]","name":"amounts","type":"uint256[]"},{"internalType":"bytes","name":"data","type":"bytes"}],"name":"safeBatchTransferFrom","outputs":[],"stateMutability":"nonpayable","type":"function"},{"inputs":[{"internalType":"address","name":"from","type":"address"},{"internalType":"address","name":"to","type":"address"},{"internalType":"uint256","name":"id","type":"uint256"},{"internalType":"uint256","name":"amount","type":"uint256"},{"internalType":"bytes","name":"data","type":"bytes"}],"name":"safeTransferFrom","outputs":[],"stateMutability":"nonpayable","type":"function"},{"inputs":[{"internalType":"address","name":"operator","type":"address"},{"internalType":"bool","name":"approved","type":"bool"}],"name":"setApprovalForAll","outputs":[],"stateMutability":"nonpayable","type":"function"},{"inputs":[{"internalType":"bytes4","name":"interfaceId","type":"bytes4"}],"name":"supportsInterface","outputs":[{"internalType":"bool","name":"","type":"bool"}],"stateMutability":"view","type":"function"},{"inputs":[{"internalType":"uint256","name":"","type":"uint256"}],"name":"ticketUri","outputs":[{"internalType":"string","name":"","type":"string"}],"stateMutability":"view","type":"function"},{"inputs":[{"internalType":"uint256","name":"_tokenId","type":"uint256"}],"name":"uri","outputs":[{"internalType":"string","name":"","type":"string"}],"stateMutability":"view","type":"function"}],"evm":{"bytecode":{"linkReferences":{},"object":"60c06040523480156200001157600080fd5b506040516200487638038062004876833981810160405281019062000037919062000353565b8060016000819055506200005181620000af60201b60201c565b503373ffffffffffffffffffffffffffffffffffffffff1660808173ffffffffffffffffffffffffffffffffffffffff16815250508160a081815250508060079080519060200190620000a6929190620000cb565b5050506200041e565b8060039080519060200190620000c7929190620000cb565b5050565b828054620000d990620003e8565b90600052602060002090601f016020900481019282620000fd576000855562000149565b82601f106200011857805160ff191683800117855562000149565b8280016001018555821562000149579182015b82811115620001485782518255916020019190600101906200012b565b5b5090506200015891906200015c565b5090565b5b80821115620001775760008160009055506001016200015d565b5090565b6000604051905090565b600080fd5b600080fd5b6000819050919050565b620001a4816200018f565b8114620001b057600080fd5b50565b600081519050620001c48162000199565b92915050565b600080fd5b600080fd5b6000601f19601f8301169050919050565b7f4e487b7100000000000000000000000000000000000000000000000000000000600052604160045260246000fd5b6200021f82620001d4565b810181811067ffffffffffffffff82111715620002415762000240620001e5565b5b80604052505050565b6000620002566200017b565b905062000264828262000214565b919050565b600067ffffffffffffffff821115620002875762000286620001e5565b5b6200029282620001d4565b9050602081019050919050565b60005b83811015620002bf578082015181840152602081019050620002a2565b83811115620002cf576000848401525b50505050565b6000620002ec620002e68462000269565b6200024a565b9050828152602081018484840111156200030b576200030a620001cf565b5b620003188482856200029f565b509392505050565b600082601f830112620003385762000337620001ca565b5b81516200034a848260208601620002d5565b91505092915050565b600080604083850312156200036d576200036c62000185565b5b60006200037d85828601620001b3565b925050602083015167ffffffffffffffff811115620003a157620003a06200018a565b5b620003af8582860162000320565b9150509250929050565b7f4e487b7100000000000000000000000000000000000000000000000000000000600052602260045260246000fd5b600060028204905060018216806200040157607f821691505b60208210811415620004185762000417620003b9565b5b50919050565b60805160a05161441d6200045960003960008181610cff01526115a4015260008181610cd50152818161122201526116b5015261441d6000f3fe60806040526004361061019b5760003560e01c80638e9fbe32116100ec578063ca7dd3751161008a578063e985e9c511610064578063e985e9c514610624578063f23a6e6114610661578063f242432a1461069e578063ff995bb4146106c75761019b565b8063ca7dd375146105a0578063d591b439146105dd578063dcb664b1146105f95761019b565b8063a22cb465116100c6578063a22cb465146104f5578063b948348c1461051e578063bc197c811461053a578063c8dbfaa8146105775761019b565b80638e9fbe32146104605780639794f8ea146104a15780639abc8320146104ca5761019b565b80632557d0ec116101595780634e1273f4116101335780634e1273f4146103a257806365e17c9d146103df57806371be2e4a1461040a5780637fd6f15c146104355761019b565b80632557d0ec146103135780632eb2c2d61461033c57806340b40010146103655761019b565b8062fdd58e146101a057806301ffc9a7146101dd57806303024acb1461021a5780630b791430146102575780630e89341c146102995780631c216192146102d6575b600080fd5b3480156101ac57600080fd5b506101c760048036038101906101c291906129d0565b6106f2565b6040516101d49190612a1f565b60405180910390f35b3480156101e957600080fd5b5061020460048036038101906101ff9190612a92565b6107bc565b6040516102119190612ada565b60405180910390f35b34801561022657600080fd5b50610241600480360381019061023c9190612af5565b6107ce565b60405161024e9190612a1f565b60405180910390f35b34801561026357600080fd5b5061027e60048036038101906102799190612af5565b6107ee565b60405161029096959493929190612b43565b60405180910390f35b3480156102a557600080fd5b506102c060048036038101906102bb9190612af5565b610857565b6040516102cd9190612c3d565b60405180910390f35b3480156102e257600080fd5b506102fd60048036038101906102f89190612af5565b610975565b60405161030a9190612c3d565b60405180910390f35b34801561031f57600080fd5b5061033a600480360381019061033591906129d0565b610a15565b005b34801561034857600080fd5b50610363600480360381019061035e9190612e5c565b610aef565b005b34801561037157600080fd5b5061038c600480360381019061038791906129d0565b610b90565b6040516103999190612a1f565b60405180910390f35b3480156103ae57600080fd5b506103c960048036038101906103c49190612fee565b610bba565b6040516103d69190613124565b60405180910390f35b3480156103eb57600080fd5b506103f4610cd3565b6040516104019190613146565b60405180910390f35b34801561041657600080fd5b5061041f610cf7565b60405161042c9190612a1f565b60405180910390f35b34801561044157600080fd5b5061044a610cfd565b6040516104579190612a1f565b60405180910390f35b34801561046c57600080fd5b5061048760048036038101906104829190612af5565b610d21565b604051610498959493929190613161565b60405180910390f35b3480156104ad57600080fd5b506104c860048036038101906104c39190613255565b610d84565b005b3480156104d657600080fd5b506104df610fb4565b6040516104ec9190612c3d565b60405180910390f35b34801561050157600080fd5b5061051c600480360381019061051791906132f0565b611042565b005b61053860048036038101906105339190612af5565b611058565b005b34801561054657600080fd5b50610561600480360381019061055c9190612e5c565b6113a0565b60405161056e919061333f565b60405180910390f35b34801561058357600080fd5b5061059e60048036038101906105999190612af5565b6113b5565b005b3480156105ac57600080fd5b506105c760048036038101906105c29190612af5565b61159e565b6040516105d49190612a1f565b60405180910390f35b6105f760048036038101906105f29190612af5565b611601565b005b34801561060557600080fd5b5061060e6117a9565b60405161061b9190612a1f565b60405180910390f35b34801561063057600080fd5b5061064b6004803603810190610646919061335a565b6117af565b6040516106589190612ada565b60405180910390f35b34801561066d57600080fd5b506106886004803603810190610683919061339a565b611843565b604051610695919061333f565b60405180910390f35b3480156106aa57600080fd5b506106c560048036038101906106c0919061339a565b611858565b005b3480156106d357600080fd5b506106dc6118f9565b6040516106e99190612a1f565b60405180910390f35b60008073ffffffffffffffffffffffffffffffffffffffff168373ffffffffffffffffffffffffffffffffffffffff161415610763576040517f08c379a000000000000000000000000000000000000000000000000000000000815260040161075a906134a3565b60405180910390fd5b6001600083815260200190815260200160002060008473ffffffffffffffffffffffffffffffffffffffff1673ffffffffffffffffffffffffffffffffffffffff16815260200190815260200160002054905092915050565b60006107c7826118ff565b9050919050565b600060086000838152602001908152602001600020600401549050919050565b60086020528060005260406000206000915090508060000154908060010154908060020154908060030160009054906101000a900473ffffffffffffffffffffffffffffffffffffffff16908060040154908060050160009054906101000a900460ff16905086565b606060008211801561086b57506006548211155b6108aa576040517f08c379a00000000000000000000000000000000000000000000000000000000081526004016108a19061350f565b60405180910390fd5b6000600a600084815260200190815260200160002080546108ca9061355e565b80601f01602080910402602001604051908101604052809291908181526020018280546108f69061355e565b80156109435780601f1061091857610100808354040283529160200191610943565b820191906000526020600020905b81548152906001019060200180831161092657829003601f168201915b5050505050905060078160405160200161095e929190613660565b604051602081830303815290604052915050919050565b600a60205280600052604060002060009150905080546109949061355e565b80601f01602080910402602001604051908101604052809291908181526020018280546109c09061355e565b8015610a0d5780601f106109e257610100808354040283529160200191610a0d565b820191906000526020600020905b8154815290600101906020018083116109f057829003601f168201915b505050505081565b6000610a37336008600085815260200190815260200160002060010154610b90565b905060008111610a7c576040517f08c379a0000000000000000000000000000000000000000000000000000000008152600401610a73906136f6565b60405180910390fd5b610aaf33846008600086815260200190815260200160002060010154600160405180602001604052806000815250611979565b7f0ac91d2f8d3e949eae287e79b5c8fad5b540e91849a83b006756d38abff26013338484604051610ae293929190613725565b60405180910390a1505050565b610af7611c18565b73ffffffffffffffffffffffffffffffffffffffff168573ffffffffffffffffffffffffffffffffffffffff161480610b3d5750610b3c85610b37611c18565b6117af565b5b610b7c576040517f08c379a0000000000000000000000000000000000000000000000000000000008152600401610b73906137ce565b60405180910390fd5b610b898585858585611c20565b5050505050565b6000610bb28360086000858152602001908152602001600020600101546106f2565b905092915050565b60608151835114610c00576040517f08c379a0000000000000000000000000000000000000000000000000000000008152600401610bf790613860565b60405180910390fd5b6000835167ffffffffffffffff811115610c1d57610c1c612c64565b5b604051908082528060200260200182016040528015610c4b5781602001602082028036833780820191505090505b50905060005b8451811015610cc857610c98858281518110610c7057610c6f613880565b5b6020026020010151858381518110610c8b57610c8a613880565b5b60200260200101516106f2565b828281518110610cab57610caa613880565b5b60200260200101818152505080610cc1906138de565b9050610c51565b508091505092915050565b7f000000000000000000000000000000000000000000000000000000000000000081565b60045481565b7f000000000000000000000000000000000000000000000000000000000000000081565b60096020528060005260406000206000915090508060000154908060010154908060020154908060030160009054906101000a900473ffffffffffffffffffffffffffffffffffffffff16908060030160149054906101000a900460ff16905085565b610d8c611f45565b60008311610dcf576040517f08c379a0000000000000000000000000000000000000000000000000000000008152600401610dc690613973565b60405180910390fd5b60046000815480929190610de2906138de565b919050555060066000815480929190610dfa906138de565b9190505550610e1c336006548360405180602001604052806000815250611f95565b81600a600060065481526020019081526020016000209080519060200190610e45929190612885565b50610e6433306006548460405180602001604052806000815250611858565b6040518060c00160405280600454815260200160065481526020018481526020013373ffffffffffffffffffffffffffffffffffffffff1681526020018281526020016000151581525060086000600454815260200190815260200160002060008201518160000155602082015181600101556040820151816002015560608201518160030160006101000a81548173ffffffffffffffffffffffffffffffffffffffff021916908373ffffffffffffffffffffffffffffffffffffffff1602179055506080820151816004015560a08201518160050160006101000a81548160ff0219169083151502179055509050503373ffffffffffffffffffffffffffffffffffffffff167fa2b90da0fe4028bd7cdf0622c6b33d9dea51ad80d2d7045c11070368f3e9a01860045485604051610f9f929190613993565b60405180910390a2610faf612147565b505050565b60078054610fc19061355e565b80601f0160208091040260200160405190810160405280929190818152602001828054610fed9061355e565b801561103a5780601f1061100f5761010080835404028352916020019161103a565b820191906000526020600020905b81548152906001019060200180831161101d57829003601f168201915b505050505081565b61105461104d611c18565b8383612151565b5050565b611060611f45565b600061106b8261159e565b9050600060086000848152602001908152602001600020905060008311801561109657506004548311155b6110d5576040517f08c379a00000000000000000000000000000000000000000000000000000000081526004016110cc90613a08565b60405180910390fd5b8060050160009054906101000a900460ff1615611127576040517f08c379a000000000000000000000000000000000000000000000000000000000815260040161111e90613a74565b60405180910390fd5b600081600401541161116e576040517f08c379a000000000000000000000000000000000000000000000000000000000815260040161116590613ae0565b60405180910390fd5b813410156111b1576040517f08c379a00000000000000000000000000000000000000000000000000000000081526004016111a890613b72565b60405180910390fd5b8060030160009054906101000a900473ffffffffffffffffffffffffffffffffffffffff1673ffffffffffffffffffffffffffffffffffffffff166108fc82600201549081150290604051600060405180830381858888f1935050505015801561121f573d6000803e3d6000fd5b507f000000000000000000000000000000000000000000000000000000000000000073ffffffffffffffffffffffffffffffffffffffff166108fc82600201548461126a9190613b92565b9081150290604051600060405180830381858888f19350505050158015611295573d6000803e3d6000fd5b5060018160040160008282546112ab9190613b92565b925050819055506000816004015414156112dd5760018160050160006101000a81548160ff0219169083151502179055505b6112fe30338360010154600160405180602001604052806000815250611979565b3373ffffffffffffffffffffffffffffffffffffffff168160030160009054906101000a900473ffffffffffffffffffffffffffffffffffffffff1673ffffffffffffffffffffffffffffffffffffffff167ff41fa837b49a32f097af019fa055fa5fb310e3b08eb66594ebd2ceebbf28e0e6858460010154856002015460405161138b93929190613bc6565b60405180910390a3505061139d612147565b50565b600063bc197c8160e01b905095945050505050565b600060086000838152602001908152602001600020905060006113dc338360010154610b90565b905060008111611421576040517f08c379a0000000000000000000000000000000000000000000000000000000008152600401611418906136f6565b60405180910390fd5b60056000815480929190611434906138de565b919050555061146c33306008600087815260200190815260200160002060010154600160405180602001604052806000815250611858565b6040518060a001604052806005548152602001848152602001600860008681526020019081526020016000206001015481526020013373ffffffffffffffffffffffffffffffffffffffff1681526020016000151581525060096000600554815260200190815260200160002060008201518160000155602082015181600101556040820151816002015560608201518160030160006101000a81548173ffffffffffffffffffffffffffffffffffffffff021916908373ffffffffffffffffffffffffffffffffffffffff16021790555060808201518160030160146101000a81548160ff021916908315150217905550905050827fb315f93b930435bbd7b52e252c5e215a91e5eec27b8028c5638ca28e3c18720b336040516115919190613bfd565b60405180910390a2505050565b600060647f000000000000000000000000000000000000000000000000000000000000000060646115cf9190613c18565b60086000858152602001908152602001600020600201546115f09190613c6e565b6115fa9190613cf7565b9050919050565b60006009600083815260200190815260200160002090506000611627826001015461159e565b90506000600860008460010154815260200190815260200160002090508060030160009054906101000a900473ffffffffffffffffffffffffffffffffffffffff1673ffffffffffffffffffffffffffffffffffffffff166108fc82600201549081150290604051600060405180830381858888f193505050501580156116b2573d6000803e3d6000fd5b507f000000000000000000000000000000000000000000000000000000000000000073ffffffffffffffffffffffffffffffffffffffff166108fc8260020154846116fd9190613b92565b9081150290604051600060405180830381858888f19350505050158015611728573d6000803e3d6000fd5b5060018360030160146101000a81548160ff02191690831515021790555061176730338360010154600160405180602001604052806000815250611979565b82600101547f42db8fad4c2ee254b98f6b5bb0c183564db808afdf72a99510c2577d5e29d1e73360405161179b9190613bfd565b60405180910390a250505050565b60055481565b6000600260008473ffffffffffffffffffffffffffffffffffffffff1673ffffffffffffffffffffffffffffffffffffffff16815260200190815260200160002060008373ffffffffffffffffffffffffffffffffffffffff1673ffffffffffffffffffffffffffffffffffffffff16815260200190815260200160002060009054906101000a900460ff16905092915050565b600063f23a6e6160e01b905095945050505050565b611860611c18565b73ffffffffffffffffffffffffffffffffffffffff168573ffffffffffffffffffffffffffffffffffffffff1614806118a657506118a5856118a0611c18565b6117af565b5b6118e5576040517f08c379a00000000000000000000000000000000000000000000000000000000081526004016118dc906137ce565b60405180910390fd5b6118f28585858585611979565b5050505050565b60065481565b60007f4e2312e0000000000000000000000000000000000000000000000000000000007bffffffffffffffffffffffffffffffffffffffffffffffffffffffff1916827bffffffffffffffffffffffffffffffffffffffffffffffffffffffff191614806119725750611971826122be565b5b9050919050565b600073ffffffffffffffffffffffffffffffffffffffff168473ffffffffffffffffffffffffffffffffffffffff1614156119e9576040517f08c379a00000000000000000000000000000000000000000000000000000000081526004016119e090613d9a565b60405180910390fd5b60006119f3611c18565b90506000611a00856123a0565b90506000611a0d856123a0565b9050611a1d83898985858961241a565b60006001600088815260200190815260200160002060008a73ffffffffffffffffffffffffffffffffffffffff1673ffffffffffffffffffffffffffffffffffffffff16815260200190815260200160002054905085811015611ab5576040517f08c379a0000000000000000000000000000000000000000000000000000000008152600401611aac90613e2c565b60405180910390fd5b8581036001600089815260200190815260200160002060008b73ffffffffffffffffffffffffffffffffffffffff1673ffffffffffffffffffffffffffffffffffffffff16815260200190815260200160002081905550856001600089815260200190815260200160002060008a73ffffffffffffffffffffffffffffffffffffffff1673ffffffffffffffffffffffffffffffffffffffff1681526020019081526020016000206000828254611b6c9190613c18565b925050819055508773ffffffffffffffffffffffffffffffffffffffff168973ffffffffffffffffffffffffffffffffffffffff168573ffffffffffffffffffffffffffffffffffffffff167fc3d58168c5ae7397731d063d5bbf3d657854427343f4c083240f7aacaa2d0f628a8a604051611be9929190613993565b60405180910390a4611bff848a8a86868a612422565b611c0d848a8a8a8a8a61242a565b505050505050505050565b600033905090565b8151835114611c64576040517f08c379a0000000000000000000000000000000000000000000000000000000008152600401611c5b90613ebe565b60405180910390fd5b600073ffffffffffffffffffffffffffffffffffffffff168473ffffffffffffffffffffffffffffffffffffffff161415611cd4576040517f08c379a0000000000000000000000000000000000000000000000000000000008152600401611ccb90613d9a565b60405180910390fd5b6000611cde611c18565b9050611cee81878787878761241a565b60005b8451811015611ea2576000858281518110611d0f57611d0e613880565b5b602002602001015190506000858381518110611d2e57611d2d613880565b5b6020026020010151905060006001600084815260200190815260200160002060008b73ffffffffffffffffffffffffffffffffffffffff1673ffffffffffffffffffffffffffffffffffffffff16815260200190815260200160002054905081811015611dd0576040517f08c379a0000000000000000000000000000000000000000000000000000000008152600401611dc790613e2c565b60405180910390fd5b8181036001600085815260200190815260200160002060008c73ffffffffffffffffffffffffffffffffffffffff1673ffffffffffffffffffffffffffffffffffffffff16815260200190815260200160002081905550816001600085815260200190815260200160002060008b73ffffffffffffffffffffffffffffffffffffffff1673ffffffffffffffffffffffffffffffffffffffff1681526020019081526020016000206000828254611e879190613c18565b9250508190555050505080611e9b906138de565b9050611cf1565b508473ffffffffffffffffffffffffffffffffffffffff168673ffffffffffffffffffffffffffffffffffffffff168273ffffffffffffffffffffffffffffffffffffffff167f4a39dc06d4c0dbc64b70af90fd698a233a518aa5d07e595d983b8c0526c8f7fb8787604051611f19929190613ede565b60405180910390a4611f2f818787878787612422565b611f3d818787878787612611565b505050505050565b60026000541415611f8b576040517f08c379a0000000000000000000000000000000000000000000000000000000008152600401611f8290613f61565b60405180910390fd5b6002600081905550565b600073ffffffffffffffffffffffffffffffffffffffff168473ffffffffffffffffffffffffffffffffffffffff161415612005576040517f08c379a0000000000000000000000000000000000000000000000000000000008152600401611ffc90613ff3565b60405180910390fd5b600061200f611c18565b9050600061201c856123a0565b90506000612029856123a0565b905061203a8360008985858961241a565b846001600088815260200190815260200160002060008973ffffffffffffffffffffffffffffffffffffffff1673ffffffffffffffffffffffffffffffffffffffff168152602001908152602001600020600082825461209a9190613c18565b925050819055508673ffffffffffffffffffffffffffffffffffffffff16600073ffffffffffffffffffffffffffffffffffffffff168473ffffffffffffffffffffffffffffffffffffffff167fc3d58168c5ae7397731d063d5bbf3d657854427343f4c083240f7aacaa2d0f628989604051612118929190613993565b60405180910390a461212f83600089858589612422565b61213e8360008989898961242a565b50505050505050565b6001600081905550565b8173ffffffffffffffffffffffffffffffffffffffff168373ffffffffffffffffffffffffffffffffffffffff1614156121c0576040517f08c379a00000000000000000000000000000000000000000000000000000000081526004016121b790614085565b60405180910390fd5b80600260008573ffffffffffffffffffffffffffffffffffffffff1673ffffffffffffffffffffffffffffffffffffffff16815260200190815260200160002060008473ffffffffffffffffffffffffffffffffffffffff1673ffffffffffffffffffffffffffffffffffffffff16815260200190815260200160002060006101000a81548160ff0219169083151502179055508173ffffffffffffffffffffffffffffffffffffffff168373ffffffffffffffffffffffffffffffffffffffff167f17307eab39ab6107e8899845ad3d59bd9653f200f220920489ca2b5937696c31836040516122b19190612ada565b60405180910390a3505050565b60007fd9b67a26000000000000000000000000000000000000000000000000000000007bffffffffffffffffffffffffffffffffffffffffffffffffffffffff1916827bffffffffffffffffffffffffffffffffffffffffffffffffffffffff1916148061238957507f0e89341c000000000000000000000000000000000000000000000000000000007bffffffffffffffffffffffffffffffffffffffffffffffffffffffff1916827bffffffffffffffffffffffffffffffffffffffffffffffffffffffff1916145b806123995750612398826127f8565b5b9050919050565b60606000600167ffffffffffffffff8111156123bf576123be612c64565b5b6040519080825280602002602001820160405280156123ed5781602001602082028036833780820191505090505b509050828160008151811061240557612404613880565b5b60200260200101818152505080915050919050565b505050505050565b505050505050565b6124498473ffffffffffffffffffffffffffffffffffffffff16612862565b15612609578373ffffffffffffffffffffffffffffffffffffffff1663f23a6e6187878686866040518663ffffffff1660e01b815260040161248f9594939291906140fa565b602060405180830381600087803b1580156124a957600080fd5b505af19250505080156124da57506040513d601f19601f820116820180604052508101906124d79190614169565b60015b612580576124e66141a3565b806308c379a0141561254357506124fb6141c5565b806125065750612545565b806040517f08c379a000000000000000000000000000000000000000000000000000000000815260040161253a9190612c3d565b60405180910390fd5b505b6040517f08c379a0000000000000000000000000000000000000000000000000000000008152600401612577906142cd565b60405180910390fd5b63f23a6e6160e01b7bffffffffffffffffffffffffffffffffffffffffffffffffffffffff1916817bffffffffffffffffffffffffffffffffffffffffffffffffffffffff191614612607576040517f08c379a00000000000000000000000000000000000000000000000000000000081526004016125fe9061435f565b60405180910390fd5b505b505050505050565b6126308473ffffffffffffffffffffffffffffffffffffffff16612862565b156127f0578373ffffffffffffffffffffffffffffffffffffffff1663bc197c8187878686866040518663ffffffff1660e01b815260040161267695949392919061437f565b602060405180830381600087803b15801561269057600080fd5b505af19250505080156126c157506040513d601f19601f820116820180604052508101906126be9190614169565b60015b612767576126cd6141a3565b806308c379a0141561272a57506126e26141c5565b806126ed575061272c565b806040517f08c379a00000000000000000000000000000000000000000000000000000000081526004016127219190612c3d565b60405180910390fd5b505b6040517f08c379a000000000000000000000000000000000000000000000000000000000815260040161275e906142cd565b60405180910390fd5b63bc197c8160e01b7bffffffffffffffffffffffffffffffffffffffffffffffffffffffff1916817bffffffffffffffffffffffffffffffffffffffffffffffffffffffff1916146127ee576040517f08c379a00000000000000000000000000000000000000000000000000000000081526004016127e59061435f565b60405180910390fd5b505b505050505050565b60007f01ffc9a7000000000000000000000000000000000000000000000000000000007bffffffffffffffffffffffffffffffffffffffffffffffffffffffff1916827bffffffffffffffffffffffffffffffffffffffffffffffffffffffff1916149050919050565b6000808273ffffffffffffffffffffffffffffffffffffffff163b119050919050565b8280546128919061355e565b90600052602060002090601f0160209004810192826128b357600085556128fa565b82601f106128cc57805160ff19168380011785556128fa565b828001600101855582156128fa579182015b828111156128f95782518255916020019190600101906128de565b5b509050612907919061290b565b5090565b5b8082111561292457600081600090555060010161290c565b5090565b6000604051905090565b600080fd5b600080fd5b600073ffffffffffffffffffffffffffffffffffffffff82169050919050565b60006129678261293c565b9050919050565b6129778161295c565b811461298257600080fd5b50565b6000813590506129948161296e565b92915050565b6000819050919050565b6129ad8161299a565b81146129b857600080fd5b50565b6000813590506129ca816129a4565b92915050565b600080604083850312156129e7576129e6612932565b5b60006129f585828601612985565b9250506020612a06858286016129bb565b9150509250929050565b612a198161299a565b82525050565b6000602082019050612a346000830184612a10565b92915050565b60007fffffffff0000000000000000000000000000000000000000000000000000000082169050919050565b612a6f81612a3a565b8114612a7a57600080fd5b50565b600081359050612a8c81612a66565b92915050565b600060208284031215612aa857612aa7612932565b5b6000612ab684828501612a7d565b91505092915050565b60008115159050919050565b612ad481612abf565b82525050565b6000602082019050612aef6000830184612acb565b92915050565b600060208284031215612b0b57612b0a612932565b5b6000612b19848285016129bb565b91505092915050565b6000612b2d8261293c565b9050919050565b612b3d81612b22565b82525050565b600060c082019050612b586000830189612a10565b612b656020830188612a10565b612b726040830187612a10565b612b7f6060830186612b34565b612b8c6080830185612a10565b612b9960a0830184612acb565b979650505050505050565b600081519050919050565b600082825260208201905092915050565b60005b83811015612bde578082015181840152602081019050612bc3565b83811115612bed576000848401525b50505050565b6000601f19601f8301169050919050565b6000612c0f82612ba4565b612c198185612baf565b9350612c29818560208601612bc0565b612c3281612bf3565b840191505092915050565b60006020820190508181036000830152612c578184612c04565b905092915050565b600080fd5b7f4e487b7100000000000000000000000000000000000000000000000000000000600052604160045260246000fd5b612c9c82612bf3565b810181811067ffffffffffffffff82111715612cbb57612cba612c64565b5b80604052505050565b6000612cce612928565b9050612cda8282612c93565b919050565b600067ffffffffffffffff821115612cfa57612cf9612c64565b5b602082029050602081019050919050565b600080fd5b6000612d23612d1e84612cdf565b612cc4565b90508083825260208201905060208402830185811115612d4657612d45612d0b565b5b835b81811015612d6f5780612d5b88826129bb565b845260208401935050602081019050612d48565b5050509392505050565b600082601f830112612d8e57612d8d612c5f565b5b8135612d9e848260208601612d10565b91505092915050565b600080fd5b600067ffffffffffffffff821115612dc757612dc6612c64565b5b612dd082612bf3565b9050602081019050919050565b82818337600083830152505050565b6000612dff612dfa84612dac565b612cc4565b905082815260208101848484011115612e1b57612e1a612da7565b5b612e26848285612ddd565b509392505050565b600082601f830112612e4357612e42612c5f565b5b8135612e53848260208601612dec565b91505092915050565b600080600080600060a08688031215612e7857612e77612932565b5b6000612e8688828901612985565b9550506020612e9788828901612985565b945050604086013567ffffffffffffffff811115612eb857612eb7612937565b5b612ec488828901612d79565b935050606086013567ffffffffffffffff811115612ee557612ee4612937565b5b612ef188828901612d79565b925050608086013567ffffffffffffffff811115612f1257612f11612937565b5b612f1e88828901612e2e565b9150509295509295909350565b600067ffffffffffffffff821115612f4657612f45612c64565b5b602082029050602081019050919050565b6000612f6a612f6584612f2b565b612cc4565b90508083825260208201905060208402830185811115612f8d57612f8c612d0b565b5b835b81811015612fb65780612fa28882612985565b845260208401935050602081019050612f8f565b5050509392505050565b600082601f830112612fd557612fd4612c5f565b5b8135612fe5848260208601612f57565b91505092915050565b6000806040838503121561300557613004612932565b5b600083013567ffffffffffffffff81111561302357613022612937565b5b61302f85828601612fc0565b925050602083013567ffffffffffffffff8111156130505761304f612937565b5b61305c85828601612d79565b9150509250929050565b600081519050919050565b600082825260208201905092915050565b6000819050602082019050919050565b61309b8161299a565b82525050565b60006130ad8383613092565b60208301905092915050565b6000602082019050919050565b60006130d182613066565b6130db8185613071565b93506130e683613082565b8060005b838110156131175781516130fe88826130a1565b9750613109836130b9565b9250506001810190506130ea565b5085935050505092915050565b6000602082019050818103600083015261313e81846130c6565b905092915050565b600060208201905061315b6000830184612b34565b92915050565b600060a0820190506131766000830188612a10565b6131836020830187612a10565b6131906040830186612a10565b61319d6060830185612b34565b6131aa6080830184612acb565b9695505050505050565b600067ffffffffffffffff8211156131cf576131ce612c64565b5b6131d882612bf3565b9050602081019050919050565b60006131f86131f3846131b4565b612cc4565b90508281526020810184848401111561321457613213612da7565b5b61321f848285612ddd565b509392505050565b600082601f83011261323c5761323b612c5f565b5b813561324c8482602086016131e5565b91505092915050565b60008060006060848603121561326e5761326d612932565b5b600061327c868287016129bb565b935050602084013567ffffffffffffffff81111561329d5761329c612937565b5b6132a986828701613227565b92505060406132ba868287016129bb565b9150509250925092565b6132cd81612abf565b81146132d857600080fd5b50565b6000813590506132ea816132c4565b92915050565b6000806040838503121561330757613306612932565b5b600061331585828601612985565b9250506020613326858286016132db565b9150509250929050565b61333981612a3a565b82525050565b60006020820190506133546000830184613330565b92915050565b6000806040838503121561337157613370612932565b5b600061337f85828601612985565b925050602061339085828601612985565b9150509250929050565b600080600080600060a086880312156133b6576133b5612932565b5b60006133c488828901612985565b95505060206133d588828901612985565b94505060406133e6888289016129bb565b93505060606133f7888289016129bb565b925050608086013567ffffffffffffffff81111561341857613417612937565b5b61342488828901612e2e565b9150509295509295909350565b7f455243313135353a2061646472657373207a65726f206973206e6f742061207660008201527f616c6964206f776e657200000000000000000000000000000000000000000000602082015250565b600061348d602a83612baf565b915061349882613431565b604082019050919050565b600060208201905081810360008301526134bc81613480565b9050919050565b7f546f6b656e20494420646f6573206e6f74206578697374000000000000000000600082015250565b60006134f9601783612baf565b9150613504826134c3565b602082019050919050565b60006020820190508181036000830152613528816134ec565b9050919050565b7f4e487b7100000000000000000000000000000000000000000000000000000000600052602260045260246000fd5b6000600282049050600182168061357657607f821691505b6020821081141561358a5761358961352f565b5b50919050565b600081905092915050565b60008190508160005260206000209050919050565b600081546135bd8161355e565b6135c78186613590565b945060018216600081146135e257600181146135f357613626565b60ff19831686528186019350613626565b6135fc8561359b565b60005b8381101561361e578154818901526001820191506020810190506135ff565b838801955050505b50505092915050565b600061363a82612ba4565b6136448185613590565b9350613654818560208601612bc0565b80840191505092915050565b600061366c82856135b0565b9150613678828461362f565b91508190509392505050565b7f596f752068617665206e6f207469636b657420666f722074686973206576656e60008201527f7400000000000000000000000000000000000000000000000000000000000000602082015250565b60006136e0602183612baf565b91506136eb82613684565b604082019050919050565b6000602082019050818103600083015261370f816136d3565b9050919050565b61371f8161295c565b82525050565b600060608201905061373a6000830186613716565b6137476020830185613716565b6137546040830184612a10565b949350505050565b7f455243313135353a2063616c6c6572206973206e6f7420746f6b656e206f776e60008201527f6572206f7220617070726f766564000000000000000000000000000000000000602082015250565b60006137b8602e83612baf565b91506137c38261375c565b604082019050919050565b600060208201905081810360008301526137e7816137ab565b9050919050565b7f455243313135353a206163636f756e747320616e6420696473206c656e67746860008201527f206d69736d617463680000000000000000000000000000000000000000000000602082015250565b600061384a602983612baf565b9150613855826137ee565b604082019050919050565b600060208201905081810360008301526138798161383d565b9050919050565b7f4e487b7100000000000000000000000000000000000000000000000000000000600052603260045260246000fd5b7f4e487b7100000000000000000000000000000000000000000000000000000000600052601160045260246000fd5b60006138e98261299a565b91507fffffffffffffffffffffffffffffffffffffffffffffffffffffffffffffffff82141561391c5761391b6138af565b5b600182019050919050565b7f5072696365206d7573742062652067726561746572207468616e207a65726f00600082015250565b600061395d601f83612baf565b915061396882613927565b602082019050919050565b6000602082019050818103600083015261398c81613950565b9050919050565b60006040820190506139a86000830185612a10565b6139b56020830184612a10565b9392505050565b7f4576656e7420496420646f65736e277420657869737400000000000000000000600082015250565b60006139f2601683612baf565b91506139fd826139bc565b602082019050919050565b60006020820190508181036000830152613a21816139e5565b9050919050565b7f5469636b65747320616c726561647920736f6c64206f75742100000000000000600082015250565b6000613a5e601983612baf565b9150613a6982613a28565b602082019050919050565b60006020820190508181036000830152613a8d81613a51565b9050919050565b7f5469636b65747320736f6c64206f757421000000000000000000000000000000600082015250565b6000613aca601183612baf565b9150613ad582613a94565b602082019050919050565b60006020820190508181036000830152613af981613abd565b9050919050565b7f4e6f7420656e6f756768206d6174696320746f20636f766572205469636b657460008201527f20707269636520616e64206d61726b6574206665650000000000000000000000602082015250565b6000613b5c603583612baf565b9150613b6782613b00565b604082019050919050565b60006020820190508181036000830152613b8b81613b4f565b9050919050565b6000613b9d8261299a565b9150613ba88361299a565b925082821015613bbb57613bba6138af565b5b828203905092915050565b6000606082019050613bdb6000830186612a10565b613be86020830185612a10565b613bf56040830184612a10565b949350505050565b6000602082019050613c126000830184613716565b92915050565b6000613c238261299a565b9150613c2e8361299a565b9250827fffffffffffffffffffffffffffffffffffffffffffffffffffffffffffffffff03821115613c6357613c626138af565b5b828201905092915050565b6000613c798261299a565b9150613c848361299a565b9250817fffffffffffffffffffffffffffffffffffffffffffffffffffffffffffffffff0483118215151615613cbd57613cbc6138af565b5b828202905092915050565b7f4e487b7100000000000000000000000000000000000000000000000000000000600052601260045260246000fd5b6000613d028261299a565b9150613d0d8361299a565b925082613d1d57613d1c613cc8565b5b828204905092915050565b7f455243313135353a207472616e7366657220746f20746865207a65726f20616460008201527f6472657373000000000000000000000000000000000000000000000000000000602082015250565b6000613d84602583612baf565b9150613d8f82613d28565b604082019050919050565b60006020820190508181036000830152613db381613d77565b9050919050565b7f455243313135353a20696e73756666696369656e742062616c616e636520666f60008201527f72207472616e7366657200000000000000000000000000000000000000000000602082015250565b6000613e16602a83612baf565b9150613e2182613dba565b604082019050919050565b60006020820190508181036000830152613e4581613e09565b9050919050565b7f455243313135353a2069647320616e6420616d6f756e7473206c656e6774682060008201527f6d69736d61746368000000000000000000000000000000000000000000000000602082015250565b6000613ea8602883612baf565b9150613eb382613e4c565b604082019050919050565b60006020820190508181036000830152613ed781613e9b565b9050919050565b60006040820190508181036000830152613ef881856130c6565b90508181036020830152613f0c81846130c6565b90509392505050565b7f5265656e7472616e637947756172643a207265656e7472616e742063616c6c00600082015250565b6000613f4b601f83612baf565b9150613f5682613f15565b602082019050919050565b60006020820190508181036000830152613f7a81613f3e565b9050919050565b7f455243313135353a206d696e7420746f20746865207a65726f2061646472657360008201527f7300000000000000000000000000000000000000000000000000000000000000602082015250565b6000613fdd602183612baf565b9150613fe882613f81565b604082019050919050565b6000602082019050818103600083015261400c81613fd0565b9050919050565b7f455243313135353a2073657474696e6720617070726f76616c2073746174757360008201527f20666f722073656c660000000000000000000000000000000000000000000000602082015250565b600061406f602983612baf565b915061407a82614013565b604082019050919050565b6000602082019050818103600083015261409e81614062565b9050919050565b600081519050919050565b600082825260208201905092915050565b60006140cc826140a5565b6140d681856140b0565b93506140e6818560208601612bc0565b6140ef81612bf3565b840191505092915050565b600060a08201905061410f6000830188613716565b61411c6020830187613716565b6141296040830186612a10565b6141366060830185612a10565b818103608083015261414881846140c1565b90509695505050505050565b60008151905061416381612a66565b92915050565b60006020828403121561417f5761417e612932565b5b600061418d84828501614154565b91505092915050565b60008160e01c9050919050565b600060033d11156141c25760046000803e6141bf600051614196565b90505b90565b600060443d10156141d557614258565b6141dd612928565b60043d036004823e80513d602482011167ffffffffffffffff82111715614205575050614258565b808201805167ffffffffffffffff8111156142235750505050614258565b80602083010160043d038501811115614240575050505050614258565b61424f82602001850186612c93565b82955050505050505b90565b7f455243313135353a207472616e7366657220746f206e6f6e2d4552433131353560008201527f526563656976657220696d706c656d656e746572000000000000000000000000602082015250565b60006142b7603483612baf565b91506142c28261425b565b604082019050919050565b600060208201905081810360008301526142e6816142aa565b9050919050565b7f455243313135353a204552433131353552656365697665722072656a6563746560008201527f6420746f6b656e73000000000000000000000000000000000000000000000000602082015250565b6000614349602883612baf565b9150614354826142ed565b604082019050919050565b600060208201905081810360008301526143788161433c565b9050919050565b600060a0820190506143946000830188613716565b6143a16020830187613716565b81810360408301526143b381866130c6565b905081810360608301526143c781856130c6565b905081810360808301526143db81846140c1565b9050969550505050505056fea2646970667358221220ec7ac50e7cb9f84dfee85eb1b93134f202c40dd9ca652ccbbcfa16835295369f64736f6c63430008090033","opcodes":"PUSH1 0xC0 PUSH1 0x40 MSTORE CALLVALUE DUP1 ISZERO PUSH3 0x11 JUMPI PUSH1 0x0 DUP1 REVERT JUMPDEST POP PUSH1 0x40 MLOAD PUSH3 0x4876 CODESIZE SUB DUP1 PUSH3 0x4876 DUP4 CODECOPY DUP2 DUP2 ADD PUSH1 0x40 MSTORE DUP2 ADD SWAP1 PUSH3 0x37 SWAP2 SWAP1 PUSH3 0x353 JUMP JUMPDEST DUP1 PUSH1 0x1 PUSH1 0x0 DUP2 SWAP1 SSTORE POP PUSH3 0x51 DUP2 PUSH3 0xAF PUSH1 0x20 SHL PUSH1 0x20 SHR JUMP JUMPDEST POP CALLER PUSH20 0xFFFFFFFFFFFFFFFFFFFFFFFFFFFFFFFFFFFFFFFF AND PUSH1 0x80 DUP2 PUSH20 0xFFFFFFFFFFFFFFFFFFFFFFFFFFFFFFFFFFFFFFFF AND DUP2 MSTORE POP POP DUP2 PUSH1 0xA0 DUP2 DUP2 MSTORE POP POP DUP1 PUSH1 0x7 SWAP1 DUP1 MLOAD SWAP1 PUSH1 0x20 ADD SWAP1 PUSH3 0xA6 SWAP3 SWAP2 SWAP1 PUSH3 0xCB JUMP JUMPDEST POP POP POP PUSH3 0x41E JUMP JUMPDEST DUP1 PUSH1 0x3 SWAP1 DUP1 MLOAD SWAP1 PUSH1 0x20 ADD SWAP1 PUSH3 0xC7 SWAP3 SWAP2 SWAP1 PUSH3 0xCB JUMP JUMPDEST POP POP JUMP JUMPDEST DUP3 DUP1 SLOAD PUSH3 0xD9 SWAP1 PUSH3 0x3E8 JUMP JUMPDEST SWAP1 PUSH1 0x0 MSTORE PUSH1 0x20 PUSH1 0x0 KECCAK256 SWAP1 PUSH1 0x1F ADD PUSH1 0x20 SWAP1 DIV DUP2 ADD SWAP3 DUP3 PUSH3 0xFD JUMPI PUSH1 0x0 DUP6 SSTORE PUSH3 0x149 JUMP JUMPDEST DUP3 PUSH1 0x1F LT PUSH3 0x118 JUMPI DUP1 MLOAD PUSH1 0xFF NOT AND DUP4 DUP1 ADD OR DUP6 SSTORE PUSH3 0x149 JUMP JUMPDEST DUP3 DUP1 ADD PUSH1 0x1 ADD DUP6 SSTORE DUP3 ISZERO PUSH3 0x149 JUMPI SWAP2 DUP3 ADD JUMPDEST DUP3 DUP2 GT ISZERO PUSH3 0x148 JUMPI DUP3 MLOAD DUP3 SSTORE SWAP2 PUSH1 0x20 ADD SWAP2 SWAP1 PUSH1 0x1 ADD SWAP1 PUSH3 0x12B JUMP JUMPDEST JUMPDEST POP SWAP1 POP PUSH3 0x158 SWAP2 SWAP1 PUSH3 0x15C JUMP JUMPDEST POP SWAP1 JUMP JUMPDEST JUMPDEST DUP1 DUP3 GT ISZERO PUSH3 0x177 JUMPI PUSH1 0x0 DUP2 PUSH1 0x0 SWAP1 SSTORE POP PUSH1 0x1 ADD PUSH3 0x15D JUMP JUMPDEST POP SWAP1 JUMP JUMPDEST PUSH1 0x0 PUSH1 0x40 MLOAD SWAP1 POP SWAP1 JUMP JUMPDEST PUSH1 0x0 DUP1 REVERT JUMPDEST PUSH1 0x0 DUP1 REVERT JUMPDEST PUSH1 0x0 DUP2 SWAP1 POP SWAP2 SWAP1 POP JUMP JUMPDEST PUSH3 0x1A4 DUP2 PUSH3 0x18F JUMP JUMPDEST DUP2 EQ PUSH3 0x1B0 JUMPI PUSH1 0x0 DUP1 REVERT JUMPDEST POP JUMP JUMPDEST PUSH1 0x0 DUP2 MLOAD SWAP1 POP PUSH3 0x1C4 DUP2 PUSH3 0x199 JUMP JUMPDEST SWAP3 SWAP2 POP POP JUMP JUMPDEST PUSH1 0x0 DUP1 REVERT JUMPDEST PUSH1 0x0 DUP1 REVERT JUMPDEST PUSH1 0x0 PUSH1 0x1F NOT PUSH1 0x1F DUP4 ADD AND SWAP1 POP SWAP2 SWAP1 POP JUMP JUMPDEST PUSH32 0x4E487B7100000000000000000000000000000000000000000000000000000000 PUSH1 0x0 MSTORE PUSH1 0x41 PUSH1 0x4 MSTORE PUSH1 0x24 PUSH1 0x0 REVERT JUMPDEST PUSH3 0x21F DUP3 PUSH3 0x1D4 JUMP JUMPDEST DUP2 ADD DUP2 DUP2 LT PUSH8 0xFFFFFFFFFFFFFFFF DUP3 GT OR ISZERO PUSH3 0x241 JUMPI PUSH3 0x240 PUSH3 0x1E5 JUMP JUMPDEST JUMPDEST DUP1 PUSH1 0x40 MSTORE POP POP POP JUMP JUMPDEST PUSH1 0x0 PUSH3 0x256 PUSH3 0x17B JUMP JUMPDEST SWAP1 POP PUSH3 0x264 DUP3 DUP3 PUSH3 0x214 JUMP JUMPDEST SWAP2 SWAP1 POP JUMP JUMPDEST PUSH1 0x0 PUSH8 0xFFFFFFFFFFFFFFFF DUP3 GT ISZERO PUSH3 0x287 JUMPI PUSH3 0x286 PUSH3 0x1E5 JUMP JUMPDEST JUMPDEST PUSH3 0x292 DUP3 PUSH3 0x1D4 JUMP JUMPDEST SWAP1 POP PUSH1 0x20 DUP2 ADD SWAP1 POP SWAP2 SWAP1 POP JUMP JUMPDEST PUSH1 0x0 JUMPDEST DUP4 DUP2 LT ISZERO PUSH3 0x2BF JUMPI DUP1 DUP3 ADD MLOAD DUP2 DUP5 ADD MSTORE PUSH1 0x20 DUP2 ADD SWAP1 POP PUSH3 0x2A2 JUMP JUMPDEST DUP4 DUP2 GT ISZERO PUSH3 0x2CF JUMPI PUSH1 0x0 DUP5 DUP5 ADD MSTORE JUMPDEST POP POP POP POP JUMP JUMPDEST PUSH1 0x0 PUSH3 0x2EC PUSH3 0x2E6 DUP5 PUSH3 0x269 JUMP JUMPDEST PUSH3 0x24A JUMP JUMPDEST SWAP1 POP DUP3 DUP2 MSTORE PUSH1 0x20 DUP2 ADD DUP5 DUP5 DUP5 ADD GT ISZERO PUSH3 0x30B JUMPI PUSH3 0x30A PUSH3 0x1CF JUMP JUMPDEST JUMPDEST PUSH3 0x318 DUP5 DUP3 DUP6 PUSH3 0x29F JUMP JUMPDEST POP SWAP4 SWAP3 POP POP POP JUMP JUMPDEST PUSH1 0x0 DUP3 PUSH1 0x1F DUP4 ADD SLT PUSH3 0x338 JUMPI PUSH3 0x337 PUSH3 0x1CA JUMP JUMPDEST JUMPDEST DUP2 MLOAD PUSH3 0x34A DUP5 DUP3 PUSH1 0x20 DUP7 ADD PUSH3 0x2D5 JUMP JUMPDEST SWAP2 POP POP SWAP3 SWAP2 POP POP JUMP JUMPDEST PUSH1 0x0 DUP1 PUSH1 0x40 DUP4 DUP6 SUB SLT ISZERO PUSH3 0x36D JUMPI PUSH3 0x36C PUSH3 0x185 JUMP JUMPDEST JUMPDEST PUSH1 0x0 PUSH3 0x37D DUP6 DUP3 DUP7 ADD PUSH3 0x1B3 JUMP JUMPDEST SWAP3 POP POP PUSH1 0x20 DUP4 ADD MLOAD PUSH8 0xFFFFFFFFFFFFFFFF DUP2 GT ISZERO PUSH3 0x3A1 JUMPI PUSH3 0x3A0 PUSH3 0x18A JUMP JUMPDEST JUMPDEST PUSH3 0x3AF DUP6 DUP3 DUP7 ADD PUSH3 0x320 JUMP JUMPDEST SWAP2 POP POP SWAP3 POP SWAP3 SWAP1 POP JUMP JUMPDEST PUSH32 0x4E487B7100000000000000000000000000000000000000000000000000000000 PUSH1 0x0 MSTORE PUSH1 0x22 PUSH1 0x4 MSTORE PUSH1 0x24 PUSH1 0x0 REVERT JUMPDEST PUSH1 0x0 PUSH1 0x2 DUP3 DIV SWAP1 POP PUSH1 0x1 DUP3 AND DUP1 PUSH3 0x401 JUMPI PUSH1 0x7F DUP3 AND SWAP2 POP JUMPDEST PUSH1 0x20 DUP3 LT DUP2 EQ ISZERO PUSH3 0x418 JUMPI PUSH3 0x417 PUSH3 0x3B9 JUMP JUMPDEST JUMPDEST POP SWAP2 SWAP1 POP JUMP JUMPDEST PUSH1 0x80 MLOAD PUSH1 0xA0 MLOAD PUSH2 0x441D PUSH3 0x459 PUSH1 0x0 CODECOPY PUSH1 0x0 DUP2 DUP2 PUSH2 0xCFF ADD MSTORE PUSH2 0x15A4 ADD MSTORE PUSH1 0x0 DUP2 DUP2 PUSH2 0xCD5 ADD MSTORE DUP2 DUP2 PUSH2 0x1222 ADD MSTORE PUSH2 0x16B5 ADD MSTORE PUSH2 0x441D PUSH1 0x0 RETURN INVALID PUSH1 0x80 PUSH1 0x40 MSTORE PUSH1 0x4 CALLDATASIZE LT PUSH2 0x19B JUMPI PUSH1 0x0 CALLDATALOAD PUSH1 0xE0 SHR DUP1 PUSH4 0x8E9FBE32 GT PUSH2 0xEC JUMPI DUP1 PUSH4 0xCA7DD375 GT PUSH2 0x8A JUMPI DUP1 PUSH4 0xE985E9C5 GT PUSH2 0x64 JUMPI DUP1 PUSH4 0xE985E9C5 EQ PUSH2 0x624 JUMPI DUP1 PUSH4 0xF23A6E61 EQ PUSH2 0x661 JUMPI DUP1 PUSH4 0xF242432A EQ PUSH2 0x69E JUMPI DUP1 PUSH4 0xFF995BB4 EQ PUSH2 0x6C7 JUMPI PUSH2 0x19B JUMP JUMPDEST DUP1 PUSH4 0xCA7DD375 EQ PUSH2 0x5A0 JUMPI DUP1 PUSH4 0xD591B439 EQ PUSH2 0x5DD JUMPI DUP1 PUSH4 0xDCB664B1 EQ PUSH2 0x5F9 JUMPI PUSH2 0x19B JUMP JUMPDEST DUP1 PUSH4 0xA22CB465 GT PUSH2 0xC6 JUMPI DUP1 PUSH4 0xA22CB465 EQ PUSH2 0x4F5 JUMPI DUP1 PUSH4 0xB948348C EQ PUSH2 0x51E JUMPI DUP1 PUSH4 0xBC197C81 EQ PUSH2 0x53A JUMPI DUP1 PUSH4 0xC8DBFAA8 EQ PUSH2 0x577 JUMPI PUSH2 0x19B JUMP JUMPDEST DUP1 PUSH4 0x8E9FBE32 EQ PUSH2 0x460 JUMPI DUP1 PUSH4 0x9794F8EA EQ PUSH2 0x4A1 JUMPI DUP1 PUSH4 0x9ABC8320 EQ PUSH2 0x4CA JUMPI PUSH2 0x19B JUMP JUMPDEST DUP1 PUSH4 0x2557D0EC GT PUSH2 0x159 JUMPI DUP1 PUSH4 0x4E1273F4 GT PUSH2 0x133 JUMPI DUP1 PUSH4 0x4E1273F4 EQ PUSH2 0x3A2 JUMPI DUP1 PUSH4 0x65E17C9D EQ PUSH2 0x3DF JUMPI DUP1 PUSH4 0x71BE2E4A EQ PUSH2 0x40A JUMPI DUP1 PUSH4 0x7FD6F15C EQ PUSH2 0x435 JUMPI PUSH2 0x19B JUMP JUMPDEST DUP1 PUSH4 0x2557D0EC EQ PUSH2 0x313 JUMPI DUP1 PUSH4 0x2EB2C2D6 EQ PUSH2 0x33C JUMPI DUP1 PUSH4 0x40B40010 EQ PUSH2 0x365 JUMPI PUSH2 0x19B JUMP JUMPDEST DUP1 PUSH3 0xFDD58E EQ PUSH2 0x1A0 JUMPI DUP1 PUSH4 0x1FFC9A7 EQ PUSH2 0x1DD JUMPI DUP1 PUSH4 0x3024ACB EQ PUSH2 0x21A JUMPI DUP1 PUSH4 0xB791430 EQ PUSH2 0x257 JUMPI DUP1 PUSH4 0xE89341C EQ PUSH2 0x299 JUMPI DUP1 PUSH4 0x1C216192 EQ PUSH2 0x2D6 JUMPI JUMPDEST PUSH1 0x0 DUP1 REVERT JUMPDEST CALLVALUE DUP1 ISZERO PUSH2 0x1AC JUMPI PUSH1 0x0 DUP1 REVERT JUMPDEST POP PUSH2 0x1C7 PUSH1 0x4 DUP1 CALLDATASIZE SUB DUP2 ADD SWAP1 PUSH2 0x1C2 SWAP2 SWAP1 PUSH2 0x29D0 JUMP JUMPDEST PUSH2 0x6F2 JUMP JUMPDEST PUSH1 0x40 MLOAD PUSH2 0x1D4 SWAP2 SWAP1 PUSH2 0x2A1F JUMP JUMPDEST PUSH1 0x40 MLOAD DUP1 SWAP2 SUB SWAP1 RETURN JUMPDEST CALLVALUE DUP1 ISZERO PUSH2 0x1E9 JUMPI PUSH1 0x0 DUP1 REVERT JUMPDEST POP PUSH2 0x204 PUSH1 0x4 DUP1 CALLDATASIZE SUB DUP2 ADD SWAP1 PUSH2 0x1FF SWAP2 SWAP1 PUSH2 0x2A92 JUMP JUMPDEST PUSH2 0x7BC JUMP JUMPDEST PUSH1 0x40 MLOAD PUSH2 0x211 SWAP2 SWAP1 PUSH2 0x2ADA JUMP JUMPDEST PUSH1 0x40 MLOAD DUP1 SWAP2 SUB SWAP1 RETURN JUMPDEST CALLVALUE DUP1 ISZERO PUSH2 0x226 JUMPI PUSH1 0x0 DUP1 REVERT JUMPDEST POP PUSH2 0x241 PUSH1 0x4 DUP1 CALLDATASIZE SUB DUP2 ADD SWAP1 PUSH2 0x23C SWAP2 SWAP1 PUSH2 0x2AF5 JUMP JUMPDEST PUSH2 0x7CE JUMP JUMPDEST PUSH1 0x40 MLOAD PUSH2 0x24E SWAP2 SWAP1 PUSH2 0x2A1F JUMP JUMPDEST PUSH1 0x40 MLOAD DUP1 SWAP2 SUB SWAP1 RETURN JUMPDEST CALLVALUE DUP1 ISZERO PUSH2 0x263 JUMPI PUSH1 0x0 DUP1 REVERT JUMPDEST POP PUSH2 0x27E PUSH1 0x4 DUP1 CALLDATASIZE SUB DUP2 ADD SWAP1 PUSH2 0x279 SWAP2 SWAP1 PUSH2 0x2AF5 JUMP JUMPDEST PUSH2 0x7EE JUMP JUMPDEST PUSH1 0x40 MLOAD PUSH2 0x290 SWAP7 SWAP6 SWAP5 SWAP4 SWAP3 SWAP2 SWAP1 PUSH2 0x2B43 JUMP JUMPDEST PUSH1 0x40 MLOAD DUP1 SWAP2 SUB SWAP1 RETURN JUMPDEST CALLVALUE DUP1 ISZERO PUSH2 0x2A5 JUMPI PUSH1 0x0 DUP1 REVERT JUMPDEST POP PUSH2 0x2C0 PUSH1 0x4 DUP1 CALLDATASIZE SUB DUP2 ADD SWAP1 PUSH2 0x2BB SWAP2 SWAP1 PUSH2 0x2AF5 JUMP JUMPDEST PUSH2 0x857 JUMP JUMPDEST PUSH1 0x40 MLOAD PUSH2 0x2CD SWAP2 SWAP1 PUSH2 0x2C3D JUMP JUMPDEST PUSH1 0x40 MLOAD DUP1 SWAP2 SUB SWAP1 RETURN JUMPDEST CALLVALUE DUP1 ISZERO PUSH2 0x2E2 JUMPI PUSH1 0x0 DUP1 REVERT JUMPDEST POP PUSH2 0x2FD PUSH1 0x4 DUP1 CALLDATASIZE SUB DUP2 ADD SWAP1 PUSH2 0x2F8 SWAP2 SWAP1 PUSH2 0x2AF5 JUMP JUMPDEST PUSH2 0x975 JUMP JUMPDEST PUSH1 0x40 MLOAD PUSH2 0x30A SWAP2 SWAP1 PUSH2 0x2C3D JUMP JUMPDEST PUSH1 0x40 MLOAD DUP1 SWAP2 SUB SWAP1 RETURN JUMPDEST CALLVALUE DUP1 ISZERO PUSH2 0x31F JUMPI PUSH1 0x0 DUP1 REVERT JUMPDEST POP PUSH2 0x33A PUSH1 0x4 DUP1 CALLDATASIZE SUB DUP2 ADD SWAP1 PUSH2 0x335 SWAP2 SWAP1 PUSH2 0x29D0 JUMP JUMPDEST PUSH2 0xA15 JUMP JUMPDEST STOP JUMPDEST CALLVALUE DUP1 ISZERO PUSH2 0x348 JUMPI PUSH1 0x0 DUP1 REVERT JUMPDEST POP PUSH2 0x363 PUSH1 0x4 DUP1 CALLDATASIZE SUB DUP2 ADD SWAP1 PUSH2 0x35E SWAP2 SWAP1 PUSH2 0x2E5C JUMP JUMPDEST PUSH2 0xAEF JUMP JUMPDEST STOP JUMPDEST CALLVALUE DUP1 ISZERO PUSH2 0x371 JUMPI PUSH1 0x0 DUP1 REVERT JUMPDEST POP PUSH2 0x38C PUSH1 0x4 DUP1 CALLDATASIZE SUB DUP2 ADD SWAP1 PUSH2 0x387 SWAP2 SWAP1 PUSH2 0x29D0 JUMP JUMPDEST PUSH2 0xB90 JUMP JUMPDEST PUSH1 0x40 MLOAD PUSH2 0x399 SWAP2 SWAP1 PUSH2 0x2A1F JUMP JUMPDEST PUSH1 0x40 MLOAD DUP1 SWAP2 SUB SWAP1 RETURN JUMPDEST CALLVALUE DUP1 ISZERO PUSH2 0x3AE JUMPI PUSH1 0x0 DUP1 REVERT JUMPDEST POP PUSH2 0x3C9 PUSH1 0x4 DUP1 CALLDATASIZE SUB DUP2 ADD SWAP1 PUSH2 0x3C4 SWAP2 SWAP1 PUSH2 0x2FEE JUMP JUMPDEST PUSH2 0xBBA JUMP JUMPDEST PUSH1 0x40 MLOAD PUSH2 0x3D6 SWAP2 SWAP1 PUSH2 0x3124 JUMP JUMPDEST PUSH1 0x40 MLOAD DUP1 SWAP2 SUB SWAP1 RETURN JUMPDEST CALLVALUE DUP1 ISZERO PUSH2 0x3EB JUMPI PUSH1 0x0 DUP1 REVERT JUMPDEST POP PUSH2 0x3F4 PUSH2 0xCD3 JUMP JUMPDEST PUSH1 0x40 MLOAD PUSH2 0x401 SWAP2 SWAP1 PUSH2 0x3146 JUMP JUMPDEST PUSH1 0x40 MLOAD DUP1 SWAP2 SUB SWAP1 RETURN JUMPDEST CALLVALUE DUP1 ISZERO PUSH2 0x416 JUMPI PUSH1 0x0 DUP1 REVERT JUMPDEST POP PUSH2 0x41F PUSH2 0xCF7 JUMP JUMPDEST PUSH1 0x40 MLOAD PUSH2 0x42C SWAP2 SWAP1 PUSH2 0x2A1F JUMP JUMPDEST PUSH1 0x40 MLOAD DUP1 SWAP2 SUB SWAP1 RETURN JUMPDEST CALLVALUE DUP1 ISZERO PUSH2 0x441 JUMPI PUSH1 0x0 DUP1 REVERT JUMPDEST POP PUSH2 0x44A PUSH2 0xCFD JUMP JUMPDEST PUSH1 0x40 MLOAD PUSH2 0x457 SWAP2 SWAP1 PUSH2 0x2A1F JUMP JUMPDEST PUSH1 0x40 MLOAD DUP1 SWAP2 SUB SWAP1 RETURN JUMPDEST CALLVALUE DUP1 ISZERO PUSH2 0x46C JUMPI PUSH1 0x0 DUP1 REVERT JUMPDEST POP PUSH2 0x487 PUSH1 0x4 DUP1 CALLDATASIZE SUB DUP2 ADD SWAP1 PUSH2 0x482 SWAP2 SWAP1 PUSH2 0x2AF5 JUMP JUMPDEST PUSH2 0xD21 JUMP JUMPDEST PUSH1 0x40 MLOAD PUSH2 0x498 SWAP6 SWAP5 SWAP4 SWAP3 SWAP2 SWAP1 PUSH2 0x3161 JUMP JUMPDEST PUSH1 0x40 MLOAD DUP1 SWAP2 SUB SWAP1 RETURN JUMPDEST CALLVALUE DUP1 ISZERO PUSH2 0x4AD JUMPI PUSH1 0x0 DUP1 REVERT JUMPDEST POP PUSH2 0x4C8 PUSH1 0x4 DUP1 CALLDATASIZE SUB DUP2 ADD SWAP1 PUSH2 0x4C3 SWAP2 SWAP1 PUSH2 0x3255 JUMP JUMPDEST PUSH2 0xD84 JUMP JUMPDEST STOP JUMPDEST CALLVALUE DUP1 ISZERO PUSH2 0x4D6 JUMPI PUSH1 0x0 DUP1 REVERT JUMPDEST POP PUSH2 0x4DF PUSH2 0xFB4 JUMP JUMPDEST PUSH1 0x40 MLOAD PUSH2 0x4EC SWAP2 SWAP1 PUSH2 0x2C3D JUMP JUMPDEST PUSH1 0x40 MLOAD DUP1 SWAP2 SUB SWAP1 RETURN JUMPDEST CALLVALUE DUP1 ISZERO PUSH2 0x501 JUMPI PUSH1 0x0 DUP1 REVERT JUMPDEST POP PUSH2 0x51C PUSH1 0x4 DUP1 CALLDATASIZE SUB DUP2 ADD SWAP1 PUSH2 0x517 SWAP2 SWAP1 PUSH2 0x32F0 JUMP JUMPDEST PUSH2 0x1042 JUMP JUMPDEST STOP JUMPDEST PUSH2 0x538 PUSH1 0x4 DUP1 CALLDATASIZE SUB DUP2 ADD SWAP1 PUSH2 0x533 SWAP2 SWAP1 PUSH2 0x2AF5 JUMP JUMPDEST PUSH2 0x1058 JUMP JUMPDEST STOP JUMPDEST CALLVALUE DUP1 ISZERO PUSH2 0x546 JUMPI PUSH1 0x0 DUP1 REVERT JUMPDEST POP PUSH2 0x561 PUSH1 0x4 DUP1 CALLDATASIZE SUB DUP2 ADD SWAP1 PUSH2 0x55C SWAP2 SWAP1 PUSH2 0x2E5C JUMP JUMPDEST PUSH2 0x13A0 JUMP JUMPDEST PUSH1 0x40 MLOAD PUSH2 0x56E SWAP2 SWAP1 PUSH2 0x333F JUMP JUMPDEST PUSH1 0x40 MLOAD DUP1 SWAP2 SUB SWAP1 RETURN JUMPDEST CALLVALUE DUP1 ISZERO PUSH2 0x583 JUMPI PUSH1 0x0 DUP1 REVERT JUMPDEST POP PUSH2 0x59E PUSH1 0x4 DUP1 CALLDATASIZE SUB DUP2 ADD SWAP1 PUSH2 0x599 SWAP2 SWAP1 PUSH2 0x2AF5 JUMP JUMPDEST PUSH2 0x13B5 JUMP JUMPDEST STOP JUMPDEST CALLVALUE DUP1 ISZERO PUSH2 0x5AC JUMPI PUSH1 0x0 DUP1 REVERT JUMPDEST POP PUSH2 0x5C7 PUSH1 0x4 DUP1 CALLDATASIZE SUB DUP2 ADD SWAP1 PUSH2 0x5C2 SWAP2 SWAP1 PUSH2 0x2AF5 JUMP JUMPDEST PUSH2 0x159E JUMP JUMPDEST PUSH1 0x40 MLOAD PUSH2 0x5D4 SWAP2 SWAP1 PUSH2 0x2A1F JUMP JUMPDEST PUSH1 0x40 MLOAD DUP1 SWAP2 SUB SWAP1 RETURN JUMPDEST PUSH2 0x5F7 PUSH1 0x4 DUP1 CALLDATASIZE SUB DUP2 ADD SWAP1 PUSH2 0x5F2 SWAP2 SWAP1 PUSH2 0x2AF5 JUMP JUMPDEST PUSH2 0x1601 JUMP JUMPDEST STOP JUMPDEST CALLVALUE DUP1 ISZERO PUSH2 0x605 JUMPI PUSH1 0x0 DUP1 REVERT JUMPDEST POP PUSH2 0x60E PUSH2 0x17A9 JUMP JUMPDEST PUSH1 0x40 MLOAD PUSH2 0x61B SWAP2 SWAP1 PUSH2 0x2A1F JUMP JUMPDEST PUSH1 0x40 MLOAD DUP1 SWAP2 SUB SWAP1 RETURN JUMPDEST CALLVALUE DUP1 ISZERO PUSH2 0x630 JUMPI PUSH1 0x0 DUP1 REVERT JUMPDEST POP PUSH2 0x64B PUSH1 0x4 DUP1 CALLDATASIZE SUB DUP2 ADD SWAP1 PUSH2 0x646 SWAP2 SWAP1 PUSH2 0x335A JUMP JUMPDEST PUSH2 0x17AF JUMP JUMPDEST PUSH1 0x40 MLOAD PUSH2 0x658 SWAP2 SWAP1 PUSH2 0x2ADA JUMP JUMPDEST PUSH1 0x40 MLOAD DUP1 SWAP2 SUB SWAP1 RETURN JUMPDEST CALLVALUE DUP1 ISZERO PUSH2 0x66D JUMPI PUSH1 0x0 DUP1 REVERT JUMPDEST POP PUSH2 0x688 PUSH1 0x4 DUP1 CALLDATASIZE SUB DUP2 ADD SWAP1 PUSH2 0x683 SWAP2 SWAP1 PUSH2 0x339A JUMP JUMPDEST PUSH2 0x1843 JUMP JUMPDEST PUSH1 0x40 MLOAD PUSH2 0x695 SWAP2 SWAP1 PUSH2 0x333F JUMP JUMPDEST PUSH1 0x40 MLOAD DUP1 SWAP2 SUB SWAP1 RETURN JUMPDEST CALLVALUE DUP1 ISZERO PUSH2 0x6AA JUMPI PUSH1 0x0 DUP1 REVERT JUMPDEST POP PUSH2 0x6C5 PUSH1 0x4 DUP1 CALLDATASIZE SUB DUP2 ADD SWAP1 PUSH2 0x6C0 SWAP2 SWAP1 PUSH2 0x339A JUMP JUMPDEST PUSH2 0x1858 JUMP JUMPDEST STOP JUMPDEST CALLVALUE DUP1 ISZERO PUSH2 0x6D3 JUMPI PUSH1 0x0 DUP1 REVERT JUMPDEST POP PUSH2 0x6DC PUSH2 0x18F9 JUMP JUMPDEST PUSH1 0x40 MLOAD PUSH2 0x6E9 SWAP2 SWAP1 PUSH2 0x2A1F JUMP JUMPDEST PUSH1 0x40 MLOAD DUP1 SWAP2 SUB SWAP1 RETURN JUMPDEST PUSH1 0x0 DUP1 PUSH20 0xFFFFFFFFFFFFFFFFFFFFFFFFFFFFFFFFFFFFFFFF AND DUP4 PUSH20 0xFFFFFFFFFFFFFFFFFFFFFFFFFFFFFFFFFFFFFFFF AND EQ ISZERO PUSH2 0x763 JUMPI PUSH1 0x40 MLOAD PUSH32 0x8C379A000000000000000000000000000000000000000000000000000000000 DUP2 MSTORE PUSH1 0x4 ADD PUSH2 0x75A SWAP1 PUSH2 0x34A3 JUMP JUMPDEST PUSH1 0x40 MLOAD DUP1 SWAP2 SUB SWAP1 REVERT JUMPDEST PUSH1 0x1 PUSH1 0x0 DUP4 DUP2 MSTORE PUSH1 0x20 ADD SWAP1 DUP2 MSTORE PUSH1 0x20 ADD PUSH1 0x0 KECCAK256 PUSH1 0x0 DUP5 PUSH20 0xFFFFFFFFFFFFFFFFFFFFFFFFFFFFFFFFFFFFFFFF AND PUSH20 0xFFFFFFFFFFFFFFFFFFFFFFFFFFFFFFFFFFFFFFFF AND DUP2 MSTORE PUSH1 0x20 ADD SWAP1 DUP2 MSTORE PUSH1 0x20 ADD PUSH1 0x0 KECCAK256 SLOAD SWAP1 POP SWAP3 SWAP2 POP POP JUMP JUMPDEST PUSH1 0x0 PUSH2 0x7C7 DUP3 PUSH2 0x18FF JUMP JUMPDEST SWAP1 POP SWAP2 SWAP1 POP JUMP JUMPDEST PUSH1 0x0 PUSH1 0x8 PUSH1 0x0 DUP4 DUP2 MSTORE PUSH1 0x20 ADD SWAP1 DUP2 MSTORE PUSH1 0x20 ADD PUSH1 0x0 KECCAK256 PUSH1 0x4 ADD SLOAD SWAP1 POP SWAP2 SWAP1 POP JUMP JUMPDEST PUSH1 0x8 PUSH1 0x20 MSTORE DUP1 PUSH1 0x0 MSTORE PUSH1 0x40 PUSH1 0x0 KECCAK256 PUSH1 0x0 SWAP2 POP SWAP1 POP DUP1 PUSH1 0x0 ADD SLOAD SWAP1 DUP1 PUSH1 0x1 ADD SLOAD SWAP1 DUP1 PUSH1 0x2 ADD SLOAD SWAP1 DUP1 PUSH1 0x3 ADD PUSH1 0x0 SWAP1 SLOAD SWAP1 PUSH2 0x100 EXP SWAP1 DIV PUSH20 0xFFFFFFFFFFFFFFFFFFFFFFFFFFFFFFFFFFFFFFFF AND SWAP1 DUP1 PUSH1 0x4 ADD SLOAD SWAP1 DUP1 PUSH1 0x5 ADD PUSH1 0x0 SWAP1 SLOAD SWAP1 PUSH2 0x100 EXP SWAP1 DIV PUSH1 0xFF AND SWAP1 POP DUP7 JUMP JUMPDEST PUSH1 0x60 PUSH1 0x0 DUP3 GT DUP1 ISZERO PUSH2 0x86B JUMPI POP PUSH1 0x6 SLOAD DUP3 GT ISZERO JUMPDEST PUSH2 0x8AA JUMPI PUSH1 0x40 MLOAD PUSH32 0x8C379A000000000000000000000000000000000000000000000000000000000 DUP2 MSTORE PUSH1 0x4 ADD PUSH2 0x8A1 SWAP1 PUSH2 0x350F JUMP JUMPDEST PUSH1 0x40 MLOAD DUP1 SWAP2 SUB SWAP1 REVERT JUMPDEST PUSH1 0x0 PUSH1 0xA PUSH1 0x0 DUP5 DUP2 MSTORE PUSH1 0x20 ADD SWAP1 DUP2 MSTORE PUSH1 0x20 ADD PUSH1 0x0 KECCAK256 DUP1 SLOAD PUSH2 0x8CA SWAP1 PUSH2 0x355E JUMP JUMPDEST DUP1 PUSH1 0x1F ADD PUSH1 0x20 DUP1 SWAP2 DIV MUL PUSH1 0x20 ADD PUSH1 0x40 MLOAD SWAP1 DUP2 ADD PUSH1 0x40 MSTORE DUP1 SWAP3 SWAP2 SWAP1 DUP2 DUP2 MSTORE PUSH1 0x20 ADD DUP3 DUP1 SLOAD PUSH2 0x8F6 SWAP1 PUSH2 0x355E JUMP JUMPDEST DUP1 ISZERO PUSH2 0x943 JUMPI DUP1 PUSH1 0x1F LT PUSH2 0x918 JUMPI PUSH2 0x100 DUP1 DUP4 SLOAD DIV MUL DUP4 MSTORE SWAP2 PUSH1 0x20 ADD SWAP2 PUSH2 0x943 JUMP JUMPDEST DUP3 ADD SWAP2 SWAP1 PUSH1 0x0 MSTORE PUSH1 0x20 PUSH1 0x0 KECCAK256 SWAP1 JUMPDEST DUP2 SLOAD DUP2 MSTORE SWAP1 PUSH1 0x1 ADD SWAP1 PUSH1 0x20 ADD DUP1 DUP4 GT PUSH2 0x926 JUMPI DUP3 SWAP1 SUB PUSH1 0x1F AND DUP3 ADD SWAP2 JUMPDEST POP POP POP POP POP SWAP1 POP PUSH1 0x7 DUP2 PUSH1 0x40 MLOAD PUSH1 0x20 ADD PUSH2 0x95E SWAP3 SWAP2 SWAP1 PUSH2 0x3660 JUMP JUMPDEST PUSH1 0x40 MLOAD PUSH1 0x20 DUP2 DUP4 SUB SUB DUP2 MSTORE SWAP1 PUSH1 0x40 MSTORE SWAP2 POP POP SWAP2 SWAP1 POP JUMP JUMPDEST PUSH1 0xA PUSH1 0x20 MSTORE DUP1 PUSH1 0x0 MSTORE PUSH1 0x40 PUSH1 0x0 KECCAK256 PUSH1 0x0 SWAP2 POP SWAP1 POP DUP1 SLOAD PUSH2 0x994 SWAP1 PUSH2 0x355E JUMP JUMPDEST DUP1 PUSH1 0x1F ADD PUSH1 0x20 DUP1 SWAP2 DIV MUL PUSH1 0x20 ADD PUSH1 0x40 MLOAD SWAP1 DUP2 ADD PUSH1 0x40 MSTORE DUP1 SWAP3 SWAP2 SWAP1 DUP2 DUP2 MSTORE PUSH1 0x20 ADD DUP3 DUP1 SLOAD PUSH2 0x9C0 SWAP1 PUSH2 0x355E JUMP JUMPDEST DUP1 ISZERO PUSH2 0xA0D JUMPI DUP1 PUSH1 0x1F LT PUSH2 0x9E2 JUMPI PUSH2 0x100 DUP1 DUP4 SLOAD DIV MUL DUP4 MSTORE SWAP2 PUSH1 0x20 ADD SWAP2 PUSH2 0xA0D JUMP JUMPDEST DUP3 ADD SWAP2 SWAP1 PUSH1 0x0 MSTORE PUSH1 0x20 PUSH1 0x0 KECCAK256 SWAP1 JUMPDEST DUP2 SLOAD DUP2 MSTORE SWAP1 PUSH1 0x1 ADD SWAP1 PUSH1 0x20 ADD DUP1 DUP4 GT PUSH2 0x9F0 JUMPI DUP3 SWAP1 SUB PUSH1 0x1F AND DUP3 ADD SWAP2 JUMPDEST POP POP POP POP POP DUP2 JUMP JUMPDEST PUSH1 0x0 PUSH2 0xA37 CALLER PUSH1 0x8 PUSH1 0x0 DUP6 DUP2 MSTORE PUSH1 0x20 ADD SWAP1 DUP2 MSTORE PUSH1 0x20 ADD PUSH1 0x0 KECCAK256 PUSH1 0x1 ADD SLOAD PUSH2 0xB90 JUMP JUMPDEST SWAP1 POP PUSH1 0x0 DUP2 GT PUSH2 0xA7C JUMPI PUSH1 0x40 MLOAD PUSH32 0x8C379A000000000000000000000000000000000000000000000000000000000 DUP2 MSTORE PUSH1 0x4 ADD PUSH2 0xA73 SWAP1 PUSH2 0x36F6 JUMP JUMPDEST PUSH1 0x40 MLOAD DUP1 SWAP2 SUB SWAP1 REVERT JUMPDEST PUSH2 0xAAF CALLER DUP5 PUSH1 0x8 PUSH1 0x0 DUP7 DUP2 MSTORE PUSH1 0x20 ADD SWAP1 DUP2 MSTORE PUSH1 0x20 ADD PUSH1 0x0 KECCAK256 PUSH1 0x1 ADD SLOAD PUSH1 0x1 PUSH1 0x40 MLOAD DUP1 PUSH1 0x20 ADD PUSH1 0x40 MSTORE DUP1 PUSH1 0x0 DUP2 MSTORE POP PUSH2 0x1979 JUMP JUMPDEST PUSH32 0xAC91D2F8D3E949EAE287E79B5C8FAD5B540E91849A83B006756D38ABFF26013 CALLER DUP5 DUP5 PUSH1 0x40 MLOAD PUSH2 0xAE2 SWAP4 SWAP3 SWAP2 SWAP1 PUSH2 0x3725 JUMP JUMPDEST PUSH1 0x40 MLOAD DUP1 SWAP2 SUB SWAP1 LOG1 POP POP POP JUMP JUMPDEST PUSH2 0xAF7 PUSH2 0x1C18 JUMP JUMPDEST PUSH20 0xFFFFFFFFFFFFFFFFFFFFFFFFFFFFFFFFFFFFFFFF AND DUP6 PUSH20 0xFFFFFFFFFFFFFFFFFFFFFFFFFFFFFFFFFFFFFFFF AND EQ DUP1 PUSH2 0xB3D JUMPI POP PUSH2 0xB3C DUP6 PUSH2 0xB37 PUSH2 0x1C18 JUMP JUMPDEST PUSH2 0x17AF JUMP JUMPDEST JUMPDEST PUSH2 0xB7C JUMPI PUSH1 0x40 MLOAD PUSH32 0x8C379A000000000000000000000000000000000000000000000000000000000 DUP2 MSTORE PUSH1 0x4 ADD PUSH2 0xB73 SWAP1 PUSH2 0x37CE JUMP JUMPDEST PUSH1 0x40 MLOAD DUP1 SWAP2 SUB SWAP1 REVERT JUMPDEST PUSH2 0xB89 DUP6 DUP6 DUP6 DUP6 DUP6 PUSH2 0x1C20 JUMP JUMPDEST POP POP POP POP POP JUMP JUMPDEST PUSH1 0x0 PUSH2 0xBB2 DUP4 PUSH1 0x8 PUSH1 0x0 DUP6 DUP2 MSTORE PUSH1 0x20 ADD SWAP1 DUP2 MSTORE PUSH1 0x20 ADD PUSH1 0x0 KECCAK256 PUSH1 0x1 ADD SLOAD PUSH2 0x6F2 JUMP JUMPDEST SWAP1 POP SWAP3 SWAP2 POP POP JUMP JUMPDEST PUSH1 0x60 DUP2 MLOAD DUP4 MLOAD EQ PUSH2 0xC00 JUMPI PUSH1 0x40 MLOAD PUSH32 0x8C379A000000000000000000000000000000000000000000000000000000000 DUP2 MSTORE PUSH1 0x4 ADD PUSH2 0xBF7 SWAP1 PUSH2 0x3860 JUMP JUMPDEST PUSH1 0x40 MLOAD DUP1 SWAP2 SUB SWAP1 REVERT JUMPDEST PUSH1 0x0 DUP4 MLOAD PUSH8 0xFFFFFFFFFFFFFFFF DUP2 GT ISZERO PUSH2 0xC1D JUMPI PUSH2 0xC1C PUSH2 0x2C64 JUMP JUMPDEST JUMPDEST PUSH1 0x40 MLOAD SWAP1 DUP1 DUP3 MSTORE DUP1 PUSH1 0x20 MUL PUSH1 0x20 ADD DUP3 ADD PUSH1 0x40 MSTORE DUP1 ISZERO PUSH2 0xC4B JUMPI DUP2 PUSH1 0x20 ADD PUSH1 0x20 DUP3 MUL DUP1 CALLDATASIZE DUP4 CALLDATACOPY DUP1 DUP3 ADD SWAP2 POP POP SWAP1 POP JUMPDEST POP SWAP1 POP PUSH1 0x0 JUMPDEST DUP5 MLOAD DUP2 LT ISZERO PUSH2 0xCC8 JUMPI PUSH2 0xC98 DUP6 DUP3 DUP2 MLOAD DUP2 LT PUSH2 0xC70 JUMPI PUSH2 0xC6F PUSH2 0x3880 JUMP JUMPDEST JUMPDEST PUSH1 0x20 MUL PUSH1 0x20 ADD ADD MLOAD DUP6 DUP4 DUP2 MLOAD DUP2 LT PUSH2 0xC8B JUMPI PUSH2 0xC8A PUSH2 0x3880 JUMP JUMPDEST JUMPDEST PUSH1 0x20 MUL PUSH1 0x20 ADD ADD MLOAD PUSH2 0x6F2 JUMP JUMPDEST DUP3 DUP3 DUP2 MLOAD DUP2 LT PUSH2 0xCAB JUMPI PUSH2 0xCAA PUSH2 0x3880 JUMP JUMPDEST JUMPDEST PUSH1 0x20 MUL PUSH1 0x20 ADD ADD DUP2 DUP2 MSTORE POP POP DUP1 PUSH2 0xCC1 SWAP1 PUSH2 0x38DE JUMP JUMPDEST SWAP1 POP PUSH2 0xC51 JUMP JUMPDEST POP DUP1 SWAP2 POP POP SWAP3 SWAP2 POP POP JUMP JUMPDEST PUSH32 0x0 DUP2 JUMP JUMPDEST PUSH1 0x4 SLOAD DUP2 JUMP JUMPDEST PUSH32 0x0 DUP2 JUMP JUMPDEST PUSH1 0x9 PUSH1 0x20 MSTORE DUP1 PUSH1 0x0 MSTORE PUSH1 0x40 PUSH1 0x0 KECCAK256 PUSH1 0x0 SWAP2 POP SWAP1 POP DUP1 PUSH1 0x0 ADD SLOAD SWAP1 DUP1 PUSH1 0x1 ADD SLOAD SWAP1 DUP1 PUSH1 0x2 ADD SLOAD SWAP1 DUP1 PUSH1 0x3 ADD PUSH1 0x0 SWAP1 SLOAD SWAP1 PUSH2 0x100 EXP SWAP1 DIV PUSH20 0xFFFFFFFFFFFFFFFFFFFFFFFFFFFFFFFFFFFFFFFF AND SWAP1 DUP1 PUSH1 0x3 ADD PUSH1 0x14 SWAP1 SLOAD SWAP1 PUSH2 0x100 EXP SWAP1 DIV PUSH1 0xFF AND SWAP1 POP DUP6 JUMP JUMPDEST PUSH2 0xD8C PUSH2 0x1F45 JUMP JUMPDEST PUSH1 0x0 DUP4 GT PUSH2 0xDCF JUMPI PUSH1 0x40 MLOAD PUSH32 0x8C379A000000000000000000000000000000000000000000000000000000000 DUP2 MSTORE PUSH1 0x4 ADD PUSH2 0xDC6 SWAP1 PUSH2 0x3973 JUMP JUMPDEST PUSH1 0x40 MLOAD DUP1 SWAP2 SUB SWAP1 REVERT JUMPDEST PUSH1 0x4 PUSH1 0x0 DUP2 SLOAD DUP1 SWAP3 SWAP2 SWAP1 PUSH2 0xDE2 SWAP1 PUSH2 0x38DE JUMP JUMPDEST SWAP2 SWAP1 POP SSTORE POP PUSH1 0x6 PUSH1 0x0 DUP2 SLOAD DUP1 SWAP3 SWAP2 SWAP1 PUSH2 0xDFA SWAP1 PUSH2 0x38DE JUMP JUMPDEST SWAP2 SWAP1 POP SSTORE POP PUSH2 0xE1C CALLER PUSH1 0x6 SLOAD DUP4 PUSH1 0x40 MLOAD DUP1 PUSH1 0x20 ADD PUSH1 0x40 MSTORE DUP1 PUSH1 0x0 DUP2 MSTORE POP PUSH2 0x1F95 JUMP JUMPDEST DUP2 PUSH1 0xA PUSH1 0x0 PUSH1 0x6 SLOAD DUP2 MSTORE PUSH1 0x20 ADD SWAP1 DUP2 MSTORE PUSH1 0x20 ADD PUSH1 0x0 KECCAK256 SWAP1 DUP1 MLOAD SWAP1 PUSH1 0x20 ADD SWAP1 PUSH2 0xE45 SWAP3 SWAP2 SWAP1 PUSH2 0x2885 JUMP JUMPDEST POP PUSH2 0xE64 CALLER ADDRESS PUSH1 0x6 SLOAD DUP5 PUSH1 0x40 MLOAD DUP1 PUSH1 0x20 ADD PUSH1 0x40 MSTORE DUP1 PUSH1 0x0 DUP2 MSTORE POP PUSH2 0x1858 JUMP JUMPDEST PUSH1 0x40 MLOAD DUP1 PUSH1 0xC0 ADD PUSH1 0x40 MSTORE DUP1 PUSH1 0x4 SLOAD DUP2 MSTORE PUSH1 0x20 ADD PUSH1 0x6 SLOAD DUP2 MSTORE PUSH1 0x20 ADD DUP5 DUP2 MSTORE PUSH1 0x20 ADD CALLER PUSH20 0xFFFFFFFFFFFFFFFFFFFFFFFFFFFFFFFFFFFFFFFF AND DUP2 MSTORE PUSH1 0x20 ADD DUP3 DUP2 MSTORE PUSH1 0x20 ADD PUSH1 0x0 ISZERO ISZERO DUP2 MSTORE POP PUSH1 0x8 PUSH1 0x0 PUSH1 0x4 SLOAD DUP2 MSTORE PUSH1 0x20 ADD SWAP1 DUP2 MSTORE PUSH1 0x20 ADD PUSH1 0x0 KECCAK256 PUSH1 0x0 DUP3 ADD MLOAD DUP2 PUSH1 0x0 ADD SSTORE PUSH1 0x20 DUP3 ADD MLOAD DUP2 PUSH1 0x1 ADD SSTORE PUSH1 0x40 DUP3 ADD MLOAD DUP2 PUSH1 0x2 ADD SSTORE PUSH1 0x60 DUP3 ADD MLOAD DUP2 PUSH1 0x3 ADD PUSH1 0x0 PUSH2 0x100 EXP DUP2 SLOAD DUP2 PUSH20 0xFFFFFFFFFFFFFFFFFFFFFFFFFFFFFFFFFFFFFFFF MUL NOT AND SWAP1 DUP4 PUSH20 0xFFFFFFFFFFFFFFFFFFFFFFFFFFFFFFFFFFFFFFFF AND MUL OR SWAP1 SSTORE POP PUSH1 0x80 DUP3 ADD MLOAD DUP2 PUSH1 0x4 ADD SSTORE PUSH1 0xA0 DUP3 ADD MLOAD DUP2 PUSH1 0x5 ADD PUSH1 0x0 PUSH2 0x100 EXP DUP2 SLOAD DUP2 PUSH1 0xFF MUL NOT AND SWAP1 DUP4 ISZERO ISZERO MUL OR SWAP1 SSTORE POP SWAP1 POP POP CALLER PUSH20 0xFFFFFFFFFFFFFFFFFFFFFFFFFFFFFFFFFFFFFFFF AND PUSH32 0xA2B90DA0FE4028BD7CDF0622C6B33D9DEA51AD80D2D7045C11070368F3E9A018 PUSH1 0x4 SLOAD DUP6 PUSH1 0x40 MLOAD PUSH2 0xF9F SWAP3 SWAP2 SWAP1 PUSH2 0x3993 JUMP JUMPDEST PUSH1 0x40 MLOAD DUP1 SWAP2 SUB SWAP1 LOG2 PUSH2 0xFAF PUSH2 0x2147 JUMP JUMPDEST POP POP POP JUMP JUMPDEST PUSH1 0x7 DUP1 SLOAD PUSH2 0xFC1 SWAP1 PUSH2 0x355E JUMP JUMPDEST DUP1 PUSH1 0x1F ADD PUSH1 0x20 DUP1 SWAP2 DIV MUL PUSH1 0x20 ADD PUSH1 0x40 MLOAD SWAP1 DUP2 ADD PUSH1 0x40 MSTORE DUP1 SWAP3 SWAP2 SWAP1 DUP2 DUP2 MSTORE PUSH1 0x20 ADD DUP3 DUP1 SLOAD PUSH2 0xFED SWAP1 PUSH2 0x355E JUMP JUMPDEST DUP1 ISZERO PUSH2 0x103A JUMPI DUP1 PUSH1 0x1F LT PUSH2 0x100F JUMPI PUSH2 0x100 DUP1 DUP4 SLOAD DIV MUL DUP4 MSTORE SWAP2 PUSH1 0x20 ADD SWAP2 PUSH2 0x103A JUMP JUMPDEST DUP3 ADD SWAP2 SWAP1 PUSH1 0x0 MSTORE PUSH1 0x20 PUSH1 0x0 KECCAK256 SWAP1 JUMPDEST DUP2 SLOAD DUP2 MSTORE SWAP1 PUSH1 0x1 ADD SWAP1 PUSH1 0x20 ADD DUP1 DUP4 GT PUSH2 0x101D JUMPI DUP3 SWAP1 SUB PUSH1 0x1F AND DUP3 ADD SWAP2 JUMPDEST POP POP POP POP POP DUP2 JUMP JUMPDEST PUSH2 0x1054 PUSH2 0x104D PUSH2 0x1C18 JUMP JUMPDEST DUP4 DUP4 PUSH2 0x2151 JUMP JUMPDEST POP POP JUMP JUMPDEST PUSH2 0x1060 PUSH2 0x1F45 JUMP JUMPDEST PUSH1 0x0 PUSH2 0x106B DUP3 PUSH2 0x159E JUMP JUMPDEST SWAP1 POP PUSH1 0x0 PUSH1 0x8 PUSH1 0x0 DUP5 DUP2 MSTORE PUSH1 0x20 ADD SWAP1 DUP2 MSTORE PUSH1 0x20 ADD PUSH1 0x0 KECCAK256 SWAP1 POP PUSH1 0x0 DUP4 GT DUP1 ISZERO PUSH2 0x1096 JUMPI POP PUSH1 0x4 SLOAD DUP4 GT ISZERO JUMPDEST PUSH2 0x10D5 JUMPI PUSH1 0x40 MLOAD PUSH32 0x8C379A000000000000000000000000000000000000000000000000000000000 DUP2 MSTORE PUSH1 0x4 ADD PUSH2 0x10CC SWAP1 PUSH2 0x3A08 JUMP JUMPDEST PUSH1 0x40 MLOAD DUP1 SWAP2 SUB SWAP1 REVERT JUMPDEST DUP1 PUSH1 0x5 ADD PUSH1 0x0 SWAP1 SLOAD SWAP1 PUSH2 0x100 EXP SWAP1 DIV PUSH1 0xFF AND ISZERO PUSH2 0x1127 JUMPI PUSH1 0x40 MLOAD PUSH32 0x8C379A000000000000000000000000000000000000000000000000000000000 DUP2 MSTORE PUSH1 0x4 ADD PUSH2 0x111E SWAP1 PUSH2 0x3A74 JUMP JUMPDEST PUSH1 0x40 MLOAD DUP1 SWAP2 SUB SWAP1 REVERT JUMPDEST PUSH1 0x0 DUP2 PUSH1 0x4 ADD SLOAD GT PUSH2 0x116E JUMPI PUSH1 0x40 MLOAD PUSH32 0x8C379A000000000000000000000000000000000000000000000000000000000 DUP2 MSTORE PUSH1 0x4 ADD PUSH2 0x1165 SWAP1 PUSH2 0x3AE0 JUMP JUMPDEST PUSH1 0x40 MLOAD DUP1 SWAP2 SUB SWAP1 REVERT JUMPDEST DUP2 CALLVALUE LT ISZERO PUSH2 0x11B1 JUMPI PUSH1 0x40 MLOAD PUSH32 0x8C379A000000000000000000000000000000000000000000000000000000000 DUP2 MSTORE PUSH1 0x4 ADD PUSH2 0x11A8 SWAP1 PUSH2 0x3B72 JUMP JUMPDEST PUSH1 0x40 MLOAD DUP1 SWAP2 SUB SWAP1 REVERT JUMPDEST DUP1 PUSH1 0x3 ADD PUSH1 0x0 SWAP1 SLOAD SWAP1 PUSH2 0x100 EXP SWAP1 DIV PUSH20 0xFFFFFFFFFFFFFFFFFFFFFFFFFFFFFFFFFFFFFFFF AND PUSH20 0xFFFFFFFFFFFFFFFFFFFFFFFFFFFFFFFFFFFFFFFF AND PUSH2 0x8FC DUP3 PUSH1 0x2 ADD SLOAD SWAP1 DUP2 ISZERO MUL SWAP1 PUSH1 0x40 MLOAD PUSH1 0x0 PUSH1 0x40 MLOAD DUP1 DUP4 SUB DUP2 DUP6 DUP9 DUP9 CALL SWAP4 POP POP POP POP ISZERO DUP1 ISZERO PUSH2 0x121F JUMPI RETURNDATASIZE PUSH1 0x0 DUP1 RETURNDATACOPY RETURNDATASIZE PUSH1 0x0 REVERT JUMPDEST POP PUSH32 0x0 PUSH20 0xFFFFFFFFFFFFFFFFFFFFFFFFFFFFFFFFFFFFFFFF AND PUSH2 0x8FC DUP3 PUSH1 0x2 ADD SLOAD DUP5 PUSH2 0x126A SWAP2 SWAP1 PUSH2 0x3B92 JUMP JUMPDEST SWAP1 DUP2 ISZERO MUL SWAP1 PUSH1 0x40 MLOAD PUSH1 0x0 PUSH1 0x40 MLOAD DUP1 DUP4 SUB DUP2 DUP6 DUP9 DUP9 CALL SWAP4 POP POP POP POP ISZERO DUP1 ISZERO PUSH2 0x1295 JUMPI RETURNDATASIZE PUSH1 0x0 DUP1 RETURNDATACOPY RETURNDATASIZE PUSH1 0x0 REVERT JUMPDEST POP PUSH1 0x1 DUP2 PUSH1 0x4 ADD PUSH1 0x0 DUP3 DUP3 SLOAD PUSH2 0x12AB SWAP2 SWAP1 PUSH2 0x3B92 JUMP JUMPDEST SWAP3 POP POP DUP2 SWAP1 SSTORE POP PUSH1 0x0 DUP2 PUSH1 0x4 ADD SLOAD EQ ISZERO PUSH2 0x12DD JUMPI PUSH1 0x1 DUP2 PUSH1 0x5 ADD PUSH1 0x0 PUSH2 0x100 EXP DUP2 SLOAD DUP2 PUSH1 0xFF MUL NOT AND SWAP1 DUP4 ISZERO ISZERO MUL OR SWAP1 SSTORE POP JUMPDEST PUSH2 0x12FE ADDRESS CALLER DUP4 PUSH1 0x1 ADD SLOAD PUSH1 0x1 PUSH1 0x40 MLOAD DUP1 PUSH1 0x20 ADD PUSH1 0x40 MSTORE DUP1 PUSH1 0x0 DUP2 MSTORE POP PUSH2 0x1979 JUMP JUMPDEST CALLER PUSH20 0xFFFFFFFFFFFFFFFFFFFFFFFFFFFFFFFFFFFFFFFF AND DUP2 PUSH1 0x3 ADD PUSH1 0x0 SWAP1 SLOAD SWAP1 PUSH2 0x100 EXP SWAP1 DIV PUSH20 0xFFFFFFFFFFFFFFFFFFFFFFFFFFFFFFFFFFFFFFFF AND PUSH20 0xFFFFFFFFFFFFFFFFFFFFFFFFFFFFFFFFFFFFFFFF AND PUSH32 0xF41FA837B49A32F097AF019FA055FA5FB310E3B08EB66594EBD2CEEBBF28E0E6 DUP6 DUP5 PUSH1 0x1 ADD SLOAD DUP6 PUSH1 0x2 ADD SLOAD PUSH1 0x40 MLOAD PUSH2 0x138B SWAP4 SWAP3 SWAP2 SWAP1 PUSH2 0x3BC6 JUMP JUMPDEST PUSH1 0x40 MLOAD DUP1 SWAP2 SUB SWAP1 LOG3 POP POP PUSH2 0x139D PUSH2 0x2147 JUMP JUMPDEST POP JUMP JUMPDEST PUSH1 0x0 PUSH4 0xBC197C81 PUSH1 0xE0 SHL SWAP1 POP SWAP6 SWAP5 POP POP POP POP POP JUMP JUMPDEST PUSH1 0x0 PUSH1 0x8 PUSH1 0x0 DUP4 DUP2 MSTORE PUSH1 0x20 ADD SWAP1 DUP2 MSTORE PUSH1 0x20 ADD PUSH1 0x0 KECCAK256 SWAP1 POP PUSH1 0x0 PUSH2 0x13DC CALLER DUP4 PUSH1 0x1 ADD SLOAD PUSH2 0xB90 JUMP JUMPDEST SWAP1 POP PUSH1 0x0 DUP2 GT PUSH2 0x1421 JUMPI PUSH1 0x40 MLOAD PUSH32 0x8C379A000000000000000000000000000000000000000000000000000000000 DUP2 MSTORE PUSH1 0x4 ADD PUSH2 0x1418 SWAP1 PUSH2 0x36F6 JUMP JUMPDEST PUSH1 0x40 MLOAD DUP1 SWAP2 SUB SWAP1 REVERT JUMPDEST PUSH1 0x5 PUSH1 0x0 DUP2 SLOAD DUP1 SWAP3 SWAP2 SWAP1 PUSH2 0x1434 SWAP1 PUSH2 0x38DE JUMP JUMPDEST SWAP2 SWAP1 POP SSTORE POP PUSH2 0x146C CALLER ADDRESS PUSH1 0x8 PUSH1 0x0 DUP8 DUP2 MSTORE PUSH1 0x20 ADD SWAP1 DUP2 MSTORE PUSH1 0x20 ADD PUSH1 0x0 KECCAK256 PUSH1 0x1 ADD SLOAD PUSH1 0x1 PUSH1 0x40 MLOAD DUP1 PUSH1 0x20 ADD PUSH1 0x40 MSTORE DUP1 PUSH1 0x0 DUP2 MSTORE POP PUSH2 0x1858 JUMP JUMPDEST PUSH1 0x40 MLOAD DUP1 PUSH1 0xA0 ADD PUSH1 0x40 MSTORE DUP1 PUSH1 0x5 SLOAD DUP2 MSTORE PUSH1 0x20 ADD DUP5 DUP2 MSTORE PUSH1 0x20 ADD PUSH1 0x8 PUSH1 0x0 DUP7 DUP2 MSTORE PUSH1 0x20 ADD SWAP1 DUP2 MSTORE PUSH1 0x20 ADD PUSH1 0x0 KECCAK256 PUSH1 0x1 ADD SLOAD DUP2 MSTORE PUSH1 0x20 ADD CALLER PUSH20 0xFFFFFFFFFFFFFFFFFFFFFFFFFFFFFFFFFFFFFFFF AND DUP2 MSTORE PUSH1 0x20 ADD PUSH1 0x0 ISZERO ISZERO DUP2 MSTORE POP PUSH1 0x9 PUSH1 0x0 PUSH1 0x5 SLOAD DUP2 MSTORE PUSH1 0x20 ADD SWAP1 DUP2 MSTORE PUSH1 0x20 ADD PUSH1 0x0 KECCAK256 PUSH1 0x0 DUP3 ADD MLOAD DUP2 PUSH1 0x0 ADD SSTORE PUSH1 0x20 DUP3 ADD MLOAD DUP2 PUSH1 0x1 ADD SSTORE PUSH1 0x40 DUP3 ADD MLOAD DUP2 PUSH1 0x2 ADD SSTORE PUSH1 0x60 DUP3 ADD MLOAD DUP2 PUSH1 0x3 ADD PUSH1 0x0 PUSH2 0x100 EXP DUP2 SLOAD DUP2 PUSH20 0xFFFFFFFFFFFFFFFFFFFFFFFFFFFFFFFFFFFFFFFF MUL NOT AND SWAP1 DUP4 PUSH20 0xFFFFFFFFFFFFFFFFFFFFFFFFFFFFFFFFFFFFFFFF AND MUL OR SWAP1 SSTORE POP PUSH1 0x80 DUP3 ADD MLOAD DUP2 PUSH1 0x3 ADD PUSH1 0x14 PUSH2 0x100 EXP DUP2 SLOAD DUP2 PUSH1 0xFF MUL NOT AND SWAP1 DUP4 ISZERO ISZERO MUL OR SWAP1 SSTORE POP SWAP1 POP POP DUP3 PUSH32 0xB315F93B930435BBD7B52E252C5E215A91E5EEC27B8028C5638CA28E3C18720B CALLER PUSH1 0x40 MLOAD PUSH2 0x1591 SWAP2 SWAP1 PUSH2 0x3BFD JUMP JUMPDEST PUSH1 0x40 MLOAD DUP1 SWAP2 SUB SWAP1 LOG2 POP POP POP JUMP JUMPDEST PUSH1 0x0 PUSH1 0x64 PUSH32 0x0 PUSH1 0x64 PUSH2 0x15CF SWAP2 SWAP1 PUSH2 0x3C18 JUMP JUMPDEST PUSH1 0x8 PUSH1 0x0 DUP6 DUP2 MSTORE PUSH1 0x20 ADD SWAP1 DUP2 MSTORE PUSH1 0x20 ADD PUSH1 0x0 KECCAK256 PUSH1 0x2 ADD SLOAD PUSH2 0x15F0 SWAP2 SWAP1 PUSH2 0x3C6E JUMP JUMPDEST PUSH2 0x15FA SWAP2 SWAP1 PUSH2 0x3CF7 JUMP JUMPDEST SWAP1 POP SWAP2 SWAP1 POP JUMP JUMPDEST PUSH1 0x0 PUSH1 0x9 PUSH1 0x0 DUP4 DUP2 MSTORE PUSH1 0x20 ADD SWAP1 DUP2 MSTORE PUSH1 0x20 ADD PUSH1 0x0 KECCAK256 SWAP1 POP PUSH1 0x0 PUSH2 0x1627 DUP3 PUSH1 0x1 ADD SLOAD PUSH2 0x159E JUMP JUMPDEST SWAP1 POP PUSH1 0x0 PUSH1 0x8 PUSH1 0x0 DUP5 PUSH1 0x1 ADD SLOAD DUP2 MSTORE PUSH1 0x20 ADD SWAP1 DUP2 MSTORE PUSH1 0x20 ADD PUSH1 0x0 KECCAK256 SWAP1 POP DUP1 PUSH1 0x3 ADD PUSH1 0x0 SWAP1 SLOAD SWAP1 PUSH2 0x100 EXP SWAP1 DIV PUSH20 0xFFFFFFFFFFFFFFFFFFFFFFFFFFFFFFFFFFFFFFFF AND PUSH20 0xFFFFFFFFFFFFFFFFFFFFFFFFFFFFFFFFFFFFFFFF AND PUSH2 0x8FC DUP3 PUSH1 0x2 ADD SLOAD SWAP1 DUP2 ISZERO MUL SWAP1 PUSH1 0x40 MLOAD PUSH1 0x0 PUSH1 0x40 MLOAD DUP1 DUP4 SUB DUP2 DUP6 DUP9 DUP9 CALL SWAP4 POP POP POP POP ISZERO DUP1 ISZERO PUSH2 0x16B2 JUMPI RETURNDATASIZE PUSH1 0x0 DUP1 RETURNDATACOPY RETURNDATASIZE PUSH1 0x0 REVERT JUMPDEST POP PUSH32 0x0 PUSH20 0xFFFFFFFFFFFFFFFFFFFFFFFFFFFFFFFFFFFFFFFF AND PUSH2 0x8FC DUP3 PUSH1 0x2 ADD SLOAD DUP5 PUSH2 0x16FD SWAP2 SWAP1 PUSH2 0x3B92 JUMP JUMPDEST SWAP1 DUP2 ISZERO MUL SWAP1 PUSH1 0x40 MLOAD PUSH1 0x0 PUSH1 0x40 MLOAD DUP1 DUP4 SUB DUP2 DUP6 DUP9 DUP9 CALL SWAP4 POP POP POP POP ISZERO DUP1 ISZERO PUSH2 0x1728 JUMPI RETURNDATASIZE PUSH1 0x0 DUP1 RETURNDATACOPY RETURNDATASIZE PUSH1 0x0 REVERT JUMPDEST POP PUSH1 0x1 DUP4 PUSH1 0x3 ADD PUSH1 0x14 PUSH2 0x100 EXP DUP2 SLOAD DUP2 PUSH1 0xFF MUL NOT AND SWAP1 DUP4 ISZERO ISZERO MUL OR SWAP1 SSTORE POP PUSH2 0x1767 ADDRESS CALLER DUP4 PUSH1 0x1 ADD SLOAD PUSH1 0x1 PUSH1 0x40 MLOAD DUP1 PUSH1 0x20 ADD PUSH1 0x40 MSTORE DUP1 PUSH1 0x0 DUP2 MSTORE POP PUSH2 0x1979 JUMP JUMPDEST DUP3 PUSH1 0x1 ADD SLOAD PUSH32 0x42DB8FAD4C2EE254B98F6B5BB0C183564DB808AFDF72A99510C2577D5E29D1E7 CALLER PUSH1 0x40 MLOAD PUSH2 0x179B SWAP2 SWAP1 PUSH2 0x3BFD JUMP JUMPDEST PUSH1 0x40 MLOAD DUP1 SWAP2 SUB SWAP1 LOG2 POP POP POP POP JUMP JUMPDEST PUSH1 0x5 SLOAD DUP2 JUMP JUMPDEST PUSH1 0x0 PUSH1 0x2 PUSH1 0x0 DUP5 PUSH20 0xFFFFFFFFFFFFFFFFFFFFFFFFFFFFFFFFFFFFFFFF AND PUSH20 0xFFFFFFFFFFFFFFFFFFFFFFFFFFFFFFFFFFFFFFFF AND DUP2 MSTORE PUSH1 0x20 ADD SWAP1 DUP2 MSTORE PUSH1 0x20 ADD PUSH1 0x0 KECCAK256 PUSH1 0x0 DUP4 PUSH20 0xFFFFFFFFFFFFFFFFFFFFFFFFFFFFFFFFFFFFFFFF AND PUSH20 0xFFFFFFFFFFFFFFFFFFFFFFFFFFFFFFFFFFFFFFFF AND DUP2 MSTORE PUSH1 0x20 ADD SWAP1 DUP2 MSTORE PUSH1 0x20 ADD PUSH1 0x0 KECCAK256 PUSH1 0x0 SWAP1 SLOAD SWAP1 PUSH2 0x100 EXP SWAP1 DIV PUSH1 0xFF AND SWAP1 POP SWAP3 SWAP2 POP POP JUMP JUMPDEST PUSH1 0x0 PUSH4 0xF23A6E61 PUSH1 0xE0 SHL SWAP1 POP SWAP6 SWAP5 POP POP POP POP POP JUMP JUMPDEST PUSH2 0x1860 PUSH2 0x1C18 JUMP JUMPDEST PUSH20 0xFFFFFFFFFFFFFFFFFFFFFFFFFFFFFFFFFFFFFFFF AND DUP6 PUSH20 0xFFFFFFFFFFFFFFFFFFFFFFFFFFFFFFFFFFFFFFFF AND EQ DUP1 PUSH2 0x18A6 JUMPI POP PUSH2 0x18A5 DUP6 PUSH2 0x18A0 PUSH2 0x1C18 JUMP JUMPDEST PUSH2 0x17AF JUMP JUMPDEST JUMPDEST PUSH2 0x18E5 JUMPI PUSH1 0x40 MLOAD PUSH32 0x8C379A000000000000000000000000000000000000000000000000000000000 DUP2 MSTORE PUSH1 0x4 ADD PUSH2 0x18DC SWAP1 PUSH2 0x37CE JUMP JUMPDEST PUSH1 0x40 MLOAD DUP1 SWAP2 SUB SWAP1 REVERT JUMPDEST PUSH2 0x18F2 DUP6 DUP6 DUP6 DUP6 DUP6 PUSH2 0x1979 JUMP JUMPDEST POP POP POP POP POP JUMP JUMPDEST PUSH1 0x6 SLOAD DUP2 JUMP JUMPDEST PUSH1 0x0 PUSH32 0x4E2312E000000000000000000000000000000000000000000000000000000000 PUSH28 0xFFFFFFFFFFFFFFFFFFFFFFFFFFFFFFFFFFFFFFFFFFFFFFFFFFFFFFFF NOT AND DUP3 PUSH28 0xFFFFFFFFFFFFFFFFFFFFFFFFFFFFFFFFFFFFFFFFFFFFFFFFFFFFFFFF NOT AND EQ DUP1 PUSH2 0x1972 JUMPI POP PUSH2 0x1971 DUP3 PUSH2 0x22BE JUMP JUMPDEST JUMPDEST SWAP1 POP SWAP2 SWAP1 POP JUMP JUMPDEST PUSH1 0x0 PUSH20 0xFFFFFFFFFFFFFFFFFFFFFFFFFFFFFFFFFFFFFFFF AND DUP5 PUSH20 0xFFFFFFFFFFFFFFFFFFFFFFFFFFFFFFFFFFFFFFFF AND EQ ISZERO PUSH2 0x19E9 JUMPI PUSH1 0x40 MLOAD PUSH32 0x8C379A000000000000000000000000000000000000000000000000000000000 DUP2 MSTORE PUSH1 0x4 ADD PUSH2 0x19E0 SWAP1 PUSH2 0x3D9A JUMP JUMPDEST PUSH1 0x40 MLOAD DUP1 SWAP2 SUB SWAP1 REVERT JUMPDEST PUSH1 0x0 PUSH2 0x19F3 PUSH2 0x1C18 JUMP JUMPDEST SWAP1 POP PUSH1 0x0 PUSH2 0x1A00 DUP6 PUSH2 0x23A0 JUMP JUMPDEST SWAP1 POP PUSH1 0x0 PUSH2 0x1A0D DUP6 PUSH2 0x23A0 JUMP JUMPDEST SWAP1 POP PUSH2 0x1A1D DUP4 DUP10 DUP10 DUP6 DUP6 DUP10 PUSH2 0x241A JUMP JUMPDEST PUSH1 0x0 PUSH1 0x1 PUSH1 0x0 DUP9 DUP2 MSTORE PUSH1 0x20 ADD SWAP1 DUP2 MSTORE PUSH1 0x20 ADD PUSH1 0x0 KECCAK256 PUSH1 0x0 DUP11 PUSH20 0xFFFFFFFFFFFFFFFFFFFFFFFFFFFFFFFFFFFFFFFF AND PUSH20 0xFFFFFFFFFFFFFFFFFFFFFFFFFFFFFFFFFFFFFFFF AND DUP2 MSTORE PUSH1 0x20 ADD SWAP1 DUP2 MSTORE PUSH1 0x20 ADD PUSH1 0x0 KECCAK256 SLOAD SWAP1 POP DUP6 DUP2 LT ISZERO PUSH2 0x1AB5 JUMPI PUSH1 0x40 MLOAD PUSH32 0x8C379A000000000000000000000000000000000000000000000000000000000 DUP2 MSTORE PUSH1 0x4 ADD PUSH2 0x1AAC SWAP1 PUSH2 0x3E2C JUMP JUMPDEST PUSH1 0x40 MLOAD DUP1 SWAP2 SUB SWAP1 REVERT JUMPDEST DUP6 DUP2 SUB PUSH1 0x1 PUSH1 0x0 DUP10 DUP2 MSTORE PUSH1 0x20 ADD SWAP1 DUP2 MSTORE PUSH1 0x20 ADD PUSH1 0x0 KECCAK256 PUSH1 0x0 DUP12 PUSH20 0xFFFFFFFFFFFFFFFFFFFFFFFFFFFFFFFFFFFFFFFF AND PUSH20 0xFFFFFFFFFFFFFFFFFFFFFFFFFFFFFFFFFFFFFFFF AND DUP2 MSTORE PUSH1 0x20 ADD SWAP1 DUP2 MSTORE PUSH1 0x20 ADD PUSH1 0x0 KECCAK256 DUP2 SWAP1 SSTORE POP DUP6 PUSH1 0x1 PUSH1 0x0 DUP10 DUP2 MSTORE PUSH1 0x20 ADD SWAP1 DUP2 MSTORE PUSH1 0x20 ADD PUSH1 0x0 KECCAK256 PUSH1 0x0 DUP11 PUSH20 0xFFFFFFFFFFFFFFFFFFFFFFFFFFFFFFFFFFFFFFFF AND PUSH20 0xFFFFFFFFFFFFFFFFFFFFFFFFFFFFFFFFFFFFFFFF AND DUP2 MSTORE PUSH1 0x20 ADD SWAP1 DUP2 MSTORE PUSH1 0x20 ADD PUSH1 0x0 KECCAK256 PUSH1 0x0 DUP3 DUP3 SLOAD PUSH2 0x1B6C SWAP2 SWAP1 PUSH2 0x3C18 JUMP JUMPDEST SWAP3 POP POP DUP2 SWAP1 SSTORE POP DUP8 PUSH20 0xFFFFFFFFFFFFFFFFFFFFFFFFFFFFFFFFFFFFFFFF AND DUP10 PUSH20 0xFFFFFFFFFFFFFFFFFFFFFFFFFFFFFFFFFFFFFFFF AND DUP6 PUSH20 0xFFFFFFFFFFFFFFFFFFFFFFFFFFFFFFFFFFFFFFFF AND PUSH32 0xC3D58168C5AE7397731D063D5BBF3D657854427343F4C083240F7AACAA2D0F62 DUP11 DUP11 PUSH1 0x40 MLOAD PUSH2 0x1BE9 SWAP3 SWAP2 SWAP1 PUSH2 0x3993 JUMP JUMPDEST PUSH1 0x40 MLOAD DUP1 SWAP2 SUB SWAP1 LOG4 PUSH2 0x1BFF DUP5 DUP11 DUP11 DUP7 DUP7 DUP11 PUSH2 0x2422 JUMP JUMPDEST PUSH2 0x1C0D DUP5 DUP11 DUP11 DUP11 DUP11 DUP11 PUSH2 0x242A JUMP JUMPDEST POP POP POP POP POP POP POP POP POP JUMP JUMPDEST PUSH1 0x0 CALLER SWAP1 POP SWAP1 JUMP JUMPDEST DUP2 MLOAD DUP4 MLOAD EQ PUSH2 0x1C64 JUMPI PUSH1 0x40 MLOAD PUSH32 0x8C379A000000000000000000000000000000000000000000000000000000000 DUP2 MSTORE PUSH1 0x4 ADD PUSH2 0x1C5B SWAP1 PUSH2 0x3EBE JUMP JUMPDEST PUSH1 0x40 MLOAD DUP1 SWAP2 SUB SWAP1 REVERT JUMPDEST PUSH1 0x0 PUSH20 0xFFFFFFFFFFFFFFFFFFFFFFFFFFFFFFFFFFFFFFFF AND DUP5 PUSH20 0xFFFFFFFFFFFFFFFFFFFFFFFFFFFFFFFFFFFFFFFF AND EQ ISZERO PUSH2 0x1CD4 JUMPI PUSH1 0x40 MLOAD PUSH32 0x8C379A000000000000000000000000000000000000000000000000000000000 DUP2 MSTORE PUSH1 0x4 ADD PUSH2 0x1CCB SWAP1 PUSH2 0x3D9A JUMP JUMPDEST PUSH1 0x40 MLOAD DUP1 SWAP2 SUB SWAP1 REVERT JUMPDEST PUSH1 0x0 PUSH2 0x1CDE PUSH2 0x1C18 JUMP JUMPDEST SWAP1 POP PUSH2 0x1CEE DUP2 DUP8 DUP8 DUP8 DUP8 DUP8 PUSH2 0x241A JUMP JUMPDEST PUSH1 0x0 JUMPDEST DUP5 MLOAD DUP2 LT ISZERO PUSH2 0x1EA2 JUMPI PUSH1 0x0 DUP6 DUP3 DUP2 MLOAD DUP2 LT PUSH2 0x1D0F JUMPI PUSH2 0x1D0E PUSH2 0x3880 JUMP JUMPDEST JUMPDEST PUSH1 0x20 MUL PUSH1 0x20 ADD ADD MLOAD SWAP1 POP PUSH1 0x0 DUP6 DUP4 DUP2 MLOAD DUP2 LT PUSH2 0x1D2E JUMPI PUSH2 0x1D2D PUSH2 0x3880 JUMP JUMPDEST JUMPDEST PUSH1 0x20 MUL PUSH1 0x20 ADD ADD MLOAD SWAP1 POP PUSH1 0x0 PUSH1 0x1 PUSH1 0x0 DUP5 DUP2 MSTORE PUSH1 0x20 ADD SWAP1 DUP2 MSTORE PUSH1 0x20 ADD PUSH1 0x0 KECCAK256 PUSH1 0x0 DUP12 PUSH20 0xFFFFFFFFFFFFFFFFFFFFFFFFFFFFFFFFFFFFFFFF AND PUSH20 0xFFFFFFFFFFFFFFFFFFFFFFFFFFFFFFFFFFFFFFFF AND DUP2 MSTORE PUSH1 0x20 ADD SWAP1 DUP2 MSTORE PUSH1 0x20 ADD PUSH1 0x0 KECCAK256 SLOAD SWAP1 POP DUP2 DUP2 LT ISZERO PUSH2 0x1DD0 JUMPI PUSH1 0x40 MLOAD PUSH32 0x8C379A000000000000000000000000000000000000000000000000000000000 DUP2 MSTORE PUSH1 0x4 ADD PUSH2 0x1DC7 SWAP1 PUSH2 0x3E2C JUMP JUMPDEST PUSH1 0x40 MLOAD DUP1 SWAP2 SUB SWAP1 REVERT JUMPDEST DUP2 DUP2 SUB PUSH1 0x1 PUSH1 0x0 DUP6 DUP2 MSTORE PUSH1 0x20 ADD SWAP1 DUP2 MSTORE PUSH1 0x20 ADD PUSH1 0x0 KECCAK256 PUSH1 0x0 DUP13 PUSH20 0xFFFFFFFFFFFFFFFFFFFFFFFFFFFFFFFFFFFFFFFF AND PUSH20 0xFFFFFFFFFFFFFFFFFFFFFFFFFFFFFFFFFFFFFFFF AND DUP2 MSTORE PUSH1 0x20 ADD SWAP1 DUP2 MSTORE PUSH1 0x20 ADD PUSH1 0x0 KECCAK256 DUP2 SWAP1 SSTORE POP DUP2 PUSH1 0x1 PUSH1 0x0 DUP6 DUP2 MSTORE PUSH1 0x20 ADD SWAP1 DUP2 MSTORE PUSH1 0x20 ADD PUSH1 0x0 KECCAK256 PUSH1 0x0 DUP12 PUSH20 0xFFFFFFFFFFFFFFFFFFFFFFFFFFFFFFFFFFFFFFFF AND PUSH20 0xFFFFFFFFFFFFFFFFFFFFFFFFFFFFFFFFFFFFFFFF AND DUP2 MSTORE PUSH1 0x20 ADD SWAP1 DUP2 MSTORE PUSH1 0x20 ADD PUSH1 0x0 KECCAK256 PUSH1 0x0 DUP3 DUP3 SLOAD PUSH2 0x1E87 SWAP2 SWAP1 PUSH2 0x3C18 JUMP JUMPDEST SWAP3 POP POP DUP2 SWAP1 SSTORE POP POP POP POP DUP1 PUSH2 0x1E9B SWAP1 PUSH2 0x38DE JUMP JUMPDEST SWAP1 POP PUSH2 0x1CF1 JUMP JUMPDEST POP DUP5 PUSH20 0xFFFFFFFFFFFFFFFFFFFFFFFFFFFFFFFFFFFFFFFF AND DUP7 PUSH20 0xFFFFFFFFFFFFFFFFFFFFFFFFFFFFFFFFFFFFFFFF AND DUP3 PUSH20 0xFFFFFFFFFFFFFFFFFFFFFFFFFFFFFFFFFFFFFFFF AND PUSH32 0x4A39DC06D4C0DBC64B70AF90FD698A233A518AA5D07E595D983B8C0526C8F7FB DUP8 DUP8 PUSH1 0x40 MLOAD PUSH2 0x1F19 SWAP3 SWAP2 SWAP1 PUSH2 0x3EDE JUMP JUMPDEST PUSH1 0x40 MLOAD DUP1 SWAP2 SUB SWAP1 LOG4 PUSH2 0x1F2F DUP2 DUP8 DUP8 DUP8 DUP8 DUP8 PUSH2 0x2422 JUMP JUMPDEST PUSH2 0x1F3D DUP2 DUP8 DUP8 DUP8 DUP8 DUP8 PUSH2 0x2611 JUMP JUMPDEST POP POP POP POP POP POP JUMP JUMPDEST PUSH1 0x2 PUSH1 0x0 SLOAD EQ ISZERO PUSH2 0x1F8B JUMPI PUSH1 0x40 MLOAD PUSH32 0x8C379A000000000000000000000000000000000000000000000000000000000 DUP2 MSTORE PUSH1 0x4 ADD PUSH2 0x1F82 SWAP1 PUSH2 0x3F61 JUMP JUMPDEST PUSH1 0x40 MLOAD DUP1 SWAP2 SUB SWAP1 REVERT JUMPDEST PUSH1 0x2 PUSH1 0x0 DUP2 SWAP1 SSTORE POP JUMP JUMPDEST PUSH1 0x0 PUSH20 0xFFFFFFFFFFFFFFFFFFFFFFFFFFFFFFFFFFFFFFFF AND DUP5 PUSH20 0xFFFFFFFFFFFFFFFFFFFFFFFFFFFFFFFFFFFFFFFF AND EQ ISZERO PUSH2 0x2005 JUMPI PUSH1 0x40 MLOAD PUSH32 0x8C379A000000000000000000000000000000000000000000000000000000000 DUP2 MSTORE PUSH1 0x4 ADD PUSH2 0x1FFC SWAP1 PUSH2 0x3FF3 JUMP JUMPDEST PUSH1 0x40 MLOAD DUP1 SWAP2 SUB SWAP1 REVERT JUMPDEST PUSH1 0x0 PUSH2 0x200F PUSH2 0x1C18 JUMP JUMPDEST SWAP1 POP PUSH1 0x0 PUSH2 0x201C DUP6 PUSH2 0x23A0 JUMP JUMPDEST SWAP1 POP PUSH1 0x0 PUSH2 0x2029 DUP6 PUSH2 0x23A0 JUMP JUMPDEST SWAP1 POP PUSH2 0x203A DUP4 PUSH1 0x0 DUP10 DUP6 DUP6 DUP10 PUSH2 0x241A JUMP JUMPDEST DUP5 PUSH1 0x1 PUSH1 0x0 DUP9 DUP2 MSTORE PUSH1 0x20 ADD SWAP1 DUP2 MSTORE PUSH1 0x20 ADD PUSH1 0x0 KECCAK256 PUSH1 0x0 DUP10 PUSH20 0xFFFFFFFFFFFFFFFFFFFFFFFFFFFFFFFFFFFFFFFF AND PUSH20 0xFFFFFFFFFFFFFFFFFFFFFFFFFFFFFFFFFFFFFFFF AND DUP2 MSTORE PUSH1 0x20 ADD SWAP1 DUP2 MSTORE PUSH1 0x20 ADD PUSH1 0x0 KECCAK256 PUSH1 0x0 DUP3 DUP3 SLOAD PUSH2 0x209A SWAP2 SWAP1 PUSH2 0x3C18 JUMP JUMPDEST SWAP3 POP POP DUP2 SWAP1 SSTORE POP DUP7 PUSH20 0xFFFFFFFFFFFFFFFFFFFFFFFFFFFFFFFFFFFFFFFF AND PUSH1 0x0 PUSH20 0xFFFFFFFFFFFFFFFFFFFFFFFFFFFFFFFFFFFFFFFF AND DUP5 PUSH20 0xFFFFFFFFFFFFFFFFFFFFFFFFFFFFFFFFFFFFFFFF AND PUSH32 0xC3D58168C5AE7397731D063D5BBF3D657854427343F4C083240F7AACAA2D0F62 DUP10 DUP10 PUSH1 0x40 MLOAD PUSH2 0x2118 SWAP3 SWAP2 SWAP1 PUSH2 0x3993 JUMP JUMPDEST PUSH1 0x40 MLOAD DUP1 SWAP2 SUB SWAP1 LOG4 PUSH2 0x212F DUP4 PUSH1 0x0 DUP10 DUP6 DUP6 DUP10 PUSH2 0x2422 JUMP JUMPDEST PUSH2 0x213E DUP4 PUSH1 0x0 DUP10 DUP10 DUP10 DUP10 PUSH2 0x242A JUMP JUMPDEST POP POP POP POP POP POP POP JUMP JUMPDEST PUSH1 0x1 PUSH1 0x0 DUP2 SWAP1 SSTORE POP JUMP JUMPDEST DUP2 PUSH20 0xFFFFFFFFFFFFFFFFFFFFFFFFFFFFFFFFFFFFFFFF AND DUP4 PUSH20 0xFFFFFFFFFFFFFFFFFFFFFFFFFFFFFFFFFFFFFFFF AND EQ ISZERO PUSH2 0x21C0 JUMPI PUSH1 0x40 MLOAD PUSH32 0x8C379A000000000000000000000000000000000000000000000000000000000 DUP2 MSTORE PUSH1 0x4 ADD PUSH2 0x21B7 SWAP1 PUSH2 0x4085 JUMP JUMPDEST PUSH1 0x40 MLOAD DUP1 SWAP2 SUB SWAP1 REVERT JUMPDEST DUP1 PUSH1 0x2 PUSH1 0x0 DUP6 PUSH20 0xFFFFFFFFFFFFFFFFFFFFFFFFFFFFFFFFFFFFFFFF AND PUSH20 0xFFFFFFFFFFFFFFFFFFFFFFFFFFFFFFFFFFFFFFFF AND DUP2 MSTORE PUSH1 0x20 ADD SWAP1 DUP2 MSTORE PUSH1 0x20 ADD PUSH1 0x0 KECCAK256 PUSH1 0x0 DUP5 PUSH20 0xFFFFFFFFFFFFFFFFFFFFFFFFFFFFFFFFFFFFFFFF AND PUSH20 0xFFFFFFFFFFFFFFFFFFFFFFFFFFFFFFFFFFFFFFFF AND DUP2 MSTORE PUSH1 0x20 ADD SWAP1 DUP2 MSTORE PUSH1 0x20 ADD PUSH1 0x0 KECCAK256 PUSH1 0x0 PUSH2 0x100 EXP DUP2 SLOAD DUP2 PUSH1 0xFF MUL NOT AND SWAP1 DUP4 ISZERO ISZERO MUL OR SWAP1 SSTORE POP DUP2 PUSH20 0xFFFFFFFFFFFFFFFFFFFFFFFFFFFFFFFFFFFFFFFF AND DUP4 PUSH20 0xFFFFFFFFFFFFFFFFFFFFFFFFFFFFFFFFFFFFFFFF AND PUSH32 0x17307EAB39AB6107E8899845AD3D59BD9653F200F220920489CA2B5937696C31 DUP4 PUSH1 0x40 MLOAD PUSH2 0x22B1 SWAP2 SWAP1 PUSH2 0x2ADA JUMP JUMPDEST PUSH1 0x40 MLOAD DUP1 SWAP2 SUB SWAP1 LOG3 POP POP POP JUMP JUMPDEST PUSH1 0x0 PUSH32 0xD9B67A2600000000000000000000000000000000000000000000000000000000 PUSH28 0xFFFFFFFFFFFFFFFFFFFFFFFFFFFFFFFFFFFFFFFFFFFFFFFFFFFFFFFF NOT AND DUP3 PUSH28 0xFFFFFFFFFFFFFFFFFFFFFFFFFFFFFFFFFFFFFFFFFFFFFFFFFFFFFFFF NOT AND EQ DUP1 PUSH2 0x2389 JUMPI POP PUSH32 0xE89341C00000000000000000000000000000000000000000000000000000000 PUSH28 0xFFFFFFFFFFFFFFFFFFFFFFFFFFFFFFFFFFFFFFFFFFFFFFFFFFFFFFFF NOT AND DUP3 PUSH28 0xFFFFFFFFFFFFFFFFFFFFFFFFFFFFFFFFFFFFFFFFFFFFFFFFFFFFFFFF NOT AND EQ JUMPDEST DUP1 PUSH2 0x2399 JUMPI POP PUSH2 0x2398 DUP3 PUSH2 0x27F8 JUMP JUMPDEST JUMPDEST SWAP1 POP SWAP2 SWAP1 POP JUMP JUMPDEST PUSH1 0x60 PUSH1 0x0 PUSH1 0x1 PUSH8 0xFFFFFFFFFFFFFFFF DUP2 GT ISZERO PUSH2 0x23BF JUMPI PUSH2 0x23BE PUSH2 0x2C64 JUMP JUMPDEST JUMPDEST PUSH1 0x40 MLOAD SWAP1 DUP1 DUP3 MSTORE DUP1 PUSH1 0x20 MUL PUSH1 0x20 ADD DUP3 ADD PUSH1 0x40 MSTORE DUP1 ISZERO PUSH2 0x23ED JUMPI DUP2 PUSH1 0x20 ADD PUSH1 0x20 DUP3 MUL DUP1 CALLDATASIZE DUP4 CALLDATACOPY DUP1 DUP3 ADD SWAP2 POP POP SWAP1 POP JUMPDEST POP SWAP1 POP DUP3 DUP2 PUSH1 0x0 DUP2 MLOAD DUP2 LT PUSH2 0x2405 JUMPI PUSH2 0x2404 PUSH2 0x3880 JUMP JUMPDEST JUMPDEST PUSH1 0x20 MUL PUSH1 0x20 ADD ADD DUP2 DUP2 MSTORE POP POP DUP1 SWAP2 POP POP SWAP2 SWAP1 POP JUMP JUMPDEST POP POP POP POP POP POP JUMP JUMPDEST POP POP POP POP POP POP JUMP JUMPDEST PUSH2 0x2449 DUP5 PUSH20 0xFFFFFFFFFFFFFFFFFFFFFFFFFFFFFFFFFFFFFFFF AND PUSH2 0x2862 JUMP JUMPDEST ISZERO PUSH2 0x2609 JUMPI DUP4 PUSH20 0xFFFFFFFFFFFFFFFFFFFFFFFFFFFFFFFFFFFFFFFF AND PUSH4 0xF23A6E61 DUP8 DUP8 DUP7 DUP7 DUP7 PUSH1 0x40 MLOAD DUP7 PUSH4 0xFFFFFFFF AND PUSH1 0xE0 SHL DUP2 MSTORE PUSH1 0x4 ADD PUSH2 0x248F SWAP6 SWAP5 SWAP4 SWAP3 SWAP2 SWAP1 PUSH2 0x40FA JUMP JUMPDEST PUSH1 0x20 PUSH1 0x40 MLOAD DUP1 DUP4 SUB DUP2 PUSH1 0x0 DUP8 DUP1 EXTCODESIZE ISZERO DUP1 ISZERO PUSH2 0x24A9 JUMPI PUSH1 0x0 DUP1 REVERT JUMPDEST POP GAS CALL SWAP3 POP POP POP DUP1 ISZERO PUSH2 0x24DA JUMPI POP PUSH1 0x40 MLOAD RETURNDATASIZE PUSH1 0x1F NOT PUSH1 0x1F DUP3 ADD AND DUP3 ADD DUP1 PUSH1 0x40 MSTORE POP DUP2 ADD SWAP1 PUSH2 0x24D7 SWAP2 SWAP1 PUSH2 0x4169 JUMP JUMPDEST PUSH1 0x1 JUMPDEST PUSH2 0x2580 JUMPI PUSH2 0x24E6 PUSH2 0x41A3 JUMP JUMPDEST DUP1 PUSH4 0x8C379A0 EQ ISZERO PUSH2 0x2543 JUMPI POP PUSH2 0x24FB PUSH2 0x41C5 JUMP JUMPDEST DUP1 PUSH2 0x2506 JUMPI POP PUSH2 0x2545 JUMP JUMPDEST DUP1 PUSH1 0x40 MLOAD PUSH32 0x8C379A000000000000000000000000000000000000000000000000000000000 DUP2 MSTORE PUSH1 0x4 ADD PUSH2 0x253A SWAP2 SWAP1 PUSH2 0x2C3D JUMP JUMPDEST PUSH1 0x40 MLOAD DUP1 SWAP2 SUB SWAP1 REVERT JUMPDEST POP JUMPDEST PUSH1 0x40 MLOAD PUSH32 0x8C379A000000000000000000000000000000000000000000000000000000000 DUP2 MSTORE PUSH1 0x4 ADD PUSH2 0x2577 SWAP1 PUSH2 0x42CD JUMP JUMPDEST PUSH1 0x40 MLOAD DUP1 SWAP2 SUB SWAP1 REVERT JUMPDEST PUSH4 0xF23A6E61 PUSH1 0xE0 SHL PUSH28 0xFFFFFFFFFFFFFFFFFFFFFFFFFFFFFFFFFFFFFFFFFFFFFFFFFFFFFFFF NOT AND DUP2 PUSH28 0xFFFFFFFFFFFFFFFFFFFFFFFFFFFFFFFFFFFFFFFFFFFFFFFFFFFFFFFF NOT AND EQ PUSH2 0x2607 JUMPI PUSH1 0x40 MLOAD PUSH32 0x8C379A000000000000000000000000000000000000000000000000000000000 DUP2 MSTORE PUSH1 0x4 ADD PUSH2 0x25FE SWAP1 PUSH2 0x435F JUMP JUMPDEST PUSH1 0x40 MLOAD DUP1 SWAP2 SUB SWAP1 REVERT JUMPDEST POP JUMPDEST POP POP POP POP POP POP JUMP JUMPDEST PUSH2 0x2630 DUP5 PUSH20 0xFFFFFFFFFFFFFFFFFFFFFFFFFFFFFFFFFFFFFFFF AND PUSH2 0x2862 JUMP JUMPDEST ISZERO PUSH2 0x27F0 JUMPI DUP4 PUSH20 0xFFFFFFFFFFFFFFFFFFFFFFFFFFFFFFFFFFFFFFFF AND PUSH4 0xBC197C81 DUP8 DUP8 DUP7 DUP7 DUP7 PUSH1 0x40 MLOAD DUP7 PUSH4 0xFFFFFFFF AND PUSH1 0xE0 SHL DUP2 MSTORE PUSH1 0x4 ADD PUSH2 0x2676 SWAP6 SWAP5 SWAP4 SWAP3 SWAP2 SWAP1 PUSH2 0x437F JUMP JUMPDEST PUSH1 0x20 PUSH1 0x40 MLOAD DUP1 DUP4 SUB DUP2 PUSH1 0x0 DUP8 DUP1 EXTCODESIZE ISZERO DUP1 ISZERO PUSH2 0x2690 JUMPI PUSH1 0x0 DUP1 REVERT JUMPDEST POP GAS CALL SWAP3 POP POP POP DUP1 ISZERO PUSH2 0x26C1 JUMPI POP PUSH1 0x40 MLOAD RETURNDATASIZE PUSH1 0x1F NOT PUSH1 0x1F DUP3 ADD AND DUP3 ADD DUP1 PUSH1 0x40 MSTORE POP DUP2 ADD SWAP1 PUSH2 0x26BE SWAP2 SWAP1 PUSH2 0x4169 JUMP JUMPDEST PUSH1 0x1 JUMPDEST PUSH2 0x2767 JUMPI PUSH2 0x26CD PUSH2 0x41A3 JUMP JUMPDEST DUP1 PUSH4 0x8C379A0 EQ ISZERO PUSH2 0x272A JUMPI POP PUSH2 0x26E2 PUSH2 0x41C5 JUMP JUMPDEST DUP1 PUSH2 0x26ED JUMPI POP PUSH2 0x272C JUMP JUMPDEST DUP1 PUSH1 0x40 MLOAD PUSH32 0x8C379A000000000000000000000000000000000000000000000000000000000 DUP2 MSTORE PUSH1 0x4 ADD PUSH2 0x2721 SWAP2 SWAP1 PUSH2 0x2C3D JUMP JUMPDEST PUSH1 0x40 MLOAD DUP1 SWAP2 SUB SWAP1 REVERT JUMPDEST POP JUMPDEST PUSH1 0x40 MLOAD PUSH32 0x8C379A000000000000000000000000000000000000000000000000000000000 DUP2 MSTORE PUSH1 0x4 ADD PUSH2 0x275E SWAP1 PUSH2 0x42CD JUMP JUMPDEST PUSH1 0x40 MLOAD DUP1 SWAP2 SUB SWAP1 REVERT JUMPDEST PUSH4 0xBC197C81 PUSH1 0xE0 SHL PUSH28 0xFFFFFFFFFFFFFFFFFFFFFFFFFFFFFFFFFFFFFFFFFFFFFFFFFFFFFFFF NOT AND DUP2 PUSH28 0xFFFFFFFFFFFFFFFFFFFFFFFFFFFFFFFFFFFFFFFFFFFFFFFFFFFFFFFF NOT AND EQ PUSH2 0x27EE JUMPI PUSH1 0x40 MLOAD PUSH32 0x8C379A000000000000000000000000000000000000000000000000000000000 DUP2 MSTORE PUSH1 0x4 ADD PUSH2 0x27E5 SWAP1 PUSH2 0x435F JUMP JUMPDEST PUSH1 0x40 MLOAD DUP1 SWAP2 SUB SWAP1 REVERT JUMPDEST POP JUMPDEST POP POP POP POP POP POP JUMP JUMPDEST PUSH1 0x0 PUSH32 0x1FFC9A700000000000000000000000000000000000000000000000000000000 PUSH28 0xFFFFFFFFFFFFFFFFFFFFFFFFFFFFFFFFFFFFFFFFFFFFFFFFFFFFFFFF NOT AND DUP3 PUSH28 0xFFFFFFFFFFFFFFFFFFFFFFFFFFFFFFFFFFFFFFFFFFFFFFFFFFFFFFFF NOT AND EQ SWAP1 POP SWAP2 SWAP1 POP JUMP JUMPDEST PUSH1 0x0 DUP1 DUP3 PUSH20 0xFFFFFFFFFFFFFFFFFFFFFFFFFFFFFFFFFFFFFFFF AND EXTCODESIZE GT SWAP1 POP SWAP2 SWAP1 POP JUMP JUMPDEST DUP3 DUP1 SLOAD PUSH2 0x2891 SWAP1 PUSH2 0x355E JUMP JUMPDEST SWAP1 PUSH1 0x0 MSTORE PUSH1 0x20 PUSH1 0x0 KECCAK256 SWAP1 PUSH1 0x1F ADD PUSH1 0x20 SWAP1 DIV DUP2 ADD SWAP3 DUP3 PUSH2 0x28B3 JUMPI PUSH1 0x0 DUP6 SSTORE PUSH2 0x28FA JUMP JUMPDEST DUP3 PUSH1 0x1F LT PUSH2 0x28CC JUMPI DUP1 MLOAD PUSH1 0xFF NOT AND DUP4 DUP1 ADD OR DUP6 SSTORE PUSH2 0x28FA JUMP JUMPDEST DUP3 DUP1 ADD PUSH1 0x1 ADD DUP6 SSTORE DUP3 ISZERO PUSH2 0x28FA JUMPI SWAP2 DUP3 ADD JUMPDEST DUP3 DUP2 GT ISZERO PUSH2 0x28F9 JUMPI DUP3 MLOAD DUP3 SSTORE SWAP2 PUSH1 0x20 ADD SWAP2 SWAP1 PUSH1 0x1 ADD SWAP1 PUSH2 0x28DE JUMP JUMPDEST JUMPDEST POP SWAP1 POP PUSH2 0x2907 SWAP2 SWAP1 PUSH2 0x290B JUMP JUMPDEST POP SWAP1 JUMP JUMPDEST JUMPDEST DUP1 DUP3 GT ISZERO PUSH2 0x2924 JUMPI PUSH1 0x0 DUP2 PUSH1 0x0 SWAP1 SSTORE POP PUSH1 0x1 ADD PUSH2 0x290C JUMP JUMPDEST POP SWAP1 JUMP JUMPDEST PUSH1 0x0 PUSH1 0x40 MLOAD SWAP1 POP SWAP1 JUMP JUMPDEST PUSH1 0x0 DUP1 REVERT JUMPDEST PUSH1 0x0 DUP1 REVERT JUMPDEST PUSH1 0x0 PUSH20 0xFFFFFFFFFFFFFFFFFFFFFFFFFFFFFFFFFFFFFFFF DUP3 AND SWAP1 POP SWAP2 SWAP1 POP JUMP JUMPDEST PUSH1 0x0 PUSH2 0x2967 DUP3 PUSH2 0x293C JUMP JUMPDEST SWAP1 POP SWAP2 SWAP1 POP JUMP JUMPDEST PUSH2 0x2977 DUP2 PUSH2 0x295C JUMP JUMPDEST DUP2 EQ PUSH2 0x2982 JUMPI PUSH1 0x0 DUP1 REVERT JUMPDEST POP JUMP JUMPDEST PUSH1 0x0 DUP2 CALLDATALOAD SWAP1 POP PUSH2 0x2994 DUP2 PUSH2 0x296E JUMP JUMPDEST SWAP3 SWAP2 POP POP JUMP JUMPDEST PUSH1 0x0 DUP2 SWAP1 POP SWAP2 SWAP1 POP JUMP JUMPDEST PUSH2 0x29AD DUP2 PUSH2 0x299A JUMP JUMPDEST DUP2 EQ PUSH2 0x29B8 JUMPI PUSH1 0x0 DUP1 REVERT JUMPDEST POP JUMP JUMPDEST PUSH1 0x0 DUP2 CALLDATALOAD SWAP1 POP PUSH2 0x29CA DUP2 PUSH2 0x29A4 JUMP JUMPDEST SWAP3 SWAP2 POP POP JUMP JUMPDEST PUSH1 0x0 DUP1 PUSH1 0x40 DUP4 DUP6 SUB SLT ISZERO PUSH2 0x29E7 JUMPI PUSH2 0x29E6 PUSH2 0x2932 JUMP JUMPDEST JUMPDEST PUSH1 0x0 PUSH2 0x29F5 DUP6 DUP3 DUP7 ADD PUSH2 0x2985 JUMP JUMPDEST SWAP3 POP POP PUSH1 0x20 PUSH2 0x2A06 DUP6 DUP3 DUP7 ADD PUSH2 0x29BB JUMP JUMPDEST SWAP2 POP POP SWAP3 POP SWAP3 SWAP1 POP JUMP JUMPDEST PUSH2 0x2A19 DUP2 PUSH2 0x299A JUMP JUMPDEST DUP3 MSTORE POP POP JUMP JUMPDEST PUSH1 0x0 PUSH1 0x20 DUP3 ADD SWAP1 POP PUSH2 0x2A34 PUSH1 0x0 DUP4 ADD DUP5 PUSH2 0x2A10 JUMP JUMPDEST SWAP3 SWAP2 POP POP JUMP JUMPDEST PUSH1 0x0 PUSH32 0xFFFFFFFF00000000000000000000000000000000000000000000000000000000 DUP3 AND SWAP1 POP SWAP2 SWAP1 POP JUMP JUMPDEST PUSH2 0x2A6F DUP2 PUSH2 0x2A3A JUMP JUMPDEST DUP2 EQ PUSH2 0x2A7A JUMPI PUSH1 0x0 DUP1 REVERT JUMPDEST POP JUMP JUMPDEST PUSH1 0x0 DUP2 CALLDATALOAD SWAP1 POP PUSH2 0x2A8C DUP2 PUSH2 0x2A66 JUMP JUMPDEST SWAP3 SWAP2 POP POP JUMP JUMPDEST PUSH1 0x0 PUSH1 0x20 DUP3 DUP5 SUB SLT ISZERO PUSH2 0x2AA8 JUMPI PUSH2 0x2AA7 PUSH2 0x2932 JUMP JUMPDEST JUMPDEST PUSH1 0x0 PUSH2 0x2AB6 DUP5 DUP3 DUP6 ADD PUSH2 0x2A7D JUMP JUMPDEST SWAP2 POP POP SWAP3 SWAP2 POP POP JUMP JUMPDEST PUSH1 0x0 DUP2 ISZERO ISZERO SWAP1 POP SWAP2 SWAP1 POP JUMP JUMPDEST PUSH2 0x2AD4 DUP2 PUSH2 0x2ABF JUMP JUMPDEST DUP3 MSTORE POP POP JUMP JUMPDEST PUSH1 0x0 PUSH1 0x20 DUP3 ADD SWAP1 POP PUSH2 0x2AEF PUSH1 0x0 DUP4 ADD DUP5 PUSH2 0x2ACB JUMP JUMPDEST SWAP3 SWAP2 POP POP JUMP JUMPDEST PUSH1 0x0 PUSH1 0x20 DUP3 DUP5 SUB SLT ISZERO PUSH2 0x2B0B JUMPI PUSH2 0x2B0A PUSH2 0x2932 JUMP JUMPDEST JUMPDEST PUSH1 0x0 PUSH2 0x2B19 DUP5 DUP3 DUP6 ADD PUSH2 0x29BB JUMP JUMPDEST SWAP2 POP POP SWAP3 SWAP2 POP POP JUMP JUMPDEST PUSH1 0x0 PUSH2 0x2B2D DUP3 PUSH2 0x293C JUMP JUMPDEST SWAP1 POP SWAP2 SWAP1 POP JUMP JUMPDEST PUSH2 0x2B3D DUP2 PUSH2 0x2B22 JUMP JUMPDEST DUP3 MSTORE POP POP JUMP JUMPDEST PUSH1 0x0 PUSH1 0xC0 DUP3 ADD SWAP1 POP PUSH2 0x2B58 PUSH1 0x0 DUP4 ADD DUP10 PUSH2 0x2A10 JUMP JUMPDEST PUSH2 0x2B65 PUSH1 0x20 DUP4 ADD DUP9 PUSH2 0x2A10 JUMP JUMPDEST PUSH2 0x2B72 PUSH1 0x40 DUP4 ADD DUP8 PUSH2 0x2A10 JUMP JUMPDEST PUSH2 0x2B7F PUSH1 0x60 DUP4 ADD DUP7 PUSH2 0x2B34 JUMP JUMPDEST PUSH2 0x2B8C PUSH1 0x80 DUP4 ADD DUP6 PUSH2 0x2A10 JUMP JUMPDEST PUSH2 0x2B99 PUSH1 0xA0 DUP4 ADD DUP5 PUSH2 0x2ACB JUMP JUMPDEST SWAP8 SWAP7 POP POP POP POP POP POP POP JUMP JUMPDEST PUSH1 0x0 DUP2 MLOAD SWAP1 POP SWAP2 SWAP1 POP JUMP JUMPDEST PUSH1 0x0 DUP3 DUP3 MSTORE PUSH1 0x20 DUP3 ADD SWAP1 POP SWAP3 SWAP2 POP POP JUMP JUMPDEST PUSH1 0x0 JUMPDEST DUP4 DUP2 LT ISZERO PUSH2 0x2BDE JUMPI DUP1 DUP3 ADD MLOAD DUP2 DUP5 ADD MSTORE PUSH1 0x20 DUP2 ADD SWAP1 POP PUSH2 0x2BC3 JUMP JUMPDEST DUP4 DUP2 GT ISZERO PUSH2 0x2BED JUMPI PUSH1 0x0 DUP5 DUP5 ADD MSTORE JUMPDEST POP POP POP POP JUMP JUMPDEST PUSH1 0x0 PUSH1 0x1F NOT PUSH1 0x1F DUP4 ADD AND SWAP1 POP SWAP2 SWAP1 POP JUMP JUMPDEST PUSH1 0x0 PUSH2 0x2C0F DUP3 PUSH2 0x2BA4 JUMP JUMPDEST PUSH2 0x2C19 DUP2 DUP6 PUSH2 0x2BAF JUMP JUMPDEST SWAP4 POP PUSH2 0x2C29 DUP2 DUP6 PUSH1 0x20 DUP7 ADD PUSH2 0x2BC0 JUMP JUMPDEST PUSH2 0x2C32 DUP2 PUSH2 0x2BF3 JUMP JUMPDEST DUP5 ADD SWAP2 POP POP SWAP3 SWAP2 POP POP JUMP JUMPDEST PUSH1 0x0 PUSH1 0x20 DUP3 ADD SWAP1 POP DUP2 DUP2 SUB PUSH1 0x0 DUP4 ADD MSTORE PUSH2 0x2C57 DUP2 DUP5 PUSH2 0x2C04 JUMP JUMPDEST SWAP1 POP SWAP3 SWAP2 POP POP JUMP JUMPDEST PUSH1 0x0 DUP1 REVERT JUMPDEST PUSH32 0x4E487B7100000000000000000000000000000000000000000000000000000000 PUSH1 0x0 MSTORE PUSH1 0x41 PUSH1 0x4 MSTORE PUSH1 0x24 PUSH1 0x0 REVERT JUMPDEST PUSH2 0x2C9C DUP3 PUSH2 0x2BF3 JUMP JUMPDEST DUP2 ADD DUP2 DUP2 LT PUSH8 0xFFFFFFFFFFFFFFFF DUP3 GT OR ISZERO PUSH2 0x2CBB JUMPI PUSH2 0x2CBA PUSH2 0x2C64 JUMP JUMPDEST JUMPDEST DUP1 PUSH1 0x40 MSTORE POP POP POP JUMP JUMPDEST PUSH1 0x0 PUSH2 0x2CCE PUSH2 0x2928 JUMP JUMPDEST SWAP1 POP PUSH2 0x2CDA DUP3 DUP3 PUSH2 0x2C93 JUMP JUMPDEST SWAP2 SWAP1 POP JUMP JUMPDEST PUSH1 0x0 PUSH8 0xFFFFFFFFFFFFFFFF DUP3 GT ISZERO PUSH2 0x2CFA JUMPI PUSH2 0x2CF9 PUSH2 0x2C64 JUMP JUMPDEST JUMPDEST PUSH1 0x20 DUP3 MUL SWAP1 POP PUSH1 0x20 DUP2 ADD SWAP1 POP SWAP2 SWAP1 POP JUMP JUMPDEST PUSH1 0x0 DUP1 REVERT JUMPDEST PUSH1 0x0 PUSH2 0x2D23 PUSH2 0x2D1E DUP5 PUSH2 0x2CDF JUMP JUMPDEST PUSH2 0x2CC4 JUMP JUMPDEST SWAP1 POP DUP1 DUP4 DUP3 MSTORE PUSH1 0x20 DUP3 ADD SWAP1 POP PUSH1 0x20 DUP5 MUL DUP4 ADD DUP6 DUP2 GT ISZERO PUSH2 0x2D46 JUMPI PUSH2 0x2D45 PUSH2 0x2D0B JUMP JUMPDEST JUMPDEST DUP4 JUMPDEST DUP2 DUP2 LT ISZERO PUSH2 0x2D6F JUMPI DUP1 PUSH2 0x2D5B DUP9 DUP3 PUSH2 0x29BB JUMP JUMPDEST DUP5 MSTORE PUSH1 0x20 DUP5 ADD SWAP4 POP POP PUSH1 0x20 DUP2 ADD SWAP1 POP PUSH2 0x2D48 JUMP JUMPDEST POP POP POP SWAP4 SWAP3 POP POP POP JUMP JUMPDEST PUSH1 0x0 DUP3 PUSH1 0x1F DUP4 ADD SLT PUSH2 0x2D8E JUMPI PUSH2 0x2D8D PUSH2 0x2C5F JUMP JUMPDEST JUMPDEST DUP2 CALLDATALOAD PUSH2 0x2D9E DUP5 DUP3 PUSH1 0x20 DUP7 ADD PUSH2 0x2D10 JUMP JUMPDEST SWAP2 POP POP SWAP3 SWAP2 POP POP JUMP JUMPDEST PUSH1 0x0 DUP1 REVERT JUMPDEST PUSH1 0x0 PUSH8 0xFFFFFFFFFFFFFFFF DUP3 GT ISZERO PUSH2 0x2DC7 JUMPI PUSH2 0x2DC6 PUSH2 0x2C64 JUMP JUMPDEST JUMPDEST PUSH2 0x2DD0 DUP3 PUSH2 0x2BF3 JUMP JUMPDEST SWAP1 POP PUSH1 0x20 DUP2 ADD SWAP1 POP SWAP2 SWAP1 POP JUMP JUMPDEST DUP3 DUP2 DUP4 CALLDATACOPY PUSH1 0x0 DUP4 DUP4 ADD MSTORE POP POP POP JUMP JUMPDEST PUSH1 0x0 PUSH2 0x2DFF PUSH2 0x2DFA DUP5 PUSH2 0x2DAC JUMP JUMPDEST PUSH2 0x2CC4 JUMP JUMPDEST SWAP1 POP DUP3 DUP2 MSTORE PUSH1 0x20 DUP2 ADD DUP5 DUP5 DUP5 ADD GT ISZERO PUSH2 0x2E1B JUMPI PUSH2 0x2E1A PUSH2 0x2DA7 JUMP JUMPDEST JUMPDEST PUSH2 0x2E26 DUP5 DUP3 DUP6 PUSH2 0x2DDD JUMP JUMPDEST POP SWAP4 SWAP3 POP POP POP JUMP JUMPDEST PUSH1 0x0 DUP3 PUSH1 0x1F DUP4 ADD SLT PUSH2 0x2E43 JUMPI PUSH2 0x2E42 PUSH2 0x2C5F JUMP JUMPDEST JUMPDEST DUP2 CALLDATALOAD PUSH2 0x2E53 DUP5 DUP3 PUSH1 0x20 DUP7 ADD PUSH2 0x2DEC JUMP JUMPDEST SWAP2 POP POP SWAP3 SWAP2 POP POP JUMP JUMPDEST PUSH1 0x0 DUP1 PUSH1 0x0 DUP1 PUSH1 0x0 PUSH1 0xA0 DUP7 DUP9 SUB SLT ISZERO PUSH2 0x2E78 JUMPI PUSH2 0x2E77 PUSH2 0x2932 JUMP JUMPDEST JUMPDEST PUSH1 0x0 PUSH2 0x2E86 DUP9 DUP3 DUP10 ADD PUSH2 0x2985 JUMP JUMPDEST SWAP6 POP POP PUSH1 0x20 PUSH2 0x2E97 DUP9 DUP3 DUP10 ADD PUSH2 0x2985 JUMP JUMPDEST SWAP5 POP POP PUSH1 0x40 DUP7 ADD CALLDATALOAD PUSH8 0xFFFFFFFFFFFFFFFF DUP2 GT ISZERO PUSH2 0x2EB8 JUMPI PUSH2 0x2EB7 PUSH2 0x2937 JUMP JUMPDEST JUMPDEST PUSH2 0x2EC4 DUP9 DUP3 DUP10 ADD PUSH2 0x2D79 JUMP JUMPDEST SWAP4 POP POP PUSH1 0x60 DUP7 ADD CALLDATALOAD PUSH8 0xFFFFFFFFFFFFFFFF DUP2 GT ISZERO PUSH2 0x2EE5 JUMPI PUSH2 0x2EE4 PUSH2 0x2937 JUMP JUMPDEST JUMPDEST PUSH2 0x2EF1 DUP9 DUP3 DUP10 ADD PUSH2 0x2D79 JUMP JUMPDEST SWAP3 POP POP PUSH1 0x80 DUP7 ADD CALLDATALOAD PUSH8 0xFFFFFFFFFFFFFFFF DUP2 GT ISZERO PUSH2 0x2F12 JUMPI PUSH2 0x2F11 PUSH2 0x2937 JUMP JUMPDEST JUMPDEST PUSH2 0x2F1E DUP9 DUP3 DUP10 ADD PUSH2 0x2E2E JUMP JUMPDEST SWAP2 POP POP SWAP3 SWAP6 POP SWAP3 SWAP6 SWAP1 SWAP4 POP JUMP JUMPDEST PUSH1 0x0 PUSH8 0xFFFFFFFFFFFFFFFF DUP3 GT ISZERO PUSH2 0x2F46 JUMPI PUSH2 0x2F45 PUSH2 0x2C64 JUMP JUMPDEST JUMPDEST PUSH1 0x20 DUP3 MUL SWAP1 POP PUSH1 0x20 DUP2 ADD SWAP1 POP SWAP2 SWAP1 POP JUMP JUMPDEST PUSH1 0x0 PUSH2 0x2F6A PUSH2 0x2F65 DUP5 PUSH2 0x2F2B JUMP JUMPDEST PUSH2 0x2CC4 JUMP JUMPDEST SWAP1 POP DUP1 DUP4 DUP3 MSTORE PUSH1 0x20 DUP3 ADD SWAP1 POP PUSH1 0x20 DUP5 MUL DUP4 ADD DUP6 DUP2 GT ISZERO PUSH2 0x2F8D JUMPI PUSH2 0x2F8C PUSH2 0x2D0B JUMP JUMPDEST JUMPDEST DUP4 JUMPDEST DUP2 DUP2 LT ISZERO PUSH2 0x2FB6 JUMPI DUP1 PUSH2 0x2FA2 DUP9 DUP3 PUSH2 0x2985 JUMP JUMPDEST DUP5 MSTORE PUSH1 0x20 DUP5 ADD SWAP4 POP POP PUSH1 0x20 DUP2 ADD SWAP1 POP PUSH2 0x2F8F JUMP JUMPDEST POP POP POP SWAP4 SWAP3 POP POP POP JUMP JUMPDEST PUSH1 0x0 DUP3 PUSH1 0x1F DUP4 ADD SLT PUSH2 0x2FD5 JUMPI PUSH2 0x2FD4 PUSH2 0x2C5F JUMP JUMPDEST JUMPDEST DUP2 CALLDATALOAD PUSH2 0x2FE5 DUP5 DUP3 PUSH1 0x20 DUP7 ADD PUSH2 0x2F57 JUMP JUMPDEST SWAP2 POP POP SWAP3 SWAP2 POP POP JUMP JUMPDEST PUSH1 0x0 DUP1 PUSH1 0x40 DUP4 DUP6 SUB SLT ISZERO PUSH2 0x3005 JUMPI PUSH2 0x3004 PUSH2 0x2932 JUMP JUMPDEST JUMPDEST PUSH1 0x0 DUP4 ADD CALLDATALOAD PUSH8 0xFFFFFFFFFFFFFFFF DUP2 GT ISZERO PUSH2 0x3023 JUMPI PUSH2 0x3022 PUSH2 0x2937 JUMP JUMPDEST JUMPDEST PUSH2 0x302F DUP6 DUP3 DUP7 ADD PUSH2 0x2FC0 JUMP JUMPDEST SWAP3 POP POP PUSH1 0x20 DUP4 ADD CALLDATALOAD PUSH8 0xFFFFFFFFFFFFFFFF DUP2 GT ISZERO PUSH2 0x3050 JUMPI PUSH2 0x304F PUSH2 0x2937 JUMP JUMPDEST JUMPDEST PUSH2 0x305C DUP6 DUP3 DUP7 ADD PUSH2 0x2D79 JUMP JUMPDEST SWAP2 POP POP SWAP3 POP SWAP3 SWAP1 POP JUMP JUMPDEST PUSH1 0x0 DUP2 MLOAD SWAP1 POP SWAP2 SWAP1 POP JUMP JUMPDEST PUSH1 0x0 DUP3 DUP3 MSTORE PUSH1 0x20 DUP3 ADD SWAP1 POP SWAP3 SWAP2 POP POP JUMP JUMPDEST PUSH1 0x0 DUP2 SWAP1 POP PUSH1 0x20 DUP3 ADD SWAP1 POP SWAP2 SWAP1 POP JUMP JUMPDEST PUSH2 0x309B DUP2 PUSH2 0x299A JUMP JUMPDEST DUP3 MSTORE POP POP JUMP JUMPDEST PUSH1 0x0 PUSH2 0x30AD DUP4 DUP4 PUSH2 0x3092 JUMP JUMPDEST PUSH1 0x20 DUP4 ADD SWAP1 POP SWAP3 SWAP2 POP POP JUMP JUMPDEST PUSH1 0x0 PUSH1 0x20 DUP3 ADD SWAP1 POP SWAP2 SWAP1 POP JUMP JUMPDEST PUSH1 0x0 PUSH2 0x30D1 DUP3 PUSH2 0x3066 JUMP JUMPDEST PUSH2 0x30DB DUP2 DUP6 PUSH2 0x3071 JUMP JUMPDEST SWAP4 POP PUSH2 0x30E6 DUP4 PUSH2 0x3082 JUMP JUMPDEST DUP1 PUSH1 0x0 JUMPDEST DUP4 DUP2 LT ISZERO PUSH2 0x3117 JUMPI DUP2 MLOAD PUSH2 0x30FE DUP9 DUP3 PUSH2 0x30A1 JUMP JUMPDEST SWAP8 POP PUSH2 0x3109 DUP4 PUSH2 0x30B9 JUMP JUMPDEST SWAP3 POP POP PUSH1 0x1 DUP2 ADD SWAP1 POP PUSH2 0x30EA JUMP JUMPDEST POP DUP6 SWAP4 POP POP POP POP SWAP3 SWAP2 POP POP JUMP JUMPDEST PUSH1 0x0 PUSH1 0x20 DUP3 ADD SWAP1 POP DUP2 DUP2 SUB PUSH1 0x0 DUP4 ADD MSTORE PUSH2 0x313E DUP2 DUP5 PUSH2 0x30C6 JUMP JUMPDEST SWAP1 POP SWAP3 SWAP2 POP POP JUMP JUMPDEST PUSH1 0x0 PUSH1 0x20 DUP3 ADD SWAP1 POP PUSH2 0x315B PUSH1 0x0 DUP4 ADD DUP5 PUSH2 0x2B34 JUMP JUMPDEST SWAP3 SWAP2 POP POP JUMP JUMPDEST PUSH1 0x0 PUSH1 0xA0 DUP3 ADD SWAP1 POP PUSH2 0x3176 PUSH1 0x0 DUP4 ADD DUP9 PUSH2 0x2A10 JUMP JUMPDEST PUSH2 0x3183 PUSH1 0x20 DUP4 ADD DUP8 PUSH2 0x2A10 JUMP JUMPDEST PUSH2 0x3190 PUSH1 0x40 DUP4 ADD DUP7 PUSH2 0x2A10 JUMP JUMPDEST PUSH2 0x319D PUSH1 0x60 DUP4 ADD DUP6 PUSH2 0x2B34 JUMP JUMPDEST PUSH2 0x31AA PUSH1 0x80 DUP4 ADD DUP5 PUSH2 0x2ACB JUMP JUMPDEST SWAP7 SWAP6 POP POP POP POP POP POP JUMP JUMPDEST PUSH1 0x0 PUSH8 0xFFFFFFFFFFFFFFFF DUP3 GT ISZERO PUSH2 0x31CF JUMPI PUSH2 0x31CE PUSH2 0x2C64 JUMP JUMPDEST JUMPDEST PUSH2 0x31D8 DUP3 PUSH2 0x2BF3 JUMP JUMPDEST SWAP1 POP PUSH1 0x20 DUP2 ADD SWAP1 POP SWAP2 SWAP1 POP JUMP JUMPDEST PUSH1 0x0 PUSH2 0x31F8 PUSH2 0x31F3 DUP5 PUSH2 0x31B4 JUMP JUMPDEST PUSH2 0x2CC4 JUMP JUMPDEST SWAP1 POP DUP3 DUP2 MSTORE PUSH1 0x20 DUP2 ADD DUP5 DUP5 DUP5 ADD GT ISZERO PUSH2 0x3214 JUMPI PUSH2 0x3213 PUSH2 0x2DA7 JUMP JUMPDEST JUMPDEST PUSH2 0x321F DUP5 DUP3 DUP6 PUSH2 0x2DDD JUMP JUMPDEST POP SWAP4 SWAP3 POP POP POP JUMP JUMPDEST PUSH1 0x0 DUP3 PUSH1 0x1F DUP4 ADD SLT PUSH2 0x323C JUMPI PUSH2 0x323B PUSH2 0x2C5F JUMP JUMPDEST JUMPDEST DUP2 CALLDATALOAD PUSH2 0x324C DUP5 DUP3 PUSH1 0x20 DUP7 ADD PUSH2 0x31E5 JUMP JUMPDEST SWAP2 POP POP SWAP3 SWAP2 POP POP JUMP JUMPDEST PUSH1 0x0 DUP1 PUSH1 0x0 PUSH1 0x60 DUP5 DUP7 SUB SLT ISZERO PUSH2 0x326E JUMPI PUSH2 0x326D PUSH2 0x2932 JUMP JUMPDEST JUMPDEST PUSH1 0x0 PUSH2 0x327C DUP7 DUP3 DUP8 ADD PUSH2 0x29BB JUMP JUMPDEST SWAP4 POP POP PUSH1 0x20 DUP5 ADD CALLDATALOAD PUSH8 0xFFFFFFFFFFFFFFFF DUP2 GT ISZERO PUSH2 0x329D JUMPI PUSH2 0x329C PUSH2 0x2937 JUMP JUMPDEST JUMPDEST PUSH2 0x32A9 DUP7 DUP3 DUP8 ADD PUSH2 0x3227 JUMP JUMPDEST SWAP3 POP POP PUSH1 0x40 PUSH2 0x32BA DUP7 DUP3 DUP8 ADD PUSH2 0x29BB JUMP JUMPDEST SWAP2 POP POP SWAP3 POP SWAP3 POP SWAP3 JUMP JUMPDEST PUSH2 0x32CD DUP2 PUSH2 0x2ABF JUMP JUMPDEST DUP2 EQ PUSH2 0x32D8 JUMPI PUSH1 0x0 DUP1 REVERT JUMPDEST POP JUMP JUMPDEST PUSH1 0x0 DUP2 CALLDATALOAD SWAP1 POP PUSH2 0x32EA DUP2 PUSH2 0x32C4 JUMP JUMPDEST SWAP3 SWAP2 POP POP JUMP JUMPDEST PUSH1 0x0 DUP1 PUSH1 0x40 DUP4 DUP6 SUB SLT ISZERO PUSH2 0x3307 JUMPI PUSH2 0x3306 PUSH2 0x2932 JUMP JUMPDEST JUMPDEST PUSH1 0x0 PUSH2 0x3315 DUP6 DUP3 DUP7 ADD PUSH2 0x2985 JUMP JUMPDEST SWAP3 POP POP PUSH1 0x20 PUSH2 0x3326 DUP6 DUP3 DUP7 ADD PUSH2 0x32DB JUMP JUMPDEST SWAP2 POP POP SWAP3 POP SWAP3 SWAP1 POP JUMP JUMPDEST PUSH2 0x3339 DUP2 PUSH2 0x2A3A JUMP JUMPDEST DUP3 MSTORE POP POP JUMP JUMPDEST PUSH1 0x0 PUSH1 0x20 DUP3 ADD SWAP1 POP PUSH2 0x3354 PUSH1 0x0 DUP4 ADD DUP5 PUSH2 0x3330 JUMP JUMPDEST SWAP3 SWAP2 POP POP JUMP JUMPDEST PUSH1 0x0 DUP1 PUSH1 0x40 DUP4 DUP6 SUB SLT ISZERO PUSH2 0x3371 JUMPI PUSH2 0x3370 PUSH2 0x2932 JUMP JUMPDEST JUMPDEST PUSH1 0x0 PUSH2 0x337F DUP6 DUP3 DUP7 ADD PUSH2 0x2985 JUMP JUMPDEST SWAP3 POP POP PUSH1 0x20 PUSH2 0x3390 DUP6 DUP3 DUP7 ADD PUSH2 0x2985 JUMP JUMPDEST SWAP2 POP POP SWAP3 POP SWAP3 SWAP1 POP JUMP JUMPDEST PUSH1 0x0 DUP1 PUSH1 0x0 DUP1 PUSH1 0x0 PUSH1 0xA0 DUP7 DUP9 SUB SLT ISZERO PUSH2 0x33B6 JUMPI PUSH2 0x33B5 PUSH2 0x2932 JUMP JUMPDEST JUMPDEST PUSH1 0x0 PUSH2 0x33C4 DUP9 DUP3 DUP10 ADD PUSH2 0x2985 JUMP JUMPDEST SWAP6 POP POP PUSH1 0x20 PUSH2 0x33D5 DUP9 DUP3 DUP10 ADD PUSH2 0x2985 JUMP JUMPDEST SWAP5 POP POP PUSH1 0x40 PUSH2 0x33E6 DUP9 DUP3 DUP10 ADD PUSH2 0x29BB JUMP JUMPDEST SWAP4 POP POP PUSH1 0x60 PUSH2 0x33F7 DUP9 DUP3 DUP10 ADD PUSH2 0x29BB JUMP JUMPDEST SWAP3 POP POP PUSH1 0x80 DUP7 ADD CALLDATALOAD PUSH8 0xFFFFFFFFFFFFFFFF DUP2 GT ISZERO PUSH2 0x3418 JUMPI PUSH2 0x3417 PUSH2 0x2937 JUMP JUMPDEST JUMPDEST PUSH2 0x3424 DUP9 DUP3 DUP10 ADD PUSH2 0x2E2E JUMP JUMPDEST SWAP2 POP POP SWAP3 SWAP6 POP SWAP3 SWAP6 SWAP1 SWAP4 POP JUMP JUMPDEST PUSH32 0x455243313135353A2061646472657373207A65726F206973206E6F7420612076 PUSH1 0x0 DUP3 ADD MSTORE PUSH32 0x616C6964206F776E657200000000000000000000000000000000000000000000 PUSH1 0x20 DUP3 ADD MSTORE POP JUMP JUMPDEST PUSH1 0x0 PUSH2 0x348D PUSH1 0x2A DUP4 PUSH2 0x2BAF JUMP JUMPDEST SWAP2 POP PUSH2 0x3498 DUP3 PUSH2 0x3431 JUMP JUMPDEST PUSH1 0x40 DUP3 ADD SWAP1 POP SWAP2 SWAP1 POP JUMP JUMPDEST PUSH1 0x0 PUSH1 0x20 DUP3 ADD SWAP1 POP DUP2 DUP2 SUB PUSH1 0x0 DUP4 ADD MSTORE PUSH2 0x34BC DUP2 PUSH2 0x3480 JUMP JUMPDEST SWAP1 POP SWAP2 SWAP1 POP JUMP JUMPDEST PUSH32 0x546F6B656E20494420646F6573206E6F74206578697374000000000000000000 PUSH1 0x0 DUP3 ADD MSTORE POP JUMP JUMPDEST PUSH1 0x0 PUSH2 0x34F9 PUSH1 0x17 DUP4 PUSH2 0x2BAF JUMP JUMPDEST SWAP2 POP PUSH2 0x3504 DUP3 PUSH2 0x34C3 JUMP JUMPDEST PUSH1 0x20 DUP3 ADD SWAP1 POP SWAP2 SWAP1 POP JUMP JUMPDEST PUSH1 0x0 PUSH1 0x20 DUP3 ADD SWAP1 POP DUP2 DUP2 SUB PUSH1 0x0 DUP4 ADD MSTORE PUSH2 0x3528 DUP2 PUSH2 0x34EC JUMP JUMPDEST SWAP1 POP SWAP2 SWAP1 POP JUMP JUMPDEST PUSH32 0x4E487B7100000000000000000000000000000000000000000000000000000000 PUSH1 0x0 MSTORE PUSH1 0x22 PUSH1 0x4 MSTORE PUSH1 0x24 PUSH1 0x0 REVERT JUMPDEST PUSH1 0x0 PUSH1 0x2 DUP3 DIV SWAP1 POP PUSH1 0x1 DUP3 AND DUP1 PUSH2 0x3576 JUMPI PUSH1 0x7F DUP3 AND SWAP2 POP JUMPDEST PUSH1 0x20 DUP3 LT DUP2 EQ ISZERO PUSH2 0x358A JUMPI PUSH2 0x3589 PUSH2 0x352F JUMP JUMPDEST JUMPDEST POP SWAP2 SWAP1 POP JUMP JUMPDEST PUSH1 0x0 DUP2 SWAP1 POP SWAP3 SWAP2 POP POP JUMP JUMPDEST PUSH1 0x0 DUP2 SWAP1 POP DUP2 PUSH1 0x0 MSTORE PUSH1 0x20 PUSH1 0x0 KECCAK256 SWAP1 POP SWAP2 SWAP1 POP JUMP JUMPDEST PUSH1 0x0 DUP2 SLOAD PUSH2 0x35BD DUP2 PUSH2 0x355E JUMP JUMPDEST PUSH2 0x35C7 DUP2 DUP7 PUSH2 0x3590 JUMP JUMPDEST SWAP5 POP PUSH1 0x1 DUP3 AND PUSH1 0x0 DUP2 EQ PUSH2 0x35E2 JUMPI PUSH1 0x1 DUP2 EQ PUSH2 0x35F3 JUMPI PUSH2 0x3626 JUMP JUMPDEST PUSH1 0xFF NOT DUP4 AND DUP7 MSTORE DUP2 DUP7 ADD SWAP4 POP PUSH2 0x3626 JUMP JUMPDEST PUSH2 0x35FC DUP6 PUSH2 0x359B JUMP JUMPDEST PUSH1 0x0 JUMPDEST DUP4 DUP2 LT ISZERO PUSH2 0x361E JUMPI DUP2 SLOAD DUP2 DUP10 ADD MSTORE PUSH1 0x1 DUP3 ADD SWAP2 POP PUSH1 0x20 DUP2 ADD SWAP1 POP PUSH2 0x35FF JUMP JUMPDEST DUP4 DUP9 ADD SWAP6 POP POP POP JUMPDEST POP POP POP SWAP3 SWAP2 POP POP JUMP JUMPDEST PUSH1 0x0 PUSH2 0x363A DUP3 PUSH2 0x2BA4 JUMP JUMPDEST PUSH2 0x3644 DUP2 DUP6 PUSH2 0x3590 JUMP JUMPDEST SWAP4 POP PUSH2 0x3654 DUP2 DUP6 PUSH1 0x20 DUP7 ADD PUSH2 0x2BC0 JUMP JUMPDEST DUP1 DUP5 ADD SWAP2 POP POP SWAP3 SWAP2 POP POP JUMP JUMPDEST PUSH1 0x0 PUSH2 0x366C DUP3 DUP6 PUSH2 0x35B0 JUMP JUMPDEST SWAP2 POP PUSH2 0x3678 DUP3 DUP5 PUSH2 0x362F JUMP JUMPDEST SWAP2 POP DUP2 SWAP1 POP SWAP4 SWAP3 POP POP POP JUMP JUMPDEST PUSH32 0x596F752068617665206E6F207469636B657420666F722074686973206576656E PUSH1 0x0 DUP3 ADD MSTORE PUSH32 0x7400000000000000000000000000000000000000000000000000000000000000 PUSH1 0x20 DUP3 ADD MSTORE POP JUMP JUMPDEST PUSH1 0x0 PUSH2 0x36E0 PUSH1 0x21 DUP4 PUSH2 0x2BAF JUMP JUMPDEST SWAP2 POP PUSH2 0x36EB DUP3 PUSH2 0x3684 JUMP JUMPDEST PUSH1 0x40 DUP3 ADD SWAP1 POP SWAP2 SWAP1 POP JUMP JUMPDEST PUSH1 0x0 PUSH1 0x20 DUP3 ADD SWAP1 POP DUP2 DUP2 SUB PUSH1 0x0 DUP4 ADD MSTORE PUSH2 0x370F DUP2 PUSH2 0x36D3 JUMP JUMPDEST SWAP1 POP SWAP2 SWAP1 POP JUMP JUMPDEST PUSH2 0x371F DUP2 PUSH2 0x295C JUMP JUMPDEST DUP3 MSTORE POP POP JUMP JUMPDEST PUSH1 0x0 PUSH1 0x60 DUP3 ADD SWAP1 POP PUSH2 0x373A PUSH1 0x0 DUP4 ADD DUP7 PUSH2 0x3716 JUMP JUMPDEST PUSH2 0x3747 PUSH1 0x20 DUP4 ADD DUP6 PUSH2 0x3716 JUMP JUMPDEST PUSH2 0x3754 PUSH1 0x40 DUP4 ADD DUP5 PUSH2 0x2A10 JUMP JUMPDEST SWAP5 SWAP4 POP POP POP POP JUMP JUMPDEST PUSH32 0x455243313135353A2063616C6C6572206973206E6F7420746F6B656E206F776E PUSH1 0x0 DUP3 ADD MSTORE PUSH32 0x6572206F7220617070726F766564000000000000000000000000000000000000 PUSH1 0x20 DUP3 ADD MSTORE POP JUMP JUMPDEST PUSH1 0x0 PUSH2 0x37B8 PUSH1 0x2E DUP4 PUSH2 0x2BAF JUMP JUMPDEST SWAP2 POP PUSH2 0x37C3 DUP3 PUSH2 0x375C JUMP JUMPDEST PUSH1 0x40 DUP3 ADD SWAP1 POP SWAP2 SWAP1 POP JUMP JUMPDEST PUSH1 0x0 PUSH1 0x20 DUP3 ADD SWAP1 POP DUP2 DUP2 SUB PUSH1 0x0 DUP4 ADD MSTORE PUSH2 0x37E7 DUP2 PUSH2 0x37AB JUMP JUMPDEST SWAP1 POP SWAP2 SWAP1 POP JUMP JUMPDEST PUSH32 0x455243313135353A206163636F756E747320616E6420696473206C656E677468 PUSH1 0x0 DUP3 ADD MSTORE PUSH32 0x206D69736D617463680000000000000000000000000000000000000000000000 PUSH1 0x20 DUP3 ADD MSTORE POP JUMP JUMPDEST PUSH1 0x0 PUSH2 0x384A PUSH1 0x29 DUP4 PUSH2 0x2BAF JUMP JUMPDEST SWAP2 POP PUSH2 0x3855 DUP3 PUSH2 0x37EE JUMP JUMPDEST PUSH1 0x40 DUP3 ADD SWAP1 POP SWAP2 SWAP1 POP JUMP JUMPDEST PUSH1 0x0 PUSH1 0x20 DUP3 ADD SWAP1 POP DUP2 DUP2 SUB PUSH1 0x0 DUP4 ADD MSTORE PUSH2 0x3879 DUP2 PUSH2 0x383D JUMP JUMPDEST SWAP1 POP SWAP2 SWAP1 POP JUMP JUMPDEST PUSH32 0x4E487B7100000000000000000000000000000000000000000000000000000000 PUSH1 0x0 MSTORE PUSH1 0x32 PUSH1 0x4 MSTORE PUSH1 0x24 PUSH1 0x0 REVERT JUMPDEST PUSH32 0x4E487B7100000000000000000000000000000000000000000000000000000000 PUSH1 0x0 MSTORE PUSH1 0x11 PUSH1 0x4 MSTORE PUSH1 0x24 PUSH1 0x0 REVERT JUMPDEST PUSH1 0x0 PUSH2 0x38E9 DUP3 PUSH2 0x299A JUMP JUMPDEST SWAP2 POP PUSH32 0xFFFFFFFFFFFFFFFFFFFFFFFFFFFFFFFFFFFFFFFFFFFFFFFFFFFFFFFFFFFFFFFF DUP3 EQ ISZERO PUSH2 0x391C JUMPI PUSH2 0x391B PUSH2 0x38AF JUMP JUMPDEST JUMPDEST PUSH1 0x1 DUP3 ADD SWAP1 POP SWAP2 SWAP1 POP JUMP JUMPDEST PUSH32 0x5072696365206D7573742062652067726561746572207468616E207A65726F00 PUSH1 0x0 DUP3 ADD MSTORE POP JUMP JUMPDEST PUSH1 0x0 PUSH2 0x395D PUSH1 0x1F DUP4 PUSH2 0x2BAF JUMP JUMPDEST SWAP2 POP PUSH2 0x3968 DUP3 PUSH2 0x3927 JUMP JUMPDEST PUSH1 0x20 DUP3 ADD SWAP1 POP SWAP2 SWAP1 POP JUMP JUMPDEST PUSH1 0x0 PUSH1 0x20 DUP3 ADD SWAP1 POP DUP2 DUP2 SUB PUSH1 0x0 DUP4 ADD MSTORE PUSH2 0x398C DUP2 PUSH2 0x3950 JUMP JUMPDEST SWAP1 POP SWAP2 SWAP1 POP JUMP JUMPDEST PUSH1 0x0 PUSH1 0x40 DUP3 ADD SWAP1 POP PUSH2 0x39A8 PUSH1 0x0 DUP4 ADD DUP6 PUSH2 0x2A10 JUMP JUMPDEST PUSH2 0x39B5 PUSH1 0x20 DUP4 ADD DUP5 PUSH2 0x2A10 JUMP JUMPDEST SWAP4 SWAP3 POP POP POP JUMP JUMPDEST PUSH32 0x4576656E7420496420646F65736E277420657869737400000000000000000000 PUSH1 0x0 DUP3 ADD MSTORE POP JUMP JUMPDEST PUSH1 0x0 PUSH2 0x39F2 PUSH1 0x16 DUP4 PUSH2 0x2BAF JUMP JUMPDEST SWAP2 POP PUSH2 0x39FD DUP3 PUSH2 0x39BC JUMP JUMPDEST PUSH1 0x20 DUP3 ADD SWAP1 POP SWAP2 SWAP1 POP JUMP JUMPDEST PUSH1 0x0 PUSH1 0x20 DUP3 ADD SWAP1 POP DUP2 DUP2 SUB PUSH1 0x0 DUP4 ADD MSTORE PUSH2 0x3A21 DUP2 PUSH2 0x39E5 JUMP JUMPDEST SWAP1 POP SWAP2 SWAP1 POP JUMP JUMPDEST PUSH32 0x5469636B65747320616C726561647920736F6C64206F75742100000000000000 PUSH1 0x0 DUP3 ADD MSTORE POP JUMP JUMPDEST PUSH1 0x0 PUSH2 0x3A5E PUSH1 0x19 DUP4 PUSH2 0x2BAF JUMP JUMPDEST SWAP2 POP PUSH2 0x3A69 DUP3 PUSH2 0x3A28 JUMP JUMPDEST PUSH1 0x20 DUP3 ADD SWAP1 POP SWAP2 SWAP1 POP JUMP JUMPDEST PUSH1 0x0 PUSH1 0x20 DUP3 ADD SWAP1 POP DUP2 DUP2 SUB PUSH1 0x0 DUP4 ADD MSTORE PUSH2 0x3A8D DUP2 PUSH2 0x3A51 JUMP JUMPDEST SWAP1 POP SWAP2 SWAP1 POP JUMP JUMPDEST PUSH32 0x5469636B65747320736F6C64206F757421000000000000000000000000000000 PUSH1 0x0 DUP3 ADD MSTORE POP JUMP JUMPDEST PUSH1 0x0 PUSH2 0x3ACA PUSH1 0x11 DUP4 PUSH2 0x2BAF JUMP JUMPDEST SWAP2 POP PUSH2 0x3AD5 DUP3 PUSH2 0x3A94 JUMP JUMPDEST PUSH1 0x20 DUP3 ADD SWAP1 POP SWAP2 SWAP1 POP JUMP JUMPDEST PUSH1 0x0 PUSH1 0x20 DUP3 ADD SWAP1 POP DUP2 DUP2 SUB PUSH1 0x0 DUP4 ADD MSTORE PUSH2 0x3AF9 DUP2 PUSH2 0x3ABD JUMP JUMPDEST SWAP1 POP SWAP2 SWAP1 POP JUMP JUMPDEST PUSH32 0x4E6F7420656E6F756768206D6174696320746F20636F766572205469636B6574 PUSH1 0x0 DUP3 ADD MSTORE PUSH32 0x20707269636520616E64206D61726B6574206665650000000000000000000000 PUSH1 0x20 DUP3 ADD MSTORE POP JUMP JUMPDEST PUSH1 0x0 PUSH2 0x3B5C PUSH1 0x35 DUP4 PUSH2 0x2BAF JUMP JUMPDEST SWAP2 POP PUSH2 0x3B67 DUP3 PUSH2 0x3B00 JUMP JUMPDEST PUSH1 0x40 DUP3 ADD SWAP1 POP SWAP2 SWAP1 POP JUMP JUMPDEST PUSH1 0x0 PUSH1 0x20 DUP3 ADD SWAP1 POP DUP2 DUP2 SUB PUSH1 0x0 DUP4 ADD MSTORE PUSH2 0x3B8B DUP2 PUSH2 0x3B4F JUMP JUMPDEST SWAP1 POP SWAP2 SWAP1 POP JUMP JUMPDEST PUSH1 0x0 PUSH2 0x3B9D DUP3 PUSH2 0x299A JUMP JUMPDEST SWAP2 POP PUSH2 0x3BA8 DUP4 PUSH2 0x299A JUMP JUMPDEST SWAP3 POP DUP3 DUP3 LT ISZERO PUSH2 0x3BBB JUMPI PUSH2 0x3BBA PUSH2 0x38AF JUMP JUMPDEST JUMPDEST DUP3 DUP3 SUB SWAP1 POP SWAP3 SWAP2 POP POP JUMP JUMPDEST PUSH1 0x0 PUSH1 0x60 DUP3 ADD SWAP1 POP PUSH2 0x3BDB PUSH1 0x0 DUP4 ADD DUP7 PUSH2 0x2A10 JUMP JUMPDEST PUSH2 0x3BE8 PUSH1 0x20 DUP4 ADD DUP6 PUSH2 0x2A10 JUMP JUMPDEST PUSH2 0x3BF5 PUSH1 0x40 DUP4 ADD DUP5 PUSH2 0x2A10 JUMP JUMPDEST SWAP5 SWAP4 POP POP POP POP JUMP JUMPDEST PUSH1 0x0 PUSH1 0x20 DUP3 ADD SWAP1 POP PUSH2 0x3C12 PUSH1 0x0 DUP4 ADD DUP5 PUSH2 0x3716 JUMP JUMPDEST SWAP3 SWAP2 POP POP JUMP JUMPDEST PUSH1 0x0 PUSH2 0x3C23 DUP3 PUSH2 0x299A JUMP JUMPDEST SWAP2 POP PUSH2 0x3C2E DUP4 PUSH2 0x299A JUMP JUMPDEST SWAP3 POP DUP3 PUSH32 0xFFFFFFFFFFFFFFFFFFFFFFFFFFFFFFFFFFFFFFFFFFFFFFFFFFFFFFFFFFFFFFFF SUB DUP3 GT ISZERO PUSH2 0x3C63 JUMPI PUSH2 0x3C62 PUSH2 0x38AF JUMP JUMPDEST JUMPDEST DUP3 DUP3 ADD SWAP1 POP SWAP3 SWAP2 POP POP JUMP JUMPDEST PUSH1 0x0 PUSH2 0x3C79 DUP3 PUSH2 0x299A JUMP JUMPDEST SWAP2 POP PUSH2 0x3C84 DUP4 PUSH2 0x299A JUMP JUMPDEST SWAP3 POP DUP2 PUSH32 0xFFFFFFFFFFFFFFFFFFFFFFFFFFFFFFFFFFFFFFFFFFFFFFFFFFFFFFFFFFFFFFFF DIV DUP4 GT DUP3 ISZERO ISZERO AND ISZERO PUSH2 0x3CBD JUMPI PUSH2 0x3CBC PUSH2 0x38AF JUMP JUMPDEST JUMPDEST DUP3 DUP3 MUL SWAP1 POP SWAP3 SWAP2 POP POP JUMP JUMPDEST PUSH32 0x4E487B7100000000000000000000000000000000000000000000000000000000 PUSH1 0x0 MSTORE PUSH1 0x12 PUSH1 0x4 MSTORE PUSH1 0x24 PUSH1 0x0 REVERT JUMPDEST PUSH1 0x0 PUSH2 0x3D02 DUP3 PUSH2 0x299A JUMP JUMPDEST SWAP2 POP PUSH2 0x3D0D DUP4 PUSH2 0x299A JUMP JUMPDEST SWAP3 POP DUP3 PUSH2 0x3D1D JUMPI PUSH2 0x3D1C PUSH2 0x3CC8 JUMP JUMPDEST JUMPDEST DUP3 DUP3 DIV SWAP1 POP SWAP3 SWAP2 POP POP JUMP JUMPDEST PUSH32 0x455243313135353A207472616E7366657220746F20746865207A65726F206164 PUSH1 0x0 DUP3 ADD MSTORE PUSH32 0x6472657373000000000000000000000000000000000000000000000000000000 PUSH1 0x20 DUP3 ADD MSTORE POP JUMP JUMPDEST PUSH1 0x0 PUSH2 0x3D84 PUSH1 0x25 DUP4 PUSH2 0x2BAF JUMP JUMPDEST SWAP2 POP PUSH2 0x3D8F DUP3 PUSH2 0x3D28 JUMP JUMPDEST PUSH1 0x40 DUP3 ADD SWAP1 POP SWAP2 SWAP1 POP JUMP JUMPDEST PUSH1 0x0 PUSH1 0x20 DUP3 ADD SWAP1 POP DUP2 DUP2 SUB PUSH1 0x0 DUP4 ADD MSTORE PUSH2 0x3DB3 DUP2 PUSH2 0x3D77 JUMP JUMPDEST SWAP1 POP SWAP2 SWAP1 POP JUMP JUMPDEST PUSH32 0x455243313135353A20696E73756666696369656E742062616C616E636520666F PUSH1 0x0 DUP3 ADD MSTORE PUSH32 0x72207472616E7366657200000000000000000000000000000000000000000000 PUSH1 0x20 DUP3 ADD MSTORE POP JUMP JUMPDEST PUSH1 0x0 PUSH2 0x3E16 PUSH1 0x2A DUP4 PUSH2 0x2BAF JUMP JUMPDEST SWAP2 POP PUSH2 0x3E21 DUP3 PUSH2 0x3DBA JUMP JUMPDEST PUSH1 0x40 DUP3 ADD SWAP1 POP SWAP2 SWAP1 POP JUMP JUMPDEST PUSH1 0x0 PUSH1 0x20 DUP3 ADD SWAP1 POP DUP2 DUP2 SUB PUSH1 0x0 DUP4 ADD MSTORE PUSH2 0x3E45 DUP2 PUSH2 0x3E09 JUMP JUMPDEST SWAP1 POP SWAP2 SWAP1 POP JUMP JUMPDEST PUSH32 0x455243313135353A2069647320616E6420616D6F756E7473206C656E67746820 PUSH1 0x0 DUP3 ADD MSTORE PUSH32 0x6D69736D61746368000000000000000000000000000000000000000000000000 PUSH1 0x20 DUP3 ADD MSTORE POP JUMP JUMPDEST PUSH1 0x0 PUSH2 0x3EA8 PUSH1 0x28 DUP4 PUSH2 0x2BAF JUMP JUMPDEST SWAP2 POP PUSH2 0x3EB3 DUP3 PUSH2 0x3E4C JUMP JUMPDEST PUSH1 0x40 DUP3 ADD SWAP1 POP SWAP2 SWAP1 POP JUMP JUMPDEST PUSH1 0x0 PUSH1 0x20 DUP3 ADD SWAP1 POP DUP2 DUP2 SUB PUSH1 0x0 DUP4 ADD MSTORE PUSH2 0x3ED7 DUP2 PUSH2 0x3E9B JUMP JUMPDEST SWAP1 POP SWAP2 SWAP1 POP JUMP JUMPDEST PUSH1 0x0 PUSH1 0x40 DUP3 ADD SWAP1 POP DUP2 DUP2 SUB PUSH1 0x0 DUP4 ADD MSTORE PUSH2 0x3EF8 DUP2 DUP6 PUSH2 0x30C6 JUMP JUMPDEST SWAP1 POP DUP2 DUP2 SUB PUSH1 0x20 DUP4 ADD MSTORE PUSH2 0x3F0C DUP2 DUP5 PUSH2 0x30C6 JUMP JUMPDEST SWAP1 POP SWAP4 SWAP3 POP POP POP JUMP JUMPDEST PUSH32 0x5265656E7472616E637947756172643A207265656E7472616E742063616C6C00 PUSH1 0x0 DUP3 ADD MSTORE POP JUMP JUMPDEST PUSH1 0x0 PUSH2 0x3F4B PUSH1 0x1F DUP4 PUSH2 0x2BAF JUMP JUMPDEST SWAP2 POP PUSH2 0x3F56 DUP3 PUSH2 0x3F15 JUMP JUMPDEST PUSH1 0x20 DUP3 ADD SWAP1 POP SWAP2 SWAP1 POP JUMP JUMPDEST PUSH1 0x0 PUSH1 0x20 DUP3 ADD SWAP1 POP DUP2 DUP2 SUB PUSH1 0x0 DUP4 ADD MSTORE PUSH2 0x3F7A DUP2 PUSH2 0x3F3E JUMP JUMPDEST SWAP1 POP SWAP2 SWAP1 POP JUMP JUMPDEST PUSH32 0x455243313135353A206D696E7420746F20746865207A65726F20616464726573 PUSH1 0x0 DUP3 ADD MSTORE PUSH32 0x7300000000000000000000000000000000000000000000000000000000000000 PUSH1 0x20 DUP3 ADD MSTORE POP JUMP JUMPDEST PUSH1 0x0 PUSH2 0x3FDD PUSH1 0x21 DUP4 PUSH2 0x2BAF JUMP JUMPDEST SWAP2 POP PUSH2 0x3FE8 DUP3 PUSH2 0x3F81 JUMP JUMPDEST PUSH1 0x40 DUP3 ADD SWAP1 POP SWAP2 SWAP1 POP JUMP JUMPDEST PUSH1 0x0 PUSH1 0x20 DUP3 ADD SWAP1 POP DUP2 DUP2 SUB PUSH1 0x0 DUP4 ADD MSTORE PUSH2 0x400C DUP2 PUSH2 0x3FD0 JUMP JUMPDEST SWAP1 POP SWAP2 SWAP1 POP JUMP JUMPDEST PUSH32 0x455243313135353A2073657474696E6720617070726F76616C20737461747573 PUSH1 0x0 DUP3 ADD MSTORE PUSH32 0x20666F722073656C660000000000000000000000000000000000000000000000 PUSH1 0x20 DUP3 ADD MSTORE POP JUMP JUMPDEST PUSH1 0x0 PUSH2 0x406F PUSH1 0x29 DUP4 PUSH2 0x2BAF JUMP JUMPDEST SWAP2 POP PUSH2 0x407A DUP3 PUSH2 0x4013 JUMP JUMPDEST PUSH1 0x40 DUP3 ADD SWAP1 POP SWAP2 SWAP1 POP JUMP JUMPDEST PUSH1 0x0 PUSH1 0x20 DUP3 ADD SWAP1 POP DUP2 DUP2 SUB PUSH1 0x0 DUP4 ADD MSTORE PUSH2 0x409E DUP2 PUSH2 0x4062 JUMP JUMPDEST SWAP1 POP SWAP2 SWAP1 POP JUMP JUMPDEST PUSH1 0x0 DUP2 MLOAD SWAP1 POP SWAP2 SWAP1 POP JUMP JUMPDEST PUSH1 0x0 DUP3 DUP3 MSTORE PUSH1 0x20 DUP3 ADD SWAP1 POP SWAP3 SWAP2 POP POP JUMP JUMPDEST PUSH1 0x0 PUSH2 0x40CC DUP3 PUSH2 0x40A5 JUMP JUMPDEST PUSH2 0x40D6 DUP2 DUP6 PUSH2 0x40B0 JUMP JUMPDEST SWAP4 POP PUSH2 0x40E6 DUP2 DUP6 PUSH1 0x20 DUP7 ADD PUSH2 0x2BC0 JUMP JUMPDEST PUSH2 0x40EF DUP2 PUSH2 0x2BF3 JUMP JUMPDEST DUP5 ADD SWAP2 POP POP SWAP3 SWAP2 POP POP JUMP JUMPDEST PUSH1 0x0 PUSH1 0xA0 DUP3 ADD SWAP1 POP PUSH2 0x410F PUSH1 0x0 DUP4 ADD DUP9 PUSH2 0x3716 JUMP JUMPDEST PUSH2 0x411C PUSH1 0x20 DUP4 ADD DUP8 PUSH2 0x3716 JUMP JUMPDEST PUSH2 0x4129 PUSH1 0x40 DUP4 ADD DUP7 PUSH2 0x2A10 JUMP JUMPDEST PUSH2 0x4136 PUSH1 0x60 DUP4 ADD DUP6 PUSH2 0x2A10 JUMP JUMPDEST DUP2 DUP2 SUB PUSH1 0x80 DUP4 ADD MSTORE PUSH2 0x4148 DUP2 DUP5 PUSH2 0x40C1 JUMP JUMPDEST SWAP1 POP SWAP7 SWAP6 POP POP POP POP POP POP JUMP JUMPDEST PUSH1 0x0 DUP2 MLOAD SWAP1 POP PUSH2 0x4163 DUP2 PUSH2 0x2A66 JUMP JUMPDEST SWAP3 SWAP2 POP POP JUMP JUMPDEST PUSH1 0x0 PUSH1 0x20 DUP3 DUP5 SUB SLT ISZERO PUSH2 0x417F JUMPI PUSH2 0x417E PUSH2 0x2932 JUMP JUMPDEST JUMPDEST PUSH1 0x0 PUSH2 0x418D DUP5 DUP3 DUP6 ADD PUSH2 0x4154 JUMP JUMPDEST SWAP2 POP POP SWAP3 SWAP2 POP POP JUMP JUMPDEST PUSH1 0x0 DUP2 PUSH1 0xE0 SHR SWAP1 POP SWAP2 SWAP1 POP JUMP JUMPDEST PUSH1 0x0 PUSH1 0x3 RETURNDATASIZE GT ISZERO PUSH2 0x41C2 JUMPI PUSH1 0x4 PUSH1 0x0 DUP1 RETURNDATACOPY PUSH2 0x41BF PUSH1 0x0 MLOAD PUSH2 0x4196 JUMP JUMPDEST SWAP1 POP JUMPDEST SWAP1 JUMP JUMPDEST PUSH1 0x0 PUSH1 0x44 RETURNDATASIZE LT ISZERO PUSH2 0x41D5 JUMPI PUSH2 0x4258 JUMP JUMPDEST PUSH2 0x41DD PUSH2 0x2928 JUMP JUMPDEST PUSH1 0x4 RETURNDATASIZE SUB PUSH1 0x4 DUP3 RETURNDATACOPY DUP1 MLOAD RETURNDATASIZE PUSH1 0x24 DUP3 ADD GT PUSH8 0xFFFFFFFFFFFFFFFF DUP3 GT OR ISZERO PUSH2 0x4205 JUMPI POP POP PUSH2 0x4258 JUMP JUMPDEST DUP1 DUP3 ADD DUP1 MLOAD PUSH8 0xFFFFFFFFFFFFFFFF DUP2 GT ISZERO PUSH2 0x4223 JUMPI POP POP POP POP PUSH2 0x4258 JUMP JUMPDEST DUP1 PUSH1 0x20 DUP4 ADD ADD PUSH1 0x4 RETURNDATASIZE SUB DUP6 ADD DUP2 GT ISZERO PUSH2 0x4240 JUMPI POP POP POP POP POP PUSH2 0x4258 JUMP JUMPDEST PUSH2 0x424F DUP3 PUSH1 0x20 ADD DUP6 ADD DUP7 PUSH2 0x2C93 JUMP JUMPDEST DUP3 SWAP6 POP POP POP POP POP POP JUMPDEST SWAP1 JUMP JUMPDEST PUSH32 0x455243313135353A207472616E7366657220746F206E6F6E2D45524331313535 PUSH1 0x0 DUP3 ADD MSTORE PUSH32 0x526563656976657220696D706C656D656E746572000000000000000000000000 PUSH1 0x20 DUP3 ADD MSTORE POP JUMP JUMPDEST PUSH1 0x0 PUSH2 0x42B7 PUSH1 0x34 DUP4 PUSH2 0x2BAF JUMP JUMPDEST SWAP2 POP PUSH2 0x42C2 DUP3 PUSH2 0x425B JUMP JUMPDEST PUSH1 0x40 DUP3 ADD SWAP1 POP SWAP2 SWAP1 POP JUMP JUMPDEST PUSH1 0x0 PUSH1 0x20 DUP3 ADD SWAP1 POP DUP2 DUP2 SUB PUSH1 0x0 DUP4 ADD MSTORE PUSH2 0x42E6 DUP2 PUSH2 0x42AA JUMP JUMPDEST SWAP1 POP SWAP2 SWAP1 POP JUMP JUMPDEST PUSH32 0x455243313135353A204552433131353552656365697665722072656A65637465 PUSH1 0x0 DUP3 ADD MSTORE PUSH32 0x6420746F6B656E73000000000000000000000000000000000000000000000000 PUSH1 0x20 DUP3 ADD MSTORE POP JUMP JUMPDEST PUSH1 0x0 PUSH2 0x4349 PUSH1 0x28 DUP4 PUSH2 0x2BAF JUMP JUMPDEST SWAP2 POP PUSH2 0x4354 DUP3 PUSH2 0x42ED JUMP JUMPDEST PUSH1 0x40 DUP3 ADD SWAP1 POP SWAP2 SWAP1 POP JUMP JUMPDEST PUSH1 0x0 PUSH1 0x20 DUP3 ADD SWAP1 POP DUP2 DUP2 SUB PUSH1 0x0 DUP4 ADD MSTORE PUSH2 0x4378 DUP2 PUSH2 0x433C JUMP JUMPDEST SWAP1 POP SWAP2 SWAP1 POP JUMP JUMPDEST PUSH1 0x0 PUSH1 0xA0 DUP3 ADD SWAP1 POP PUSH2 0x4394 PUSH1 0x0 DUP4 ADD DUP9 PUSH2 0x3716 JUMP JUMPDEST PUSH2 0x43A1 PUSH1 0x20 DUP4 ADD DUP8 PUSH2 0x3716 JUMP JUMPDEST DUP2 DUP2 SUB PUSH1 0x40 DUP4 ADD MSTORE PUSH2 0x43B3 DUP2 DUP7 PUSH2 0x30C6 JUMP JUMPDEST SWAP1 POP DUP2 DUP2 SUB PUSH1 0x60 DUP4 ADD MSTORE PUSH2 0x43C7 DUP2 DUP6 PUSH2 0x30C6 JUMP JUMPDEST SWAP1 POP DUP2 DUP2 SUB PUSH1 0x80 DUP4 ADD MSTORE PUSH2 0x43DB DUP2 DUP5 PUSH2 0x40C1 JUMP JUMPDEST SWAP1 POP SWAP7 SWAP6 POP POP POP POP POP POP JUMP INVALID LOG2 PUSH5 0x6970667358 0x22 SLT KECCAK256 0xEC PUSH27 0xC50E7CB9F84DFEE85EB1B93134F202C40DD9CA652CCBBCFA168352 SWAP6 CALLDATASIZE SWAP16 PUSH5 0x736F6C6343 STOP ADDMOD MULMOD STOP CALLER "},"methodIdentifiers":{"TICKET()":"ff995bb4","balanceOf(address,uint256)":"00fdd58e","balanceOfBatch(address[],uint256[])":"4e1273f4","baseUri()":"9abc8320","eventCount()":"71be2e4a","events(uint256)":"0b791430","feeAccount()":"65e17c9d","feePercent()":"7fd6f15c","getBalanceOfAddress(address,uint256)":"40b40010","getBalanceOfTickets(uint256)":"03024acb","getTotalPrice(uint256)":"ca7dd375","giftMyTicket(address,uint256)":"2557d0ec","isApprovedForAll(address,address)":"e985e9c5","listMyPurchasedTicket(uint256)":"c8dbfaa8","onERC1155BatchReceived(address,address,uint256[],uint256[],bytes)":"bc197c81","onERC1155Received(address,address,uint256,uint256,bytes)":"f23a6e61","purchaseRelistedTicket(uint256)":"d591b439","purchaseTicket(uint256)":"b948348c","registerEvent(uint256,string,uint256)":"9794f8ea","relistedTicketCount()":"dcb664b1","relistedTickets(uint256)":"8e9fbe32","safeBatchTransferFrom(address,address,uint256[],uint256[],bytes)":"2eb2c2d6","safeTransferFrom(address,address,uint256,uint256,bytes)":"f242432a","setApprovalForAll(address,bool)":"a22cb465","supportsInterface(bytes4)":"01ffc9a7","ticketUri(uint256)":"1c216192","uri(uint256)":"0e89341c"}}}}}