{
  "_format": "hh-sol-artifact-1",
  "contractName": "EventsBazaar",
  "sourceName": "contracts/EventsBazaar.sol",
  "abi": [
    {
      "inputs": [
        {
          "internalType": "uint256",
          "name": "_feePercent",
          "type": "uint256"
        },
        {
          "internalType": "string",
          "name": "_baseUrl",
          "type": "string"
        }
      ],
      "stateMutability": "nonpayable",
      "type": "constructor"
    },
    {
      "anonymous": false,
      "inputs": [
        {
          "indexed": true,
          "internalType": "address",
          "name": "account",
          "type": "address"
        },
        {
          "indexed": true,
          "internalType": "address",
          "name": "operator",
          "type": "address"
        },
        {
          "indexed": false,
          "internalType": "bool",
          "name": "approved",
          "type": "bool"
        }
      ],
      "name": "ApprovalForAll",
      "type": "event"
    },
    {
      "anonymous": false,
      "inputs": [
        {
          "indexed": false,
          "internalType": "address",
          "name": "from",
          "type": "address"
        },
        {
          "indexed": false,
          "internalType": "address",
          "name": "to",
          "type": "address"
        },
        {
          "indexed": false,
          "internalType": "uint256",
          "name": "eventId",
          "type": "uint256"
        }
      ],
      "name": "GiftTicket",
      "type": "event"
    },
    {
      "anonymous": false,
      "inputs": [
        {
          "indexed": false,
          "internalType": "address",
          "name": "sender",
          "type": "address"
        },
        {
          "indexed": false,
          "internalType": "uint256",
          "name": "ticketId",
          "type": "uint256"
        },
        {
          "indexed": false,
          "internalType": "uint256",
          "name": "_volume",
          "type": "uint256"
        }
      ],
      "name": "MintTickets",
      "type": "event"
    },
    {
      "anonymous": false,
      "inputs": [
        {
          "indexed": false,
          "internalType": "address",
          "name": "to",
          "type": "address"
        },
        {
          "indexed": true,
          "internalType": "uint256",
          "name": "eventId",
          "type": "uint256"
        }
      ],
      "name": "PurchaseRelist",
      "type": "event"
    },
    {
      "anonymous": false,
      "inputs": [
        {
          "indexed": false,
          "internalType": "uint256",
          "name": "itemId",
          "type": "uint256"
        },
        {
          "indexed": false,
          "internalType": "uint256",
          "name": "tokenId",
          "type": "uint256"
        },
        {
          "indexed": false,
          "internalType": "uint256",
          "name": "price",
          "type": "uint256"
        },
        {
          "indexed": true,
          "internalType": "address",
          "name": "seller",
          "type": "address"
        },
        {
          "indexed": true,
          "internalType": "address",
          "name": "buyer",
          "type": "address"
        }
      ],
      "name": "PurchasedTicket",
      "type": "event"
    },
    {
      "anonymous": false,
      "inputs": [
        {
          "indexed": false,
          "internalType": "uint256",
          "name": "itemId",
          "type": "uint256"
        },
        {
          "indexed": false,
          "internalType": "uint256",
          "name": "price",
          "type": "uint256"
        },
        {
          "indexed": true,
          "internalType": "address",
          "name": "seller",
          "type": "address"
        }
      ],
      "name": "RegisterEvent",
      "type": "event"
    },
    {
      "anonymous": false,
      "inputs": [
        {
          "indexed": false,
          "internalType": "address",
          "name": "from",
          "type": "address"
        },
        {
          "indexed": true,
          "internalType": "uint256",
          "name": "eventId",
          "type": "uint256"
        }
      ],
      "name": "TicketRelisted",
      "type": "event"
    },
    {
      "anonymous": false,
      "inputs": [
        {
          "indexed": true,
          "internalType": "address",
          "name": "operator",
          "type": "address"
        },
        {
          "indexed": true,
          "internalType": "address",
          "name": "from",
          "type": "address"
        },
        {
          "indexed": true,
          "internalType": "address",
          "name": "to",
          "type": "address"
        },
        {
          "indexed": false,
          "internalType": "uint256[]",
          "name": "ids",
          "type": "uint256[]"
        },
        {
          "indexed": false,
          "internalType": "uint256[]",
          "name": "values",
          "type": "uint256[]"
        }
      ],
      "name": "TransferBatch",
      "type": "event"
    },
    {
      "anonymous": false,
      "inputs": [
        {
          "indexed": true,
          "internalType": "address",
          "name": "operator",
          "type": "address"
        },
        {
          "indexed": true,
          "internalType": "address",
          "name": "from",
          "type": "address"
        },
        {
          "indexed": true,
          "internalType": "address",
          "name": "to",
          "type": "address"
        },
        {
          "indexed": false,
          "internalType": "uint256",
          "name": "id",
          "type": "uint256"
        },
        {
          "indexed": false,
          "internalType": "uint256",
          "name": "value",
          "type": "uint256"
        }
      ],
      "name": "TransferSingle",
      "type": "event"
    },
    {
      "anonymous": false,
      "inputs": [
        {
          "indexed": false,
          "internalType": "string",
          "name": "value",
          "type": "string"
        },
        {
          "indexed": true,
          "internalType": "uint256",
          "name": "id",
          "type": "uint256"
        }
      ],
      "name": "URI",
      "type": "event"
    },
    {
      "inputs": [],
      "name": "TICKET",
      "outputs": [
        {
          "internalType": "uint256",
          "name": "",
          "type": "uint256"
        }
      ],
      "stateMutability": "view",
      "type": "function"
    },
    {
      "inputs": [
        {
          "internalType": "address",
          "name": "account",
          "type": "address"
        },
        {
          "internalType": "uint256",
          "name": "id",
          "type": "uint256"
        }
      ],
      "name": "balanceOf",
      "outputs": [
        {
          "internalType": "uint256",
          "name": "",
          "type": "uint256"
        }
      ],
      "stateMutability": "view",
      "type": "function"
    },
    {
      "inputs": [
        {
          "internalType": "address[]",
          "name": "accounts",
          "type": "address[]"
        },
        {
          "internalType": "uint256[]",
          "name": "ids",
          "type": "uint256[]"
        }
      ],
      "name": "balanceOfBatch",
      "outputs": [
        {
          "internalType": "uint256[]",
          "name": "",
          "type": "uint256[]"
        }
      ],
      "stateMutability": "view",
      "type": "function"
    },
    {
      "inputs": [],
      "name": "baseUri",
      "outputs": [
        {
          "internalType": "string",
          "name": "",
          "type": "string"
        }
      ],
      "stateMutability": "view",
      "type": "function"
    },
    {
      "inputs": [],
      "name": "eventCount",
      "outputs": [
        {
          "internalType": "uint256",
          "name": "",
          "type": "uint256"
        }
      ],
      "stateMutability": "view",
      "type": "function"
    },
    {
      "inputs": [
        {
          "internalType": "uint256",
          "name": "",
          "type": "uint256"
        }
      ],
      "name": "events",
      "outputs": [
        {
          "internalType": "uint256",
          "name": "eventId",
          "type": "uint256"
        },
        {
          "internalType": "uint256",
          "name": "tokenId",
          "type": "uint256"
        },
        {
          "internalType": "uint256",
          "name": "price",
          "type": "uint256"
        },
        {
          "internalType": "address payable",
          "name": "seller",
          "type": "address"
        },
        {
          "internalType": "uint256",
          "name": "volume",
          "type": "uint256"
        },
        {
          "internalType": "bool",
          "name": "soldOut",
          "type": "bool"
        }
      ],
      "stateMutability": "view",
      "type": "function"
    },
    {
      "inputs": [],
      "name": "feeAccount",
      "outputs": [
        {
          "internalType": "address payable",
          "name": "",
          "type": "address"
        }
      ],
      "stateMutability": "view",
      "type": "function"
    },
    {
      "inputs": [],
      "name": "feePercent",
      "outputs": [
        {
          "internalType": "uint256",
          "name": "",
          "type": "uint256"
        }
      ],
      "stateMutability": "view",
      "type": "function"
    },
    {
      "inputs": [
        {
          "internalType": "address",
          "name": "addr",
          "type": "address"
        },
        {
          "internalType": "uint256",
          "name": "_eventId",
          "type": "uint256"
        }
      ],
      "name": "getBalanceOfAddress",
      "outputs": [
        {
          "internalType": "uint256",
          "name": "",
          "type": "uint256"
        }
      ],
      "stateMutability": "view",
      "type": "function"
    },
    {
      "inputs": [
        {
          "internalType": "uint256",
          "name": "_eventId",
          "type": "uint256"
        }
      ],
      "name": "getBalanceOfTickets",
      "outputs": [
        {
          "internalType": "uint256",
          "name": "",
          "type": "uint256"
        }
      ],
      "stateMutability": "view",
      "type": "function"
    },
    {
      "inputs": [
        {
          "internalType": "uint256",
          "name": "_eventId",
          "type": "uint256"
        }
      ],
      "name": "getTotalPrice",
      "outputs": [
        {
          "internalType": "uint256",
          "name": "",
          "type": "uint256"
        }
      ],
      "stateMutability": "view",
      "type": "function"
    },
    {
      "inputs": [
        {
          "internalType": "address",
          "name": "_receiver",
          "type": "address"
        },
        {
          "internalType": "uint256",
          "name": "_eventId",
          "type": "uint256"
        }
      ],
      "name": "giftMyTicket",
      "outputs": [],
      "stateMutability": "nonpayable",
      "type": "function"
    },
    {
      "inputs": [
        {
          "internalType": "address",
          "name": "account",
          "type": "address"
        },
        {
          "internalType": "address",
          "name": "operator",
          "type": "address"
        }
      ],
      "name": "isApprovedForAll",
      "outputs": [
        {
          "internalType": "bool",
          "name": "",
          "type": "bool"
        }
      ],
      "stateMutability": "view",
      "type": "function"
    },
    {
      "inputs": [
        {
          "internalType": "uint256",
          "name": "_eventId",
          "type": "uint256"
        }
      ],
      "name": "listMyPurchasedTicket",
      "outputs": [],
      "stateMutability": "nonpayable",
      "type": "function"
    },
    {
      "inputs": [
        {
          "internalType": "address",
          "name": "",
          "type": "address"
        },
        {
          "internalType": "address",
          "name": "",
          "type": "address"
        },
        {
          "internalType": "uint256[]",
          "name": "",
          "type": "uint256[]"
        },
        {
          "internalType": "uint256[]",
          "name": "",
          "type": "uint256[]"
        },
        {
          "internalType": "bytes",
          "name": "",
          "type": "bytes"
        }
      ],
      "name": "onERC1155BatchReceived",
      "outputs": [
        {
          "internalType": "bytes4",
          "name": "",
          "type": "bytes4"
        }
      ],
      "stateMutability": "nonpayable",
      "type": "function"
    },
    {
      "inputs": [
        {
          "internalType": "address",
          "name": "",
          "type": "address"
        },
        {
          "internalType": "address",
          "name": "",
          "type": "address"
        },
        {
          "internalType": "uint256",
          "name": "",
          "type": "uint256"
        },
        {
          "internalType": "uint256",
          "name": "",
          "type": "uint256"
        },
        {
          "internalType": "bytes",
          "name": "",
          "type": "bytes"
        }
      ],
      "name": "onERC1155Received",
      "outputs": [
        {
          "internalType": "bytes4",
          "name": "",
          "type": "bytes4"
        }
      ],
      "stateMutability": "nonpayable",
      "type": "function"
    },
    {
      "inputs": [
        {
          "internalType": "uint256",
          "name": "_relistedTicketId",
          "type": "uint256"
        }
      ],
      "name": "purchaseRelistedTicket",
      "outputs": [],
      "stateMutability": "payable",
      "type": "function"
    },
    {
      "inputs": [
        {
          "internalType": "uint256",
          "name": "_eventId",
          "type": "uint256"
        }
      ],
      "name": "purchaseTicket",
      "outputs": [],
      "stateMutability": "payable",
      "type": "function"
    },
    {
      "inputs": [
        {
          "internalType": "uint256",
          "name": "_price",
          "type": "uint256"
        },
        {
          "internalType": "string",
          "name": "cid",
          "type": "string"
        },
        {
          "internalType": "uint256",
          "name": "_volume",
          "type": "uint256"
        }
      ],
      "name": "registerEvent",
      "outputs": [],
      "stateMutability": "nonpayable",
      "type": "function"
    },
    {
      "inputs": [],
      "name": "relistedTicketCount",
      "outputs": [
        {
          "internalType": "uint256",
          "name": "",
          "type": "uint256"
        }
      ],
      "stateMutability": "view",
      "type": "function"
    },
    {
      "inputs": [
        {
          "internalType": "uint256",
          "name": "",
          "type": "uint256"
        }
      ],
      "name": "relistedTickets",
      "outputs": [
        {
          "internalType": "uint256",
          "name": "listId",
          "type": "uint256"
        },
        {
          "internalType": "uint256",
          "name": "eventId",
          "type": "uint256"
        },
        {
          "internalType": "uint256",
          "name": "tokenId",
          "type": "uint256"
        },
        {
          "internalType": "address payable",
          "name": "seller",
          "type": "address"
        },
        {
          "internalType": "bool",
          "name": "sold",
          "type": "bool"
        }
      ],
      "stateMutability": "view",
      "type": "function"
    },
    {
      "inputs": [
        {
          "internalType": "address",
          "name": "from",
          "type": "address"
        },
        {
          "internalType": "address",
          "name": "to",
          "type": "address"
        },
        {
          "internalType": "uint256[]",
          "name": "ids",
          "type": "uint256[]"
        },
        {
          "internalType": "uint256[]",
          "name": "amounts",
          "type": "uint256[]"
        },
        {
          "internalType": "bytes",
          "name": "data",
          "type": "bytes"
        }
      ],
      "name": "safeBatchTransferFrom",
      "outputs": [],
      "stateMutability": "nonpayable",
      "type": "function"
    },
    {
      "inputs": [
        {
          "internalType": "address",
          "name": "from",
          "type": "address"
        },
        {
          "internalType": "address",
          "name": "to",
          "type": "address"
        },
        {
          "internalType": "uint256",
          "name": "id",
          "type": "uint256"
        },
        {
          "internalType": "uint256",
          "name": "amount",
          "type": "uint256"
        },
        {
          "internalType": "bytes",
          "name": "data",
          "type": "bytes"
        }
      ],
      "name": "safeTransferFrom",
      "outputs": [],
      "stateMutability": "nonpayable",
      "type": "function"
    },
    {
      "inputs": [
        {
          "internalType": "address",
          "name": "operator",
          "type": "address"
        },
        {
          "internalType": "bool",
          "name": "approved",
          "type": "bool"
        }
      ],
      "name": "setApprovalForAll",
      "outputs": [],
      "stateMutability": "nonpayable",
      "type": "function"
    },
    {
      "inputs": [
        {
          "internalType": "bytes4",
          "name": "interfaceId",
          "type": "bytes4"
        }
      ],
      "name": "supportsInterface",
      "outputs": [
        {
          "internalType": "bool",
          "name": "",
          "type": "bool"
        }
      ],
      "stateMutability": "view",
      "type": "function"
    },
    {
      "inputs": [
        {
          "internalType": "uint256",
          "name": "",
          "type": "uint256"
        }
      ],
      "name": "ticketUri",
      "outputs": [
        {
          "internalType": "string",
          "name": "",
          "type": "string"
        }
      ],
      "stateMutability": "view",
      "type": "function"
    },
    {
      "inputs": [
        {
          "internalType": "uint256",
          "name": "_tokenId",
          "type": "uint256"
        }
      ],
      "name": "uri",
      "outputs": [
        {
          "internalType": "string",
          "name": "",
          "type": "string"
        }
      ],
      "stateMutability": "view",
      "type": "function"
    }
  ],
  "bytecode": "0x60c06040523480156200001157600080fd5b506040516200487638038062004876833981810160405281019062000037919062000353565b8060016000819055506200005181620000af60201b60201c565b503373ffffffffffffffffffffffffffffffffffffffff1660808173ffffffffffffffffffffffffffffffffffffffff16815250508160a081815250508060079080519060200190620000a6929190620000cb565b5050506200041e565b8060039080519060200190620000c7929190620000cb565b5050565b828054620000d990620003e8565b90600052602060002090601f016020900481019282620000fd576000855562000149565b82601f106200011857805160ff191683800117855562000149565b8280016001018555821562000149579182015b82811115620001485782518255916020019190600101906200012b565b5b5090506200015891906200015c565b5090565b5b80821115620001775760008160009055506001016200015d565b5090565b6000604051905090565b600080fd5b600080fd5b6000819050919050565b620001a4816200018f565b8114620001b057600080fd5b50565b600081519050620001c48162000199565b92915050565b600080fd5b600080fd5b6000601f19601f8301169050919050565b7f4e487b7100000000000000000000000000000000000000000000000000000000600052604160045260246000fd5b6200021f82620001d4565b810181811067ffffffffffffffff82111715620002415762000240620001e5565b5b80604052505050565b6000620002566200017b565b905062000264828262000214565b919050565b600067ffffffffffffffff821115620002875762000286620001e5565b5b6200029282620001d4565b9050602081019050919050565b60005b83811015620002bf578082015181840152602081019050620002a2565b83811115620002cf576000848401525b50505050565b6000620002ec620002e68462000269565b6200024a565b9050828152602081018484840111156200030b576200030a620001cf565b5b620003188482856200029f565b509392505050565b600082601f830112620003385762000337620001ca565b5b81516200034a848260208601620002d5565b91505092915050565b600080604083850312156200036d576200036c62000185565b5b60006200037d85828601620001b3565b925050602083015167ffffffffffffffff811115620003a157620003a06200018a565b5b620003af8582860162000320565b9150509250929050565b7f4e487b7100000000000000000000000000000000000000000000000000000000600052602260045260246000fd5b600060028204905060018216806200040157607f821691505b60208210811415620004185762000417620003b9565b5b50919050565b60805160a05161441d6200045960003960008181610cff01526115a4015260008181610cd50152818161122201526116b5015261441d6000f3fe60806040526004361061019b5760003560e01c80638e9fbe32116100ec578063ca7dd3751161008a578063e985e9c511610064578063e985e9c514610624578063f23a6e6114610661578063f242432a1461069e578063ff995bb4146106c75761019b565b8063ca7dd375146105a0578063d591b439146105dd578063dcb664b1146105f95761019b565b8063a22cb465116100c6578063a22cb465146104f5578063b948348c1461051e578063bc197c811461053a578063c8dbfaa8146105775761019b565b80638e9fbe32146104605780639794f8ea146104a15780639abc8320146104ca5761019b565b80632557d0ec116101595780634e1273f4116101335780634e1273f4146103a257806365e17c9d146103df57806371be2e4a1461040a5780637fd6f15c146104355761019b565b80632557d0ec146103135780632eb2c2d61461033c57806340b40010146103655761019b565b8062fdd58e146101a057806301ffc9a7146101dd57806303024acb1461021a5780630b791430146102575780630e89341c146102995780631c216192146102d6575b600080fd5b3480156101ac57600080fd5b506101c760048036038101906101c291906129d0565b6106f2565b6040516101d49190612a1f565b60405180910390f35b3480156101e957600080fd5b5061020460048036038101906101ff9190612a92565b6107bc565b6040516102119190612ada565b60405180910390f35b34801561022657600080fd5b50610241600480360381019061023c9190612af5565b6107ce565b60405161024e9190612a1f565b60405180910390f35b34801561026357600080fd5b5061027e60048036038101906102799190612af5565b6107ee565b60405161029096959493929190612b43565b60405180910390f35b3480156102a557600080fd5b506102c060048036038101906102bb9190612af5565b610857565b6040516102cd9190612c3d565b60405180910390f35b3480156102e257600080fd5b506102fd60048036038101906102f89190612af5565b610975565b60405161030a9190612c3d565b60405180910390f35b34801561031f57600080fd5b5061033a600480360381019061033591906129d0565b610a15565b005b34801561034857600080fd5b50610363600480360381019061035e9190612e5c565b610aef565b005b34801561037157600080fd5b5061038c600480360381019061038791906129d0565b610b90565b6040516103999190612a1f565b60405180910390f35b3480156103ae57600080fd5b506103c960048036038101906103c49190612fee565b610bba565b6040516103d69190613124565b60405180910390f35b3480156103eb57600080fd5b506103f4610cd3565b6040516104019190613146565b60405180910390f35b34801561041657600080fd5b5061041f610cf7565b60405161042c9190612a1f565b60405180910390f35b34801561044157600080fd5b5061044a610cfd565b6040516104579190612a1f565b60405180910390f35b34801561046c57600080fd5b5061048760048036038101906104829190612af5565b610d21565b604051610498959493929190613161565b60405180910390f35b3480156104ad57600080fd5b506104c860048036038101906104c39190613255565b610d84565b005b3480156104d657600080fd5b506104df610fb4565b6040516104ec9190612c3d565b60405180910390f35b34801561050157600080fd5b5061051c600480360381019061051791906132f0565b611042565b005b61053860048036038101906105339190612af5565b611058565b005b34801561054657600080fd5b50610561600480360381019061055c9190612e5c565b6113a0565b60405161056e919061333f565b60405180910390f35b34801561058357600080fd5b5061059e60048036038101906105999190612af5565b6113b5565b005b3480156105ac57600080fd5b506105c760048036038101906105c29190612af5565b61159e565b6040516105d49190612a1f565b60405180910390f35b6105f760048036038101906105f29190612af5565b611601565b005b34801561060557600080fd5b5061060e6117a9565b60405161061b9190612a1f565b60405180910390f35b34801561063057600080fd5b5061064b6004803603810190610646919061335a565b6117af565b6040516106589190612ada565b60405180910390f35b34801561066d57600080fd5b506106886004803603810190610683919061339a565b611843565b604051610695919061333f565b60405180910390f35b3480156106aa57600080fd5b506106c560048036038101906106c0919061339a565b611858565b005b3480156106d357600080fd5b506106dc6118f9565b6040516106e99190612a1f565b60405180910390f35b60008073ffffffffffffffffffffffffffffffffffffffff168373ffffffffffffffffffffffffffffffffffffffff161415610763576040517f08c379a000000000000000000000000000000000000000000000000000000000815260040161075a906134a3565b60405180910390fd5b6001600083815260200190815260200160002060008473ffffffffffffffffffffffffffffffffffffffff1673ffffffffffffffffffffffffffffffffffffffff16815260200190815260200160002054905092915050565b60006107c7826118ff565b9050919050565b600060086000838152602001908152602001600020600401549050919050565b60086020528060005260406000206000915090508060000154908060010154908060020154908060030160009054906101000a900473ffffffffffffffffffffffffffffffffffffffff16908060040154908060050160009054906101000a900460ff16905086565b606060008211801561086b57506006548211155b6108aa576040517f08c379a00000000000000000000000000000000000000000000000000000000081526004016108a19061350f565b60405180910390fd5b6000600a600084815260200190815260200160002080546108ca9061355e565b80601f01602080910402602001604051908101604052809291908181526020018280546108f69061355e565b80156109435780601f1061091857610100808354040283529160200191610943565b820191906000526020600020905b81548152906001019060200180831161092657829003601f168201915b5050505050905060078160405160200161095e929190613660565b604051602081830303815290604052915050919050565b600a60205280600052604060002060009150905080546109949061355e565b80601f01602080910402602001604051908101604052809291908181526020018280546109c09061355e565b8015610a0d5780601f106109e257610100808354040283529160200191610a0d565b820191906000526020600020905b8154815290600101906020018083116109f057829003601f168201915b505050505081565b6000610a37336008600085815260200190815260200160002060010154610b90565b905060008111610a7c576040517f08c379a0000000000000000000000000000000000000000000000000000000008152600401610a73906136f6565b60405180910390fd5b610aaf33846008600086815260200190815260200160002060010154600160405180602001604052806000815250611979565b7f0ac91d2f8d3e949eae287e79b5c8fad5b540e91849a83b006756d38abff26013338484604051610ae293929190613725565b60405180910390a1505050565b610af7611c18565b73ffffffffffffffffffffffffffffffffffffffff168573ffffffffffffffffffffffffffffffffffffffff161480610b3d5750610b3c85610b37611c18565b6117af565b5b610b7c576040517f08c379a0000000000000000000000000000000000000000000000000000000008152600401610b73906137ce565b60405180910390fd5b610b898585858585611c20565b5050505050565b6000610bb28360086000858152602001908152602001600020600101546106f2565b905092915050565b60608151835114610c00576040517f08c379a0000000000000000000000000000000000000000000000000000000008152600401610bf790613860565b60405180910390fd5b6000835167ffffffffffffffff811115610c1d57610c1c612c64565b5b604051908082528060200260200182016040528015610c4b5781602001602082028036833780820191505090505b50905060005b8451811015610cc857610c98858281518110610c7057610c6f613880565b5b6020026020010151858381518110610c8b57610c8a613880565b5b60200260200101516106f2565b828281518110610cab57610caa613880565b5b60200260200101818152505080610cc1906138de565b9050610c51565b508091505092915050565b7f000000000000000000000000000000000000000000000000000000000000000081565b60045481565b7f000000000000000000000000000000000000000000000000000000000000000081565b60096020528060005260406000206000915090508060000154908060010154908060020154908060030160009054906101000a900473ffffffffffffffffffffffffffffffffffffffff16908060030160149054906101000a900460ff16905085565b610d8c611f45565b60008311610dcf576040517f08c379a0000000000000000000000000000000000000000000000000000000008152600401610dc690613973565b60405180910390fd5b60046000815480929190610de2906138de565b919050555060066000815480929190610dfa906138de565b9190505550610e1c336006548360405180602001604052806000815250611f95565b81600a600060065481526020019081526020016000209080519060200190610e45929190612885565b50610e6433306006548460405180602001604052806000815250611858565b6040518060c00160405280600454815260200160065481526020018481526020013373ffffffffffffffffffffffffffffffffffffffff1681526020018281526020016000151581525060086000600454815260200190815260200160002060008201518160000155602082015181600101556040820151816002015560608201518160030160006101000a81548173ffffffffffffffffffffffffffffffffffffffff021916908373ffffffffffffffffffffffffffffffffffffffff1602179055506080820151816004015560a08201518160050160006101000a81548160ff0219169083151502179055509050503373ffffffffffffffffffffffffffffffffffffffff167fa2b90da0fe4028bd7cdf0622c6b33d9dea51ad80d2d7045c11070368f3e9a01860045485604051610f9f929190613993565b60405180910390a2610faf612147565b505050565b60078054610fc19061355e565b80601f0160208091040260200160405190810160405280929190818152602001828054610fed9061355e565b801561103a5780601f1061100f5761010080835404028352916020019161103a565b820191906000526020600020905b81548152906001019060200180831161101d57829003601f168201915b505050505081565b61105461104d611c18565b8383612151565b5050565b611060611f45565b600061106b8261159e565b9050600060086000848152602001908152602001600020905060008311801561109657506004548311155b6110d5576040517f08c379a00000000000000000000000000000000000000000000000000000000081526004016110cc90613a08565b60405180910390fd5b8060050160009054906101000a900460ff1615611127576040517f08c379a000000000000000000000000000000000000000000000000000000000815260040161111e90613a74565b60405180910390fd5b600081600401541161116e576040517f08c379a000000000000000000000000000000000000000000000000000000000815260040161116590613ae0565b60405180910390fd5b813410156111b1576040517f08c379a00000000000000000000000000000000000000000000000000000000081526004016111a890613b72565b60405180910390fd5b8060030160009054906101000a900473ffffffffffffffffffffffffffffffffffffffff1673ffffffffffffffffffffffffffffffffffffffff166108fc82600201549081150290604051600060405180830381858888f1935050505015801561121f573d6000803e3d6000fd5b507f000000000000000000000000000000000000000000000000000000000000000073ffffffffffffffffffffffffffffffffffffffff166108fc82600201548461126a9190613b92565b9081150290604051600060405180830381858888f19350505050158015611295573d6000803e3d6000fd5b5060018160040160008282546112ab9190613b92565b925050819055506000816004015414156112dd5760018160050160006101000a81548160ff0219169083151502179055505b6112fe30338360010154600160405180602001604052806000815250611979565b3373ffffffffffffffffffffffffffffffffffffffff168160030160009054906101000a900473ffffffffffffffffffffffffffffffffffffffff1673ffffffffffffffffffffffffffffffffffffffff167ff41fa837b49a32f097af019fa055fa5fb310e3b08eb66594ebd2ceebbf28e0e6858460010154856002015460405161138b93929190613bc6565b60405180910390a3505061139d612147565b50565b600063bc197c8160e01b905095945050505050565b600060086000838152602001908152602001600020905060006113dc338360010154610b90565b905060008111611421576040517f08c379a0000000000000000000000000000000000000000000000000000000008152600401611418906136f6565b60405180910390fd5b60056000815480929190611434906138de565b919050555061146c33306008600087815260200190815260200160002060010154600160405180602001604052806000815250611858565b6040518060a001604052806005548152602001848152602001600860008681526020019081526020016000206001015481526020013373ffffffffffffffffffffffffffffffffffffffff1681526020016000151581525060096000600554815260200190815260200160002060008201518160000155602082015181600101556040820151816002015560608201518160030160006101000a81548173ffffffffffffffffffffffffffffffffffffffff021916908373ffffffffffffffffffffffffffffffffffffffff16021790555060808201518160030160146101000a81548160ff021916908315150217905550905050827fb315f93b930435bbd7b52e252c5e215a91e5eec27b8028c5638ca28e3c18720b336040516115919190613bfd565b60405180910390a2505050565b600060647f000000000000000000000000000000000000000000000000000000000000000060646115cf9190613c18565b60086000858152602001908152602001600020600201546115f09190613c6e565b6115fa9190613cf7565b9050919050565b60006009600083815260200190815260200160002090506000611627826001015461159e565b90506000600860008460010154815260200190815260200160002090508060030160009054906101000a900473ffffffffffffffffffffffffffffffffffffffff1673ffffffffffffffffffffffffffffffffffffffff166108fc82600201549081150290604051600060405180830381858888f193505050501580156116b2573d6000803e3d6000fd5b507f000000000000000000000000000000000000000000000000000000000000000073ffffffffffffffffffffffffffffffffffffffff166108fc8260020154846116fd9190613b92565b9081150290604051600060405180830381858888f19350505050158015611728573d6000803e3d6000fd5b5060018360030160146101000a81548160ff02191690831515021790555061176730338360010154600160405180602001604052806000815250611979565b82600101547f42db8fad4c2ee254b98f6b5bb0c183564db808afdf72a99510c2577d5e29d1e73360405161179b9190613bfd565b60405180910390a250505050565b60055481565b6000600260008473ffffffffffffffffffffffffffffffffffffffff1673ffffffffffffffffffffffffffffffffffffffff16815260200190815260200160002060008373ffffffffffffffffffffffffffffffffffffffff1673ffffffffffffffffffffffffffffffffffffffff16815260200190815260200160002060009054906101000a900460ff16905092915050565b600063f23a6e6160e01b905095945050505050565b611860611c18565b73ffffffffffffffffffffffffffffffffffffffff168573ffffffffffffffffffffffffffffffffffffffff1614806118a657506118a5856118a0611c18565b6117af565b5b6118e5576040517f08c379a00000000000000000000000000000000000000000000000000000000081526004016118dc906137ce565b60405180910390fd5b6118f28585858585611979565b5050505050565b60065481565b60007f4e2312e0000000000000000000000000000000000000000000000000000000007bffffffffffffffffffffffffffffffffffffffffffffffffffffffff1916827bffffffffffffffffffffffffffffffffffffffffffffffffffffffff191614806119725750611971826122be565b5b9050919050565b600073ffffffffffffffffffffffffffffffffffffffff168473ffffffffffffffffffffffffffffffffffffffff1614156119e9576040517f08c379a00000000000000000000000000000000000000000000000000000000081526004016119e090613d9a565b60405180910390fd5b60006119f3611c18565b90506000611a00856123a0565b90506000611a0d856123a0565b9050611a1d83898985858961241a565b60006001600088815260200190815260200160002060008a73ffffffffffffffffffffffffffffffffffffffff1673ffffffffffffffffffffffffffffffffffffffff16815260200190815260200160002054905085811015611ab5576040517f08c379a0000000000000000000000000000000000000000000000000000000008152600401611aac90613e2c565b60405180910390fd5b8581036001600089815260200190815260200160002060008b73ffffffffffffffffffffffffffffffffffffffff1673ffffffffffffffffffffffffffffffffffffffff16815260200190815260200160002081905550856001600089815260200190815260200160002060008a73ffffffffffffffffffffffffffffffffffffffff1673ffffffffffffffffffffffffffffffffffffffff1681526020019081526020016000206000828254611b6c9190613c18565b925050819055508773ffffffffffffffffffffffffffffffffffffffff168973ffffffffffffffffffffffffffffffffffffffff168573ffffffffffffffffffffffffffffffffffffffff167fc3d58168c5ae7397731d063d5bbf3d657854427343f4c083240f7aacaa2d0f628a8a604051611be9929190613993565b60405180910390a4611bff848a8a86868a612422565b611c0d848a8a8a8a8a61242a565b505050505050505050565b600033905090565b8151835114611c64576040517f08c379a0000000000000000000000000000000000000000000000000000000008152600401611c5b90613ebe565b60405180910390fd5b600073ffffffffffffffffffffffffffffffffffffffff168473ffffffffffffffffffffffffffffffffffffffff161415611cd4576040517f08c379a0000000000000000000000000000000000000000000000000000000008152600401611ccb90613d9a565b60405180910390fd5b6000611cde611c18565b9050611cee81878787878761241a565b60005b8451811015611ea2576000858281518110611d0f57611d0e613880565b5b602002602001015190506000858381518110611d2e57611d2d613880565b5b6020026020010151905060006001600084815260200190815260200160002060008b73ffffffffffffffffffffffffffffffffffffffff1673ffffffffffffffffffffffffffffffffffffffff16815260200190815260200160002054905081811015611dd0576040517f08c379a0000000000000000000000000000000000000000000000000000000008152600401611dc790613e2c565b60405180910390fd5b8181036001600085815260200190815260200160002060008c73ffffffffffffffffffffffffffffffffffffffff1673ffffffffffffffffffffffffffffffffffffffff16815260200190815260200160002081905550816001600085815260200190815260200160002060008b73ffffffffffffffffffffffffffffffffffffffff1673ffffffffffffffffffffffffffffffffffffffff1681526020019081526020016000206000828254611e879190613c18565b9250508190555050505080611e9b906138de565b9050611cf1565b508473ffffffffffffffffffffffffffffffffffffffff168673ffffffffffffffffffffffffffffffffffffffff168273ffffffffffffffffffffffffffffffffffffffff167f4a39dc06d4c0dbc64b70af90fd698a233a518aa5d07e595d983b8c0526c8f7fb8787604051611f19929190613ede565b60405180910390a4611f2f818787878787612422565b611f3d818787878787612611565b505050505050565b60026000541415611f8b576040517f08c379a0000000000000000000000000000000000000000000000000000000008152600401611f8290613f61565b60405180910390fd5b6002600081905550565b600073ffffffffffffffffffffffffffffffffffffffff168473ffffffffffffffffffffffffffffffffffffffff161415612005576040517f08c379a0000000000000000000000000000000000000000000000000000000008152600401611ffc90613ff3565b60405180910390fd5b600061200f611c18565b9050600061201c856123a0565b90506000612029856123a0565b905061203a8360008985858961241a565b846001600088815260200190815260200160002060008973ffffffffffffffffffffffffffffffffffffffff1673ffffffffffffffffffffffffffffffffffffffff168152602001908152602001600020600082825461209a9190613c18565b925050819055508673ffffffffffffffffffffffffffffffffffffffff16600073ffffffffffffffffffffffffffffffffffffffff168473ffffffffffffffffffffffffffffffffffffffff167fc3d58168c5ae7397731d063d5bbf3d657854427343f4c083240f7aacaa2d0f628989604051612118929190613993565b60405180910390a461212f83600089858589612422565b61213e8360008989898961242a565b50505050505050565b6001600081905550565b8173ffffffffffffffffffffffffffffffffffffffff168373ffffffffffffffffffffffffffffffffffffffff1614156121c0576040517f08c379a00000000000000000000000000000000000000000000000000000000081526004016121b790614085565b60405180910390fd5b80600260008573ffffffffffffffffffffffffffffffffffffffff1673ffffffffffffffffffffffffffffffffffffffff16815260200190815260200160002060008473ffffffffffffffffffffffffffffffffffffffff1673ffffffffffffffffffffffffffffffffffffffff16815260200190815260200160002060006101000a81548160ff0219169083151502179055508173ffffffffffffffffffffffffffffffffffffffff168373ffffffffffffffffffffffffffffffffffffffff167f17307eab39ab6107e8899845ad3d59bd9653f200f220920489ca2b5937696c31836040516122b19190612ada565b60405180910390a3505050565b60007fd9b67a26000000000000000000000000000000000000000000000000000000007bffffffffffffffffffffffffffffffffffffffffffffffffffffffff1916827bffffffffffffffffffffffffffffffffffffffffffffffffffffffff1916148061238957507f0e89341c000000000000000000000000000000000000000000000000000000007bffffffffffffffffffffffffffffffffffffffffffffffffffffffff1916827bffffffffffffffffffffffffffffffffffffffffffffffffffffffff1916145b806123995750612398826127f8565b5b9050919050565b60606000600167ffffffffffffffff8111156123bf576123be612c64565b5b6040519080825280602002602001820160405280156123ed5781602001602082028036833780820191505090505b509050828160008151811061240557612404613880565b5b60200260200101818152505080915050919050565b505050505050565b505050505050565b6124498473ffffffffffffffffffffffffffffffffffffffff16612862565b15612609578373ffffffffffffffffffffffffffffffffffffffff1663f23a6e6187878686866040518663ffffffff1660e01b815260040161248f9594939291906140fa565b602060405180830381600087803b1580156124a957600080fd5b505af19250505080156124da57506040513d601f19601f820116820180604052508101906124d79190614169565b60015b612580576124e66141a3565b806308c379a0141561254357506124fb6141c5565b806125065750612545565b806040517f08c379a000000000000000000000000000000000000000000000000000000000815260040161253a9190612c3d565b60405180910390fd5b505b6040517f08c379a0000000000000000000000000000000000000000000000000000000008152600401612577906142cd565b60405180910390fd5b63f23a6e6160e01b7bffffffffffffffffffffffffffffffffffffffffffffffffffffffff1916817bffffffffffffffffffffffffffffffffffffffffffffffffffffffff191614612607576040517f08c379a00000000000000000000000000000000000000000000000000000000081526004016125fe9061435f565b60405180910390fd5b505b505050505050565b6126308473ffffffffffffffffffffffffffffffffffffffff16612862565b156127f0578373ffffffffffffffffffffffffffffffffffffffff1663bc197c8187878686866040518663ffffffff1660e01b815260040161267695949392919061437f565b602060405180830381600087803b15801561269057600080fd5b505af19250505080156126c157506040513d601f19601f820116820180604052508101906126be9190614169565b60015b612767576126cd6141a3565b806308c379a0141561272a57506126e26141c5565b806126ed575061272c565b806040517f08c379a00000000000000000000000000000000000000000000000000000000081526004016127219190612c3d565b60405180910390fd5b505b6040517f08c379a000000000000000000000000000000000000000000000000000000000815260040161275e906142cd565b60405180910390fd5b63bc197c8160e01b7bffffffffffffffffffffffffffffffffffffffffffffffffffffffff1916817bffffffffffffffffffffffffffffffffffffffffffffffffffffffff1916146127ee576040517f08c379a00000000000000000000000000000000000000000000000000000000081526004016127e59061435f565b60405180910390fd5b505b505050505050565b60007f01ffc9a7000000000000000000000000000000000000000000000000000000007bffffffffffffffffffffffffffffffffffffffffffffffffffffffff1916827bffffffffffffffffffffffffffffffffffffffffffffffffffffffff1916149050919050565b6000808273ffffffffffffffffffffffffffffffffffffffff163b119050919050565b8280546128919061355e565b90600052602060002090601f0160209004810192826128b357600085556128fa565b82601f106128cc57805160ff19168380011785556128fa565b828001600101855582156128fa579182015b828111156128f95782518255916020019190600101906128de565b5b509050612907919061290b565b5090565b5b8082111561292457600081600090555060010161290c565b5090565b6000604051905090565b600080fd5b600080fd5b600073ffffffffffffffffffffffffffffffffffffffff82169050919050565b60006129678261293c565b9050919050565b6129778161295c565b811461298257600080fd5b50565b6000813590506129948161296e565b92915050565b6000819050919050565b6129ad8161299a565b81146129b857600080fd5b50565b6000813590506129ca816129a4565b92915050565b600080604083850312156129e7576129e6612932565b5b60006129f585828601612985565b9250506020612a06858286016129bb565b9150509250929050565b612a198161299a565b82525050565b6000602082019050612a346000830184612a10565b92915050565b60007fffffffff0000000000000000000000000000000000000000000000000000000082169050919050565b612a6f81612a3a565b8114612a7a57600080fd5b50565b600081359050612a8c81612a66565b92915050565b600060208284031215612aa857612aa7612932565b5b6000612ab684828501612a7d565b91505092915050565b60008115159050919050565b612ad481612abf565b82525050565b6000602082019050612aef6000830184612acb565b92915050565b600060208284031215612b0b57612b0a612932565b5b6000612b19848285016129bb565b91505092915050565b6000612b2d8261293c565b9050919050565b612b3d81612b22565b82525050565b600060c082019050612b586000830189612a10565b612b656020830188612a10565b612b726040830187612a10565b612b7f6060830186612b34565b612b8c6080830185612a10565b612b9960a0830184612acb565b979650505050505050565b600081519050919050565b600082825260208201905092915050565b60005b83811015612bde578082015181840152602081019050612bc3565b83811115612bed576000848401525b50505050565b6000601f19601f8301169050919050565b6000612c0f82612ba4565b612c198185612baf565b9350612c29818560208601612bc0565b612c3281612bf3565b840191505092915050565b60006020820190508181036000830152612c578184612c04565b905092915050565b600080fd5b7f4e487b7100000000000000000000000000000000000000000000000000000000600052604160045260246000fd5b612c9c82612bf3565b810181811067ffffffffffffffff82111715612cbb57612cba612c64565b5b80604052505050565b6000612cce612928565b9050612cda8282612c93565b919050565b600067ffffffffffffffff821115612cfa57612cf9612c64565b5b602082029050602081019050919050565b600080fd5b6000612d23612d1e84612cdf565b612cc4565b90508083825260208201905060208402830185811115612d4657612d45612d0b565b5b835b81811015612d6f5780612d5b88826129bb565b845260208401935050602081019050612d48565b5050509392505050565b600082601f830112612d8e57612d8d612c5f565b5b8135612d9e848260208601612d10565b91505092915050565b600080fd5b600067ffffffffffffffff821115612dc757612dc6612c64565b5b612dd082612bf3565b9050602081019050919050565b82818337600083830152505050565b6000612dff612dfa84612dac565b612cc4565b905082815260208101848484011115612e1b57612e1a612da7565b5b612e26848285612ddd565b509392505050565b600082601f830112612e4357612e42612c5f565b5b8135612e53848260208601612dec565b91505092915050565b600080600080600060a08688031215612e7857612e77612932565b5b6000612e8688828901612985565b9550506020612e9788828901612985565b945050604086013567ffffffffffffffff811115612eb857612eb7612937565b5b612ec488828901612d79565b935050606086013567ffffffffffffffff811115612ee557612ee4612937565b5b612ef188828901612d79565b925050608086013567ffffffffffffffff811115612f1257612f11612937565b5b612f1e88828901612e2e565b9150509295509295909350565b600067ffffffffffffffff821115612f4657612f45612c64565b5b602082029050602081019050919050565b6000612f6a612f6584612f2b565b612cc4565b90508083825260208201905060208402830185811115612f8d57612f8c612d0b565b5b835b81811015612fb65780612fa28882612985565b845260208401935050602081019050612f8f565b5050509392505050565b600082601f830112612fd557612fd4612c5f565b5b8135612fe5848260208601612f57565b91505092915050565b6000806040838503121561300557613004612932565b5b600083013567ffffffffffffffff81111561302357613022612937565b5b61302f85828601612fc0565b925050602083013567ffffffffffffffff8111156130505761304f612937565b5b61305c85828601612d79565b9150509250929050565b600081519050919050565b600082825260208201905092915050565b6000819050602082019050919050565b61309b8161299a565b82525050565b60006130ad8383613092565b60208301905092915050565b6000602082019050919050565b60006130d182613066565b6130db8185613071565b93506130e683613082565b8060005b838110156131175781516130fe88826130a1565b9750613109836130b9565b9250506001810190506130ea565b5085935050505092915050565b6000602082019050818103600083015261313e81846130c6565b905092915050565b600060208201905061315b6000830184612b34565b92915050565b600060a0820190506131766000830188612a10565b6131836020830187612a10565b6131906040830186612a10565b61319d6060830185612b34565b6131aa6080830184612acb565b9695505050505050565b600067ffffffffffffffff8211156131cf576131ce612c64565b5b6131d882612bf3565b9050602081019050919050565b60006131f86131f3846131b4565b612cc4565b90508281526020810184848401111561321457613213612da7565b5b61321f848285612ddd565b509392505050565b600082601f83011261323c5761323b612c5f565b5b813561324c8482602086016131e5565b91505092915050565b60008060006060848603121561326e5761326d612932565b5b600061327c868287016129bb565b935050602084013567ffffffffffffffff81111561329d5761329c612937565b5b6132a986828701613227565b92505060406132ba868287016129bb565b9150509250925092565b6132cd81612abf565b81146132d857600080fd5b50565b6000813590506132ea816132c4565b92915050565b6000806040838503121561330757613306612932565b5b600061331585828601612985565b9250506020613326858286016132db565b9150509250929050565b61333981612a3a565b82525050565b60006020820190506133546000830184613330565b92915050565b6000806040838503121561337157613370612932565b5b600061337f85828601612985565b925050602061339085828601612985565b9150509250929050565b600080600080600060a086880312156133b6576133b5612932565b5b60006133c488828901612985565b95505060206133d588828901612985565b94505060406133e6888289016129bb565b93505060606133f7888289016129bb565b925050608086013567ffffffffffffffff81111561341857613417612937565b5b61342488828901612e2e565b9150509295509295909350565b7f455243313135353a2061646472657373207a65726f206973206e6f742061207660008201527f616c6964206f776e657200000000000000000000000000000000000000000000602082015250565b600061348d602a83612baf565b915061349882613431565b604082019050919050565b600060208201905081810360008301526134bc81613480565b9050919050565b7f546f6b656e20494420646f6573206e6f74206578697374000000000000000000600082015250565b60006134f9601783612baf565b9150613504826134c3565b602082019050919050565b60006020820190508181036000830152613528816134ec565b9050919050565b7f4e487b7100000000000000000000000000000000000000000000000000000000600052602260045260246000fd5b6000600282049050600182168061357657607f821691505b6020821081141561358a5761358961352f565b5b50919050565b600081905092915050565b60008190508160005260206000209050919050565b600081546135bd8161355e565b6135c78186613590565b945060018216600081146135e257600181146135f357613626565b60ff19831686528186019350613626565b6135fc8561359b565b60005b8381101561361e578154818901526001820191506020810190506135ff565b838801955050505b50505092915050565b600061363a82612ba4565b6136448185613590565b9350613654818560208601612bc0565b80840191505092915050565b600061366c82856135b0565b9150613678828461362f565b91508190509392505050565b7f596f752068617665206e6f207469636b657420666f722074686973206576656e60008201527f7400000000000000000000000000000000000000000000000000000000000000602082015250565b60006136e0602183612baf565b91506136eb82613684565b604082019050919050565b6000602082019050818103600083015261370f816136d3565b9050919050565b61371f8161295c565b82525050565b600060608201905061373a6000830186613716565b6137476020830185613716565b6137546040830184612a10565b949350505050565b7f455243313135353a2063616c6c6572206973206e6f7420746f6b656e206f776e60008201527f6572206f7220617070726f766564000000000000000000000000000000000000602082015250565b60006137b8602e83612baf565b91506137c38261375c565b604082019050919050565b600060208201905081810360008301526137e7816137ab565b9050919050565b7f455243313135353a206163636f756e747320616e6420696473206c656e67746860008201527f206d69736d617463680000000000000000000000000000000000000000000000602082015250565b600061384a602983612baf565b9150613855826137ee565b604082019050919050565b600060208201905081810360008301526138798161383d565b9050919050565b7f4e487b7100000000000000000000000000000000000000000000000000000000600052603260045260246000fd5b7f4e487b7100000000000000000000000000000000000000000000000000000000600052601160045260246000fd5b60006138e98261299a565b91507fffffffffffffffffffffffffffffffffffffffffffffffffffffffffffffffff82141561391c5761391b6138af565b5b600182019050919050565b7f5072696365206d7573742062652067726561746572207468616e207a65726f00600082015250565b600061395d601f83612baf565b915061396882613927565b602082019050919050565b6000602082019050818103600083015261398c81613950565b9050919050565b60006040820190506139a86000830185612a10565b6139b56020830184612a10565b9392505050565b7f4576656e7420496420646f65736e277420657869737400000000000000000000600082015250565b60006139f2601683612baf565b91506139fd826139bc565b602082019050919050565b60006020820190508181036000830152613a21816139e5565b9050919050565b7f5469636b65747320616c726561647920736f6c64206f75742100000000000000600082015250565b6000613a5e601983612baf565b9150613a6982613a28565b602082019050919050565b60006020820190508181036000830152613a8d81613a51565b9050919050565b7f5469636b65747320736f6c64206f757421000000000000000000000000000000600082015250565b6000613aca601183612baf565b9150613ad582613a94565b602082019050919050565b60006020820190508181036000830152613af981613abd565b9050919050565b7f4e6f7420656e6f756768206d6174696320746f20636f766572205469636b657460008201527f20707269636520616e64206d61726b6574206665650000000000000000000000602082015250565b6000613b5c603583612baf565b9150613b6782613b00565b604082019050919050565b60006020820190508181036000830152613b8b81613b4f565b9050919050565b6000613b9d8261299a565b9150613ba88361299a565b925082821015613bbb57613bba6138af565b5b828203905092915050565b6000606082019050613bdb6000830186612a10565b613be86020830185612a10565b613bf56040830184612a10565b949350505050565b6000602082019050613c126000830184613716565b92915050565b6000613c238261299a565b9150613c2e8361299a565b9250827fffffffffffffffffffffffffffffffffffffffffffffffffffffffffffffffff03821115613c6357613c626138af565b5b828201905092915050565b6000613c798261299a565b9150613c848361299a565b9250817fffffffffffffffffffffffffffffffffffffffffffffffffffffffffffffffff0483118215151615613cbd57613cbc6138af565b5b828202905092915050565b7f4e487b7100000000000000000000000000000000000000000000000000000000600052601260045260246000fd5b6000613d028261299a565b9150613d0d8361299a565b925082613d1d57613d1c613cc8565b5b828204905092915050565b7f455243313135353a207472616e7366657220746f20746865207a65726f20616460008201527f6472657373000000000000000000000000000000000000000000000000000000602082015250565b6000613d84602583612baf565b9150613d8f82613d28565b604082019050919050565b60006020820190508181036000830152613db381613d77565b9050919050565b7f455243313135353a20696e73756666696369656e742062616c616e636520666f60008201527f72207472616e7366657200000000000000000000000000000000000000000000602082015250565b6000613e16602a83612baf565b9150613e2182613dba565b604082019050919050565b60006020820190508181036000830152613e4581613e09565b9050919050565b7f455243313135353a2069647320616e6420616d6f756e7473206c656e6774682060008201527f6d69736d61746368000000000000000000000000000000000000000000000000602082015250565b6000613ea8602883612baf565b9150613eb382613e4c565b604082019050919050565b60006020820190508181036000830152613ed781613e9b565b9050919050565b60006040820190508181036000830152613ef881856130c6565b90508181036020830152613f0c81846130c6565b90509392505050565b7f5265656e7472616e637947756172643a207265656e7472616e742063616c6c00600082015250565b6000613f4b601f83612baf565b9150613f5682613f15565b602082019050919050565b60006020820190508181036000830152613f7a81613f3e565b9050919050565b7f455243313135353a206d696e7420746f20746865207a65726f2061646472657360008201527f7300000000000000000000000000000000000000000000000000000000000000602082015250565b6000613fdd602183612baf565b9150613fe882613f81565b604082019050919050565b6000602082019050818103600083015261400c81613fd0565b9050919050565b7f455243313135353a2073657474696e6720617070726f76616c2073746174757360008201527f20666f722073656c660000000000000000000000000000000000000000000000602082015250565b600061406f602983612baf565b915061407a82614013565b604082019050919050565b6000602082019050818103600083015261409e81614062565b9050919050565b600081519050919050565b600082825260208201905092915050565b60006140cc826140a5565b6140d681856140b0565b93506140e6818560208601612bc0565b6140ef81612bf3565b840191505092915050565b600060a08201905061410f6000830188613716565b61411c6020830187613716565b6141296040830186612a10565b6141366060830185612a10565b818103608083015261414881846140c1565b90509695505050505050565b60008151905061416381612a66565b92915050565b60006020828403121561417f5761417e612932565b5b600061418d84828501614154565b91505092915050565b60008160e01c9050919050565b600060033d11156141c25760046000803e6141bf600051614196565b90505b90565b600060443d10156141d557614258565b6141dd612928565b60043d036004823e80513d602482011167ffffffffffffffff82111715614205575050614258565b808201805167ffffffffffffffff8111156142235750505050614258565b80602083010160043d038501811115614240575050505050614258565b61424f82602001850186612c93565b82955050505050505b90565b7f455243313135353a207472616e7366657220746f206e6f6e2d4552433131353560008201527f526563656976657220696d706c656d656e746572000000000000000000000000602082015250565b60006142b7603483612baf565b91506142c28261425b565b604082019050919050565b600060208201905081810360008301526142e6816142aa565b9050919050565b7f455243313135353a204552433131353552656365697665722072656a6563746560008201527f6420746f6b656e73000000000000000000000000000000000000000000000000602082015250565b6000614349602883612baf565b9150614354826142ed565b604082019050919050565b600060208201905081810360008301526143788161433c565b9050919050565b600060a0820190506143946000830188613716565b6143a16020830187613716565b81810360408301526143b381866130c6565b905081810360608301526143c781856130c6565b905081810360808301526143db81846140c1565b9050969550505050505056fea2646970667358221220ec7ac50e7cb9f84dfee85eb1b93134f202c40dd9ca652ccbbcfa16835295369f64736f6c63430008090033",
  "linkReferences": {},
  "deployedLinkReferences": {}
}