{
  "_format": "hh-sol-artifact-1",
  "contractName": "EventsBazaar",
  "sourceName": "contracts/EventsBazaar.sol",
  "abi": [
    {
      "inputs": [
        {
          "internalType": "uint256",
          "name": "_feePercent",
          "type": "uint256"
        }
      ],
      "stateMutability": "nonpayable",
      "type": "constructor"
    },
    {
      "anonymous": false,
      "inputs": [
        {
          "indexed": false,
          "internalType": "address",
          "name": "from",
          "type": "address"
        },
        {
          "indexed": false,
          "internalType": "address",
          "name": "to",
          "type": "address"
        },
        {
          "indexed": false,
          "internalType": "uint256",
          "name": "eventId",
          "type": "uint256"
        }
      ],
      "name": "GiftTicket",
      "type": "event"
    },
    {
      "anonymous": false,
      "inputs": [
        {
          "indexed": false,
          "internalType": "address",
          "name": "to",
          "type": "address"
        },
        {
          "indexed": true,
          "internalType": "uint256",
          "name": "eventId",
          "type": "uint256"
        }
      ],
      "name": "PurchaseRelist",
      "type": "event"
    },
    {
      "anonymous": false,
      "inputs": [
        {
          "indexed": false,
          "internalType": "uint256",
          "name": "itemId",
          "type": "uint256"
        },
        {
          "indexed": true,
          "internalType": "address",
          "name": "nft",
          "type": "address"
        },
        {
          "indexed": false,
          "internalType": "uint256",
          "name": "tokenId",
          "type": "uint256"
        },
        {
          "indexed": false,
          "internalType": "uint256",
          "name": "price",
          "type": "uint256"
        },
        {
          "indexed": true,
          "internalType": "address",
          "name": "seller",
          "type": "address"
        },
        {
          "indexed": true,
          "internalType": "address",
          "name": "buyer",
          "type": "address"
        }
      ],
      "name": "PurchasedTicket",
      "type": "event"
    },
    {
      "anonymous": false,
      "inputs": [
        {
          "indexed": false,
          "internalType": "uint256",
          "name": "itemId",
          "type": "uint256"
        },
        {
          "indexed": true,
          "internalType": "address",
          "name": "nft",
          "type": "address"
        },
        {
          "indexed": false,
          "internalType": "uint256",
          "name": "price",
          "type": "uint256"
        },
        {
          "indexed": true,
          "internalType": "address",
          "name": "seller",
          "type": "address"
        }
      ],
      "name": "RegisterEvent",
      "type": "event"
    },
    {
      "anonymous": false,
      "inputs": [
        {
          "indexed": false,
          "internalType": "address",
          "name": "from",
          "type": "address"
        },
        {
          "indexed": true,
          "internalType": "uint256",
          "name": "eventId",
          "type": "uint256"
        }
      ],
      "name": "TicketRelisted",
      "type": "event"
    },
    {
      "inputs": [],
      "name": "eventCount",
      "outputs": [
        {
          "internalType": "uint256",
          "name": "",
          "type": "uint256"
        }
      ],
      "stateMutability": "view",
      "type": "function"
    },
    {
      "inputs": [
        {
          "internalType": "uint256",
          "name": "",
          "type": "uint256"
        }
      ],
      "name": "events",
      "outputs": [
        {
          "internalType": "uint256",
          "name": "eventId",
          "type": "uint256"
        },
        {
          "internalType": "contract IERC1155",
          "name": "nft",
          "type": "address"
        },
        {
          "internalType": "uint256",
          "name": "tokenId",
          "type": "uint256"
        },
        {
          "internalType": "uint256",
          "name": "price",
          "type": "uint256"
        },
        {
          "internalType": "address payable",
          "name": "seller",
          "type": "address"
        },
        {
          "internalType": "uint256",
          "name": "volume",
          "type": "uint256"
        },
        {
          "internalType": "bool",
          "name": "soldOut",
          "type": "bool"
        }
      ],
      "stateMutability": "view",
      "type": "function"
    },
    {
      "inputs": [],
      "name": "feeAccount",
      "outputs": [
        {
          "internalType": "address payable",
          "name": "",
          "type": "address"
        }
      ],
      "stateMutability": "view",
      "type": "function"
    },
    {
      "inputs": [],
      "name": "feePercent",
      "outputs": [
        {
          "internalType": "uint256",
          "name": "",
          "type": "uint256"
        }
      ],
      "stateMutability": "view",
      "type": "function"
    },
    {
      "inputs": [
        {
          "internalType": "address",
          "name": "addr",
          "type": "address"
        },
        {
          "internalType": "uint256",
          "name": "_eventId",
          "type": "uint256"
        }
      ],
      "name": "getBalanceOfAddress",
      "outputs": [
        {
          "internalType": "uint256",
          "name": "",
          "type": "uint256"
        }
      ],
      "stateMutability": "view",
      "type": "function"
    },
    {
      "inputs": [
        {
          "internalType": "uint256",
          "name": "_eventId",
          "type": "uint256"
        }
      ],
      "name": "getBalanceOfTickets",
      "outputs": [
        {
          "internalType": "uint256",
          "name": "",
          "type": "uint256"
        }
      ],
      "stateMutability": "view",
      "type": "function"
    },
    {
      "inputs": [
        {
          "internalType": "uint256",
          "name": "_eventId",
          "type": "uint256"
        }
      ],
      "name": "getTotalPrice",
      "outputs": [
        {
          "internalType": "uint256",
          "name": "",
          "type": "uint256"
        }
      ],
      "stateMutability": "view",
      "type": "function"
    },
    {
      "inputs": [
        {
          "internalType": "address",
          "name": "_receiver",
          "type": "address"
        },
        {
          "internalType": "uint256",
          "name": "_eventId",
          "type": "uint256"
        }
      ],
      "name": "giftMyTicket",
      "outputs": [],
      "stateMutability": "nonpayable",
      "type": "function"
    },
    {
      "inputs": [
        {
          "internalType": "uint256",
          "name": "_eventId",
          "type": "uint256"
        }
      ],
      "name": "listMyPurchasedTicket",
      "outputs": [],
      "stateMutability": "nonpayable",
      "type": "function"
    },
    {
      "inputs": [
        {
          "internalType": "address",
          "name": "",
          "type": "address"
        },
        {
          "internalType": "address",
          "name": "",
          "type": "address"
        },
        {
          "internalType": "uint256[]",
          "name": "",
          "type": "uint256[]"
        },
        {
          "internalType": "uint256[]",
          "name": "",
          "type": "uint256[]"
        },
        {
          "internalType": "bytes",
          "name": "",
          "type": "bytes"
        }
      ],
      "name": "onERC1155BatchReceived",
      "outputs": [
        {
          "internalType": "bytes4",
          "name": "",
          "type": "bytes4"
        }
      ],
      "stateMutability": "nonpayable",
      "type": "function"
    },
    {
      "inputs": [
        {
          "internalType": "address",
          "name": "",
          "type": "address"
        },
        {
          "internalType": "address",
          "name": "",
          "type": "address"
        },
        {
          "internalType": "uint256",
          "name": "",
          "type": "uint256"
        },
        {
          "internalType": "uint256",
          "name": "",
          "type": "uint256"
        },
        {
          "internalType": "bytes",
          "name": "",
          "type": "bytes"
        }
      ],
      "name": "onERC1155Received",
      "outputs": [
        {
          "internalType": "bytes4",
          "name": "",
          "type": "bytes4"
        }
      ],
      "stateMutability": "nonpayable",
      "type": "function"
    },
    {
      "inputs": [
        {
          "internalType": "uint256",
          "name": "_relistedTicketId",
          "type": "uint256"
        }
      ],
      "name": "purchaseRelistedTicket",
      "outputs": [],
      "stateMutability": "payable",
      "type": "function"
    },
    {
      "inputs": [
        {
          "internalType": "uint256",
          "name": "_eventId",
          "type": "uint256"
        }
      ],
      "name": "purchaseTicket",
      "outputs": [],
      "stateMutability": "payable",
      "type": "function"
    },
    {
      "inputs": [
        {
          "internalType": "contract IERC1155",
          "name": "_nft",
          "type": "address"
        },
        {
          "internalType": "uint256",
          "name": "_price",
          "type": "uint256"
        },
        {
          "internalType": "uint256",
          "name": "_tokenId",
          "type": "uint256"
        }
      ],
      "name": "registerEvent",
      "outputs": [],
      "stateMutability": "nonpayable",
      "type": "function"
    },
    {
      "inputs": [],
      "name": "relistedTicketCount",
      "outputs": [
        {
          "internalType": "uint256",
          "name": "",
          "type": "uint256"
        }
      ],
      "stateMutability": "view",
      "type": "function"
    },
    {
      "inputs": [
        {
          "internalType": "uint256",
          "name": "",
          "type": "uint256"
        }
      ],
      "name": "relistedTickets",
      "outputs": [
        {
          "internalType": "uint256",
          "name": "listId",
          "type": "uint256"
        },
        {
          "internalType": "uint256",
          "name": "eventId",
          "type": "uint256"
        },
        {
          "internalType": "uint256",
          "name": "tokenId",
          "type": "uint256"
        },
        {
          "internalType": "address payable",
          "name": "seller",
          "type": "address"
        },
        {
          "internalType": "bool",
          "name": "sold",
          "type": "bool"
        }
      ],
      "stateMutability": "view",
      "type": "function"
    },
    {
      "inputs": [
        {
          "internalType": "bytes4",
          "name": "interfaceId",
          "type": "bytes4"
        }
      ],
      "name": "supportsInterface",
      "outputs": [
        {
          "internalType": "bool",
          "name": "",
          "type": "bool"
        }
      ],
      "stateMutability": "view",
      "type": "function"
    }
  ],
  "bytecode": "0x60c06040523480156200001157600080fd5b50604051620025ea380380620025ea8339818101604052810190620000379190620000c2565b60016000819055503373ffffffffffffffffffffffffffffffffffffffff1660808173ffffffffffffffffffffffffffffffffffffffff16815250508060a0818152505050620000f4565b600080fd5b6000819050919050565b6200009c8162000087565b8114620000a857600080fd5b50565b600081519050620000bc8162000091565b92915050565b600060208284031215620000db57620000da62000082565b5b6000620000eb84828501620000ab565b91505092915050565b60805160a0516124bb6200012f60003960008181610b250152611241015260008181610afb01528181610d74015261135201526124bb6000f3fe6080604052600436106100fe5760003560e01c80637fd6f15c11610095578063c8dbfaa811610064578063c8dbfaa81461036a578063ca7dd37514610393578063d591b439146103d0578063dcb664b1146103ec578063f23a6e6114610417576100fe565b80637fd6f15c146102a55780638e9fbe32146102d0578063b948348c14610311578063bc197c811461032d576100fe565b8063337c681d116100d1578063337c681d146101e957806340b400101461021257806365e17c9d1461024f57806371be2e4a1461027a576100fe565b806301ffc9a71461010357806303024acb146101405780630b7914301461017d5780632557d0ec146101c0575b600080fd5b34801561010f57600080fd5b5061012a60048036038101906101259190611610565b610454565b6040516101379190611658565b60405180910390f35b34801561014c57600080fd5b50610167600480360381019061016291906116a9565b6104ce565b60405161017491906116e5565b60405180910390f35b34801561018957600080fd5b506101a4600480360381019061019f91906116a9565b6104ee565b6040516101b797969594939291906117a0565b60405180910390f35b3480156101cc57600080fd5b506101e760048036038101906101e2919061184d565b61057d565b005b3480156101f557600080fd5b50610210600480360381019061020b91906118cb565b6106e8565b005b34801561021e57600080fd5b506102396004803603810190610234919061184d565b610a19565b60405161024691906116e5565b60405180910390f35b34801561025b57600080fd5b50610264610af9565b604051610271919061191e565b60405180910390f35b34801561028657600080fd5b5061028f610b1d565b60405161029c91906116e5565b60405180910390f35b3480156102b157600080fd5b506102ba610b23565b6040516102c791906116e5565b60405180910390f35b3480156102dc57600080fd5b506102f760048036038101906102f291906116a9565b610b47565b604051610308959493929190611939565b60405180910390f35b61032b600480360381019061032691906116a9565b610baa565b005b34801561033957600080fd5b50610354600480360381019061034f9190611b9a565b610fac565b6040516103619190611c78565b60405180910390f35b34801561037657600080fd5b50610391600480360381019061038c91906116a9565b610fc1565b005b34801561039f57600080fd5b506103ba60048036038101906103b591906116a9565b61123b565b6040516103c791906116e5565b60405180910390f35b6103ea60048036038101906103e591906116a9565b61129e565b005b3480156103f857600080fd5b506104016114c5565b60405161040e91906116e5565b60405180910390f35b34801561042357600080fd5b5061043e60048036038101906104399190611c93565b6114cb565b60405161044b9190611c78565b60405180910390f35b60007f4e2312e0000000000000000000000000000000000000000000000000000000007bffffffffffffffffffffffffffffffffffffffffffffffffffffffff1916827bffffffffffffffffffffffffffffffffffffffffffffffffffffffff191614806104c757506104c6826114e0565b5b9050919050565b600060036000838152602001908152602001600020600501549050919050565b60036020528060005260406000206000915090508060000154908060010160009054906101000a900473ffffffffffffffffffffffffffffffffffffffff16908060020154908060030154908060040160009054906101000a900473ffffffffffffffffffffffffffffffffffffffff16908060050154908060060160009054906101000a900460ff16905087565b600061059f336003600085815260200190815260200160002060020154610a19565b9050600081116105e4576040517f08c379a00000000000000000000000000000000000000000000000000000000081526004016105db90611dad565b60405180910390fd5b60006003600084815260200190815260200160002060010160009054906101000a900473ffffffffffffffffffffffffffffffffffffffff1690508073ffffffffffffffffffffffffffffffffffffffff1663f242432a3386600360008881526020019081526020016000206002015460016040518563ffffffff1660e01b81526004016106759493929190611e4e565b600060405180830381600087803b15801561068f57600080fd5b505af11580156106a3573d6000803e3d6000fd5b505050507f0ac91d2f8d3e949eae287e79b5c8fad5b540e91849a83b006756d38abff260133385856040516106da93929190611ea6565b60405180910390a150505050565b6106f061154a565b60008211610733576040517f08c379a000000000000000000000000000000000000000000000000000000000815260040161072a90611f29565b60405180910390fd5b6001600081548092919061074690611f78565b9190505550600083905060008173ffffffffffffffffffffffffffffffffffffffff1662fdd58e33856040518363ffffffff1660e01b815260040161078c929190611fc1565b60206040518083038186803b1580156107a457600080fd5b505afa1580156107b8573d6000803e3d6000fd5b505050506040513d601f19601f820116820180604052508101906107dc9190611fff565b90508173ffffffffffffffffffffffffffffffffffffffff1663f242432a333086856040518563ffffffff1660e01b815260040161081d949392919061202c565b600060405180830381600087803b15801561083757600080fd5b505af115801561084b573d6000803e3d6000fd5b505050506040518060e0016040528060015481526020018673ffffffffffffffffffffffffffffffffffffffff1681526020018481526020018581526020013373ffffffffffffffffffffffffffffffffffffffff168152602001828152602001600015158152506003600060015481526020019081526020016000206000820151816000015560208201518160010160006101000a81548173ffffffffffffffffffffffffffffffffffffffff021916908373ffffffffffffffffffffffffffffffffffffffff160217905550604082015181600201556060820151816003015560808201518160040160006101000a81548173ffffffffffffffffffffffffffffffffffffffff021916908373ffffffffffffffffffffffffffffffffffffffff16021790555060a0820151816005015560c08201518160060160006101000a81548160ff0219169083151502179055509050503373ffffffffffffffffffffffffffffffffffffffff168573ffffffffffffffffffffffffffffffffffffffff167fd54d47c6c315b381a9f3348b2096e40aae1bd6b56e030c8bd9003139990c638c60015487604051610a02929190612084565b60405180910390a35050610a1461159a565b505050565b60006003600083815260200190815260200160002060010160009054906101000a900473ffffffffffffffffffffffffffffffffffffffff1673ffffffffffffffffffffffffffffffffffffffff1662fdd58e8460036000868152602001908152602001600020600201546040518363ffffffff1660e01b8152600401610aa1929190611fc1565b60206040518083038186803b158015610ab957600080fd5b505afa158015610acd573d6000803e3d6000fd5b505050506040513d601f19601f82011682018060405250810190610af19190611fff565b905092915050565b7f000000000000000000000000000000000000000000000000000000000000000081565b60015481565b7f000000000000000000000000000000000000000000000000000000000000000081565b60046020528060005260406000206000915090508060000154908060010154908060020154908060030160009054906101000a900473ffffffffffffffffffffffffffffffffffffffff16908060030160149054906101000a900460ff16905085565b610bb261154a565b6000610bbd8261123b565b90506000600360008481526020019081526020016000209050600083118015610be857506001548311155b610c27576040517f08c379a0000000000000000000000000000000000000000000000000000000008152600401610c1e906120f9565b60405180910390fd5b8060060160009054906101000a900460ff1615610c79576040517f08c379a0000000000000000000000000000000000000000000000000000000008152600401610c7090612165565b60405180910390fd5b6000816005015411610cc0576040517f08c379a0000000000000000000000000000000000000000000000000000000008152600401610cb7906121d1565b60405180910390fd5b81341015610d03576040517f08c379a0000000000000000000000000000000000000000000000000000000008152600401610cfa90612263565b60405180910390fd5b8060040160009054906101000a900473ffffffffffffffffffffffffffffffffffffffff1673ffffffffffffffffffffffffffffffffffffffff166108fc82600301549081150290604051600060405180830381858888f19350505050158015610d71573d6000803e3d6000fd5b507f000000000000000000000000000000000000000000000000000000000000000073ffffffffffffffffffffffffffffffffffffffff166108fc826003015484610dbc9190612283565b9081150290604051600060405180830381858888f19350505050158015610de7573d6000803e3d6000fd5b506001816005016000828254610dfd9190612283565b92505081905550600081600501541415610e2f5760018160060160006101000a81548160ff0219169083151502179055505b60008160010160009054906101000a900473ffffffffffffffffffffffffffffffffffffffff1690508073ffffffffffffffffffffffffffffffffffffffff1663f242432a3033856002015460016040518563ffffffff1660e01b8152600401610e9c9493929190611e4e565b600060405180830381600087803b158015610eb657600080fd5b505af1158015610eca573d6000803e3d6000fd5b505050503373ffffffffffffffffffffffffffffffffffffffff168260040160009054906101000a900473ffffffffffffffffffffffffffffffffffffffff1673ffffffffffffffffffffffffffffffffffffffff168360010160009054906101000a900473ffffffffffffffffffffffffffffffffffffffff1673ffffffffffffffffffffffffffffffffffffffff167fc1724d9f1157d0c1169356e5288723b7c33ffc0b91962389d4a9d34427e4d3ac8786600201548760030154604051610f96939291906122b7565b60405180910390a4505050610fa961159a565b50565b600063bc197c8160e01b905095945050505050565b60006003600083815260200190815260200160002090506000610fe8338360020154610a19565b90506000811161102d576040517f08c379a000000000000000000000000000000000000000000000000000000000815260040161102490611dad565b60405180910390fd5b6002600081548092919061104090611f78565b919050555060006003600085815260200190815260200160002060010160009054906101000a900473ffffffffffffffffffffffffffffffffffffffff1690508073ffffffffffffffffffffffffffffffffffffffff1663f242432a3330600360008981526020019081526020016000206002015460016040518563ffffffff1660e01b81526004016110d69493929190611e4e565b600060405180830381600087803b1580156110f057600080fd5b505af1158015611104573d6000803e3d6000fd5b505050506040518060a001604052806002548152602001858152602001600360008781526020019081526020016000206002015481526020013373ffffffffffffffffffffffffffffffffffffffff1681526020016000151581525060046000600254815260200190815260200160002060008201518160000155602082015181600101556040820151816002015560608201518160030160006101000a81548173ffffffffffffffffffffffffffffffffffffffff021916908373ffffffffffffffffffffffffffffffffffffffff16021790555060808201518160030160146101000a81548160ff021916908315150217905550905050837fb315f93b930435bbd7b52e252c5e215a91e5eec27b8028c5638ca28e3c18720b3360405161122d91906122ee565b60405180910390a250505050565b600060647f0000000000000000000000000000000000000000000000000000000000000000606461126c9190612309565b600360008581526020019081526020016000206003015461128d919061235f565b61129791906123e8565b9050919050565b600060046000838152602001908152602001600020905060006112c4826001015461123b565b90506000600360008460010154815260200190815260200160002090508060040160009054906101000a900473ffffffffffffffffffffffffffffffffffffffff1673ffffffffffffffffffffffffffffffffffffffff166108fc82600301549081150290604051600060405180830381858888f1935050505015801561134f573d6000803e3d6000fd5b507f000000000000000000000000000000000000000000000000000000000000000073ffffffffffffffffffffffffffffffffffffffff166108fc82600301548461139a9190612283565b9081150290604051600060405180830381858888f193505050501580156113c5573d6000803e3d6000fd5b5060018360030160146101000a81548160ff02191690831515021790555060008160010160009054906101000a900473ffffffffffffffffffffffffffffffffffffffff1690508073ffffffffffffffffffffffffffffffffffffffff1663f242432a3033856002015460016040518563ffffffff1660e01b81526004016114509493929190611e4e565b600060405180830381600087803b15801561146a57600080fd5b505af115801561147e573d6000803e3d6000fd5b5050505083600101547f42db8fad4c2ee254b98f6b5bb0c183564db808afdf72a99510c2577d5e29d1e7336040516114b691906122ee565b60405180910390a25050505050565b60025481565b600063f23a6e6160e01b905095945050505050565b60007f01ffc9a7000000000000000000000000000000000000000000000000000000007bffffffffffffffffffffffffffffffffffffffffffffffffffffffff1916827bffffffffffffffffffffffffffffffffffffffffffffffffffffffff1916149050919050565b60026000541415611590576040517f08c379a000000000000000000000000000000000000000000000000000000000815260040161158790612465565b60405180910390fd5b6002600081905550565b6001600081905550565b6000604051905090565b600080fd5b600080fd5b60007fffffffff0000000000000000000000000000000000000000000000000000000082169050919050565b6115ed816115b8565b81146115f857600080fd5b50565b60008135905061160a816115e4565b92915050565b600060208284031215611626576116256115ae565b5b6000611634848285016115fb565b91505092915050565b60008115159050919050565b6116528161163d565b82525050565b600060208201905061166d6000830184611649565b92915050565b6000819050919050565b61168681611673565b811461169157600080fd5b50565b6000813590506116a38161167d565b92915050565b6000602082840312156116bf576116be6115ae565b5b60006116cd84828501611694565b91505092915050565b6116df81611673565b82525050565b60006020820190506116fa60008301846116d6565b92915050565b600073ffffffffffffffffffffffffffffffffffffffff82169050919050565b6000819050919050565b600061174561174061173b84611700565b611720565b611700565b9050919050565b60006117578261172a565b9050919050565b60006117698261174c565b9050919050565b6117798161175e565b82525050565b600061178a82611700565b9050919050565b61179a8161177f565b82525050565b600060e0820190506117b5600083018a6116d6565b6117c26020830189611770565b6117cf60408301886116d6565b6117dc60608301876116d6565b6117e96080830186611791565b6117f660a08301856116d6565b61180360c0830184611649565b98975050505050505050565b600061181a82611700565b9050919050565b61182a8161180f565b811461183557600080fd5b50565b60008135905061184781611821565b92915050565b60008060408385031215611864576118636115ae565b5b600061187285828601611838565b925050602061188385828601611694565b9150509250929050565b60006118988261180f565b9050919050565b6118a88161188d565b81146118b357600080fd5b50565b6000813590506118c58161189f565b92915050565b6000806000606084860312156118e4576118e36115ae565b5b60006118f2868287016118b6565b935050602061190386828701611694565b925050604061191486828701611694565b9150509250925092565b60006020820190506119336000830184611791565b92915050565b600060a08201905061194e60008301886116d6565b61195b60208301876116d6565b61196860408301866116d6565b6119756060830185611791565b6119826080830184611649565b9695505050505050565b600080fd5b6000601f19601f8301169050919050565b7f4e487b7100000000000000000000000000000000000000000000000000000000600052604160045260246000fd5b6119da82611991565b810181811067ffffffffffffffff821117156119f9576119f86119a2565b5b80604052505050565b6000611a0c6115a4565b9050611a1882826119d1565b919050565b600067ffffffffffffffff821115611a3857611a376119a2565b5b602082029050602081019050919050565b600080fd5b6000611a61611a5c84611a1d565b611a02565b90508083825260208201905060208402830185811115611a8457611a83611a49565b5b835b81811015611aad5780611a998882611694565b845260208401935050602081019050611a86565b5050509392505050565b600082601f830112611acc57611acb61198c565b5b8135611adc848260208601611a4e565b91505092915050565b600080fd5b600067ffffffffffffffff821115611b0557611b046119a2565b5b611b0e82611991565b9050602081019050919050565b82818337600083830152505050565b6000611b3d611b3884611aea565b611a02565b905082815260208101848484011115611b5957611b58611ae5565b5b611b64848285611b1b565b509392505050565b600082601f830112611b8157611b8061198c565b5b8135611b91848260208601611b2a565b91505092915050565b600080600080600060a08688031215611bb657611bb56115ae565b5b6000611bc488828901611838565b9550506020611bd588828901611838565b945050604086013567ffffffffffffffff811115611bf657611bf56115b3565b5b611c0288828901611ab7565b935050606086013567ffffffffffffffff811115611c2357611c226115b3565b5b611c2f88828901611ab7565b925050608086013567ffffffffffffffff811115611c5057611c4f6115b3565b5b611c5c88828901611b6c565b9150509295509295909350565b611c72816115b8565b82525050565b6000602082019050611c8d6000830184611c69565b92915050565b600080600080600060a08688031215611caf57611cae6115ae565b5b6000611cbd88828901611838565b9550506020611cce88828901611838565b9450506040611cdf88828901611694565b9350506060611cf088828901611694565b925050608086013567ffffffffffffffff811115611d1157611d106115b3565b5b611d1d88828901611b6c565b9150509295509295909350565b600082825260208201905092915050565b7f596f752068617665206e6f207469636b657420666f722074686973206576656e60008201527f7400000000000000000000000000000000000000000000000000000000000000602082015250565b6000611d97602183611d2a565b9150611da282611d3b565b604082019050919050565b60006020820190508181036000830152611dc681611d8a565b9050919050565b611dd68161180f565b82525050565b6000819050919050565b6000611e01611dfc611df784611ddc565b611720565b611673565b9050919050565b611e1181611de6565b82525050565b600082825260208201905092915050565b50565b6000611e38600083611e17565b9150611e4382611e28565b600082019050919050565b600060a082019050611e636000830187611dcd565b611e706020830186611dcd565b611e7d60408301856116d6565b611e8a6060830184611e08565b8181036080830152611e9b81611e2b565b905095945050505050565b6000606082019050611ebb6000830186611dcd565b611ec86020830185611dcd565b611ed560408301846116d6565b949350505050565b7f5072696365206d7573742062652067726561746572207468616e207a65726f00600082015250565b6000611f13601f83611d2a565b9150611f1e82611edd565b602082019050919050565b60006020820190508181036000830152611f4281611f06565b9050919050565b7f4e487b7100000000000000000000000000000000000000000000000000000000600052601160045260246000fd5b6000611f8382611673565b91507fffffffffffffffffffffffffffffffffffffffffffffffffffffffffffffffff821415611fb657611fb5611f49565b5b600182019050919050565b6000604082019050611fd66000830185611dcd565b611fe360208301846116d6565b9392505050565b600081519050611ff98161167d565b92915050565b600060208284031215612015576120146115ae565b5b600061202384828501611fea565b91505092915050565b600060a0820190506120416000830187611dcd565b61204e6020830186611dcd565b61205b60408301856116d6565b61206860608301846116d6565b818103608083015261207981611e2b565b905095945050505050565b600060408201905061209960008301856116d6565b6120a660208301846116d6565b9392505050565b7f4576656e7420496420646f65736e277420657869737400000000000000000000600082015250565b60006120e3601683611d2a565b91506120ee826120ad565b602082019050919050565b60006020820190508181036000830152612112816120d6565b9050919050565b7f5469636b65747320616c726561647920736f6c64206f75742100000000000000600082015250565b600061214f601983611d2a565b915061215a82612119565b602082019050919050565b6000602082019050818103600083015261217e81612142565b9050919050565b7f5469636b65747320736f6c64206f757421000000000000000000000000000000600082015250565b60006121bb601183611d2a565b91506121c682612185565b602082019050919050565b600060208201905081810360008301526121ea816121ae565b9050919050565b7f4e6f7420656e6f756768206d6174696320746f20636f766572205469636b657460008201527f20707269636520616e64206d61726b6574206665650000000000000000000000602082015250565b600061224d603583611d2a565b9150612258826121f1565b604082019050919050565b6000602082019050818103600083015261227c81612240565b9050919050565b600061228e82611673565b915061229983611673565b9250828210156122ac576122ab611f49565b5b828203905092915050565b60006060820190506122cc60008301866116d6565b6122d960208301856116d6565b6122e660408301846116d6565b949350505050565b60006020820190506123036000830184611dcd565b92915050565b600061231482611673565b915061231f83611673565b9250827fffffffffffffffffffffffffffffffffffffffffffffffffffffffffffffffff0382111561235457612353611f49565b5b828201905092915050565b600061236a82611673565b915061237583611673565b9250817fffffffffffffffffffffffffffffffffffffffffffffffffffffffffffffffff04831182151516156123ae576123ad611f49565b5b828202905092915050565b7f4e487b7100000000000000000000000000000000000000000000000000000000600052601260045260246000fd5b60006123f382611673565b91506123fe83611673565b92508261240e5761240d6123b9565b5b828204905092915050565b7f5265656e7472616e637947756172643a207265656e7472616e742063616c6c00600082015250565b600061244f601f83611d2a565b915061245a82612419565b602082019050919050565b6000602082019050818103600083015261247e81612442565b905091905056fea26469706673582212208bf1d466d211a1dbde7fc1104547f50163305c5077b8a5e9f2e1dbeb6675c92964736f6c63430008090033",
  "linkReferences": {},
  "deployedLinkReferences": {}
}